{
  "contractName": "RariGovernor",
  "abi": [
    {
      "inputs": [],
      "name": "Empty",
      "type": "error"
    },
    {
      "anonymous": false,
      "inputs": [
        {
          "indexed": false,
          "internalType": "uint8",
          "name": "version",
          "type": "uint8"
        }
      ],
      "name": "Initialized",
      "type": "event"
    },
    {
      "anonymous": false,
      "inputs": [
        {
          "indexed": false,
          "internalType": "uint256",
          "name": "proposalId",
          "type": "uint256"
        }
      ],
      "name": "ProposalCanceled",
      "type": "event"
    },
    {
      "anonymous": false,
      "inputs": [
        {
          "indexed": false,
          "internalType": "uint256",
          "name": "proposalId",
          "type": "uint256"
        },
        {
          "indexed": false,
          "internalType": "address",
          "name": "proposer",
          "type": "address"
        },
        {
          "indexed": false,
          "internalType": "address[]",
          "name": "targets",
          "type": "address[]"
        },
        {
          "indexed": false,
          "internalType": "uint256[]",
          "name": "values",
          "type": "uint256[]"
        },
        {
          "indexed": false,
          "internalType": "string[]",
          "name": "signatures",
          "type": "string[]"
        },
        {
          "indexed": false,
          "internalType": "bytes[]",
          "name": "calldatas",
          "type": "bytes[]"
        },
        {
          "indexed": false,
          "internalType": "uint256",
          "name": "startBlock",
          "type": "uint256"
        },
        {
          "indexed": false,
          "internalType": "uint256",
          "name": "endBlock",
          "type": "uint256"
        },
        {
          "indexed": false,
          "internalType": "string",
          "name": "description",
          "type": "string"
        }
      ],
      "name": "ProposalCreated",
      "type": "event"
    },
    {
      "anonymous": false,
      "inputs": [
        {
          "indexed": false,
          "internalType": "uint256",
          "name": "proposalId",
          "type": "uint256"
        }
      ],
      "name": "ProposalExecuted",
      "type": "event"
    },
    {
      "anonymous": false,
      "inputs": [
        {
          "indexed": false,
          "internalType": "uint256",
          "name": "proposalId",
          "type": "uint256"
        },
        {
          "indexed": false,
          "internalType": "uint256",
          "name": "eta",
          "type": "uint256"
        }
      ],
      "name": "ProposalQueued",
      "type": "event"
    },
    {
      "anonymous": false,
      "inputs": [
        {
          "indexed": false,
          "internalType": "uint256",
          "name": "oldQuorumNumerator",
          "type": "uint256"
        },
        {
          "indexed": false,
          "internalType": "uint256",
          "name": "newQuorumNumerator",
          "type": "uint256"
        }
      ],
      "name": "QuorumNumeratorUpdated",
      "type": "event"
    },
    {
      "anonymous": false,
      "inputs": [
        {
          "indexed": false,
          "internalType": "address",
          "name": "oldTimelock",
          "type": "address"
        },
        {
          "indexed": false,
          "internalType": "address",
          "name": "newTimelock",
          "type": "address"
        }
      ],
      "name": "TimelockChange",
      "type": "event"
    },
    {
      "anonymous": false,
      "inputs": [
        {
          "indexed": true,
          "internalType": "address",
          "name": "voter",
          "type": "address"
        },
        {
          "indexed": false,
          "internalType": "uint256",
          "name": "proposalId",
          "type": "uint256"
        },
        {
          "indexed": false,
          "internalType": "uint8",
          "name": "support",
          "type": "uint8"
        },
        {
          "indexed": false,
          "internalType": "uint256",
          "name": "weight",
          "type": "uint256"
        },
        {
          "indexed": false,
          "internalType": "string",
          "name": "reason",
          "type": "string"
        }
      ],
      "name": "VoteCast",
      "type": "event"
    },
    {
      "anonymous": false,
      "inputs": [
        {
          "indexed": true,
          "internalType": "address",
          "name": "voter",
          "type": "address"
        },
        {
          "indexed": false,
          "internalType": "uint256",
          "name": "proposalId",
          "type": "uint256"
        },
        {
          "indexed": false,
          "internalType": "uint8",
          "name": "support",
          "type": "uint8"
        },
        {
          "indexed": false,
          "internalType": "uint256",
          "name": "weight",
          "type": "uint256"
        },
        {
          "indexed": false,
          "internalType": "string",
          "name": "reason",
          "type": "string"
        },
        {
          "indexed": false,
          "internalType": "bytes",
          "name": "params",
          "type": "bytes"
        }
      ],
      "name": "VoteCastWithParams",
      "type": "event"
    },
    {
      "inputs": [],
      "name": "BALLOT_TYPEHASH",
      "outputs": [
        {
          "internalType": "bytes32",
          "name": "",
          "type": "bytes32"
        }
      ],
      "stateMutability": "view",
      "type": "function",
      "constant": true
    },
    {
      "inputs": [],
      "name": "COUNTING_MODE",
      "outputs": [
        {
          "internalType": "string",
          "name": "",
          "type": "string"
        }
      ],
      "stateMutability": "pure",
      "type": "function",
      "constant": true
    },
    {
      "inputs": [],
      "name": "EXTENDED_BALLOT_TYPEHASH",
      "outputs": [
        {
          "internalType": "bytes32",
          "name": "",
          "type": "bytes32"
        }
      ],
      "stateMutability": "view",
      "type": "function",
      "constant": true
    },
    {
      "inputs": [
        {
          "internalType": "uint256",
          "name": "proposalId",
          "type": "uint256"
        }
      ],
      "name": "cancel",
      "outputs": [],
      "stateMutability": "nonpayable",
      "type": "function"
    },
    {
      "inputs": [
        {
          "internalType": "uint256",
          "name": "proposalId",
          "type": "uint256"
        },
        {
          "internalType": "uint8",
          "name": "support",
          "type": "uint8"
        }
      ],
      "name": "castVote",
      "outputs": [
        {
          "internalType": "uint256",
          "name": "",
          "type": "uint256"
        }
      ],
      "stateMutability": "nonpayable",
      "type": "function"
    },
    {
      "inputs": [
        {
          "internalType": "uint256",
          "name": "proposalId",
          "type": "uint256"
        },
        {
          "internalType": "uint8",
          "name": "support",
          "type": "uint8"
        },
        {
          "internalType": "uint8",
          "name": "v",
          "type": "uint8"
        },
        {
          "internalType": "bytes32",
          "name": "r",
          "type": "bytes32"
        },
        {
          "internalType": "bytes32",
          "name": "s",
          "type": "bytes32"
        }
      ],
      "name": "castVoteBySig",
      "outputs": [
        {
          "internalType": "uint256",
          "name": "",
          "type": "uint256"
        }
      ],
      "stateMutability": "nonpayable",
      "type": "function"
    },
    {
      "inputs": [
        {
          "internalType": "uint256",
          "name": "proposalId",
          "type": "uint256"
        },
        {
          "internalType": "uint8",
          "name": "support",
          "type": "uint8"
        },
        {
          "internalType": "string",
          "name": "reason",
          "type": "string"
        }
      ],
      "name": "castVoteWithReason",
      "outputs": [
        {
          "internalType": "uint256",
          "name": "",
          "type": "uint256"
        }
      ],
      "stateMutability": "nonpayable",
      "type": "function"
    },
    {
      "inputs": [
        {
          "internalType": "uint256",
          "name": "proposalId",
          "type": "uint256"
        },
        {
          "internalType": "uint8",
          "name": "support",
          "type": "uint8"
        },
        {
          "internalType": "string",
          "name": "reason",
          "type": "string"
        },
        {
          "internalType": "bytes",
          "name": "params",
          "type": "bytes"
        }
      ],
      "name": "castVoteWithReasonAndParams",
      "outputs": [
        {
          "internalType": "uint256",
          "name": "",
          "type": "uint256"
        }
      ],
      "stateMutability": "nonpayable",
      "type": "function"
    },
    {
      "inputs": [
        {
          "internalType": "uint256",
          "name": "proposalId",
          "type": "uint256"
        },
        {
          "internalType": "uint8",
          "name": "support",
          "type": "uint8"
        },
        {
          "internalType": "string",
          "name": "reason",
          "type": "string"
        },
        {
          "internalType": "bytes",
          "name": "params",
          "type": "bytes"
        },
        {
          "internalType": "uint8",
          "name": "v",
          "type": "uint8"
        },
        {
          "internalType": "bytes32",
          "name": "r",
          "type": "bytes32"
        },
        {
          "internalType": "bytes32",
          "name": "s",
          "type": "bytes32"
        }
      ],
      "name": "castVoteWithReasonAndParamsBySig",
      "outputs": [
        {
          "internalType": "uint256",
          "name": "",
          "type": "uint256"
        }
      ],
      "stateMutability": "nonpayable",
      "type": "function"
    },
    {
      "inputs": [
        {
          "internalType": "address[]",
          "name": "targets",
          "type": "address[]"
        },
        {
          "internalType": "uint256[]",
          "name": "values",
          "type": "uint256[]"
        },
        {
          "internalType": "bytes[]",
          "name": "calldatas",
          "type": "bytes[]"
        },
        {
          "internalType": "bytes32",
          "name": "descriptionHash",
          "type": "bytes32"
        }
      ],
      "name": "execute",
      "outputs": [
        {
          "internalType": "uint256",
          "name": "",
          "type": "uint256"
        }
      ],
      "stateMutability": "payable",
      "type": "function",
      "payable": true
    },
    {
      "inputs": [
        {
          "internalType": "uint256",
          "name": "proposalId",
          "type": "uint256"
        }
      ],
      "name": "execute",
      "outputs": [],
      "stateMutability": "payable",
      "type": "function",
      "payable": true
    },
    {
      "inputs": [
        {
          "internalType": "uint256",
          "name": "proposalId",
          "type": "uint256"
        }
      ],
      "name": "getActions",
      "outputs": [
        {
          "internalType": "address[]",
          "name": "targets",
          "type": "address[]"
        },
        {
          "internalType": "uint256[]",
          "name": "values",
          "type": "uint256[]"
        },
        {
          "internalType": "string[]",
          "name": "signatures",
          "type": "string[]"
        },
        {
          "internalType": "bytes[]",
          "name": "calldatas",
          "type": "bytes[]"
        }
      ],
      "stateMutability": "view",
      "type": "function",
      "constant": true
    },
    {
      "inputs": [
        {
          "internalType": "uint256",
          "name": "proposalId",
          "type": "uint256"
        },
        {
          "internalType": "address",
          "name": "voter",
          "type": "address"
        }
      ],
      "name": "getReceipt",
      "outputs": [
        {
          "components": [
            {
              "internalType": "bool",
              "name": "hasVoted",
              "type": "bool"
            },
            {
              "internalType": "uint8",
              "name": "support",
              "type": "uint8"
            },
            {
              "internalType": "uint96",
              "name": "votes",
              "type": "uint96"
            }
          ],
          "internalType": "struct IGovernorCompatibilityBravoUpgradeable.Receipt",
          "name": "",
          "type": "tuple"
        }
      ],
      "stateMutability": "view",
      "type": "function",
      "constant": true
    },
    {
      "inputs": [
        {
          "internalType": "address",
          "name": "account",
          "type": "address"
        },
        {
          "internalType": "uint256",
          "name": "blockNumber",
          "type": "uint256"
        },
        {
          "internalType": "bytes",
          "name": "params",
          "type": "bytes"
        }
      ],
      "name": "getVotesWithParams",
      "outputs": [
        {
          "internalType": "uint256",
          "name": "",
          "type": "uint256"
        }
      ],
      "stateMutability": "view",
      "type": "function",
      "constant": true
    },
    {
      "inputs": [
        {
          "internalType": "uint256",
          "name": "proposalId",
          "type": "uint256"
        },
        {
          "internalType": "address",
          "name": "account",
          "type": "address"
        }
      ],
      "name": "hasVoted",
      "outputs": [
        {
          "internalType": "bool",
          "name": "",
          "type": "bool"
        }
      ],
      "stateMutability": "view",
      "type": "function",
      "constant": true
    },
    {
      "inputs": [
        {
          "internalType": "address[]",
          "name": "targets",
          "type": "address[]"
        },
        {
          "internalType": "uint256[]",
          "name": "values",
          "type": "uint256[]"
        },
        {
          "internalType": "bytes[]",
          "name": "calldatas",
          "type": "bytes[]"
        },
        {
          "internalType": "bytes32",
          "name": "descriptionHash",
          "type": "bytes32"
        }
      ],
      "name": "hashProposal",
      "outputs": [
        {
          "internalType": "uint256",
          "name": "",
          "type": "uint256"
        }
      ],
      "stateMutability": "pure",
      "type": "function",
      "constant": true
    },
    {
      "inputs": [],
      "name": "name",
      "outputs": [
        {
          "internalType": "string",
          "name": "",
          "type": "string"
        }
      ],
      "stateMutability": "view",
      "type": "function",
      "constant": true
    },
    {
      "inputs": [
        {
          "internalType": "address",
          "name": "",
          "type": "address"
        },
        {
          "internalType": "address",
          "name": "",
          "type": "address"
        },
        {
          "internalType": "uint256[]",
          "name": "",
          "type": "uint256[]"
        },
        {
          "internalType": "uint256[]",
          "name": "",
          "type": "uint256[]"
        },
        {
          "internalType": "bytes",
          "name": "",
          "type": "bytes"
        }
      ],
      "name": "onERC1155BatchReceived",
      "outputs": [
        {
          "internalType": "bytes4",
          "name": "",
          "type": "bytes4"
        }
      ],
      "stateMutability": "nonpayable",
      "type": "function"
    },
    {
      "inputs": [
        {
          "internalType": "address",
          "name": "",
          "type": "address"
        },
        {
          "internalType": "address",
          "name": "",
          "type": "address"
        },
        {
          "internalType": "uint256",
          "name": "",
          "type": "uint256"
        },
        {
          "internalType": "uint256",
          "name": "",
          "type": "uint256"
        },
        {
          "internalType": "bytes",
          "name": "",
          "type": "bytes"
        }
      ],
      "name": "onERC1155Received",
      "outputs": [
        {
          "internalType": "bytes4",
          "name": "",
          "type": "bytes4"
        }
      ],
      "stateMutability": "nonpayable",
      "type": "function"
    },
    {
      "inputs": [
        {
          "internalType": "address",
          "name": "",
          "type": "address"
        },
        {
          "internalType": "address",
          "name": "",
          "type": "address"
        },
        {
          "internalType": "uint256",
          "name": "",
          "type": "uint256"
        },
        {
          "internalType": "bytes",
          "name": "",
          "type": "bytes"
        }
      ],
      "name": "onERC721Received",
      "outputs": [
        {
          "internalType": "bytes4",
          "name": "",
          "type": "bytes4"
        }
      ],
      "stateMutability": "nonpayable",
      "type": "function"
    },
    {
      "inputs": [
        {
          "internalType": "uint256",
          "name": "proposalId",
          "type": "uint256"
        }
      ],
      "name": "proposalDeadline",
      "outputs": [
        {
          "internalType": "uint256",
          "name": "",
          "type": "uint256"
        }
      ],
      "stateMutability": "view",
      "type": "function",
      "constant": true
    },
    {
      "inputs": [
        {
          "internalType": "uint256",
          "name": "proposalId",
          "type": "uint256"
        }
      ],
      "name": "proposalEta",
      "outputs": [
        {
          "internalType": "uint256",
          "name": "",
          "type": "uint256"
        }
      ],
      "stateMutability": "view",
      "type": "function",
      "constant": true
    },
    {
      "inputs": [
        {
          "internalType": "uint256",
          "name": "proposalId",
          "type": "uint256"
        }
      ],
      "name": "proposalSnapshot",
      "outputs": [
        {
          "internalType": "uint256",
          "name": "",
          "type": "uint256"
        }
      ],
      "stateMutability": "view",
      "type": "function",
      "constant": true
    },
    {
      "inputs": [
        {
          "internalType": "uint256",
          "name": "proposalId",
          "type": "uint256"
        }
      ],
      "name": "proposals",
      "outputs": [
        {
          "internalType": "uint256",
          "name": "id",
          "type": "uint256"
        },
        {
          "internalType": "address",
          "name": "proposer",
          "type": "address"
        },
        {
          "internalType": "uint256",
          "name": "eta",
          "type": "uint256"
        },
        {
          "internalType": "uint256",
          "name": "startBlock",
          "type": "uint256"
        },
        {
          "internalType": "uint256",
          "name": "endBlock",
          "type": "uint256"
        },
        {
          "internalType": "uint256",
          "name": "forVotes",
          "type": "uint256"
        },
        {
          "internalType": "uint256",
          "name": "againstVotes",
          "type": "uint256"
        },
        {
          "internalType": "uint256",
          "name": "abstainVotes",
          "type": "uint256"
        },
        {
          "internalType": "bool",
          "name": "canceled",
          "type": "bool"
        },
        {
          "internalType": "bool",
          "name": "executed",
          "type": "bool"
        }
      ],
      "stateMutability": "view",
      "type": "function",
      "constant": true
    },
    {
      "inputs": [
        {
          "internalType": "address[]",
          "name": "targets",
          "type": "address[]"
        },
        {
          "internalType": "uint256[]",
          "name": "values",
          "type": "uint256[]"
        },
        {
          "internalType": "bytes[]",
          "name": "calldatas",
          "type": "bytes[]"
        },
        {
          "internalType": "bytes32",
          "name": "descriptionHash",
          "type": "bytes32"
        }
      ],
      "name": "queue",
      "outputs": [
        {
          "internalType": "uint256",
          "name": "",
          "type": "uint256"
        }
      ],
      "stateMutability": "nonpayable",
      "type": "function"
    },
    {
      "inputs": [
        {
          "internalType": "uint256",
          "name": "proposalId",
          "type": "uint256"
        }
      ],
      "name": "queue",
      "outputs": [],
      "stateMutability": "nonpayable",
      "type": "function"
    },
    {
      "inputs": [],
      "name": "quorumDenominator",
      "outputs": [
        {
          "internalType": "uint256",
          "name": "",
          "type": "uint256"
        }
      ],
      "stateMutability": "view",
      "type": "function",
      "constant": true
    },
    {
      "inputs": [
        {
          "internalType": "uint256",
          "name": "blockNumber",
          "type": "uint256"
        }
      ],
      "name": "quorumNumerator",
      "outputs": [
        {
          "internalType": "uint256",
          "name": "",
          "type": "uint256"
        }
      ],
      "stateMutability": "view",
      "type": "function",
      "constant": true
    },
    {
      "inputs": [],
      "name": "quorumNumerator",
      "outputs": [
        {
          "internalType": "uint256",
          "name": "",
          "type": "uint256"
        }
      ],
      "stateMutability": "view",
      "type": "function",
      "constant": true
    },
    {
      "inputs": [],
      "name": "quorumVotes",
      "outputs": [
        {
          "internalType": "uint256",
          "name": "",
          "type": "uint256"
        }
      ],
      "stateMutability": "view",
      "type": "function",
      "constant": true
    },
    {
      "inputs": [
        {
          "internalType": "address",
          "name": "target",
          "type": "address"
        },
        {
          "internalType": "uint256",
          "name": "value",
          "type": "uint256"
        },
        {
          "internalType": "bytes",
          "name": "data",
          "type": "bytes"
        }
      ],
      "name": "relay",
      "outputs": [],
      "stateMutability": "nonpayable",
      "type": "function"
    },
    {
      "inputs": [],
      "name": "timelock",
      "outputs": [
        {
          "internalType": "address",
          "name": "",
          "type": "address"
        }
      ],
      "stateMutability": "view",
      "type": "function",
      "constant": true
    },
    {
      "inputs": [],
      "name": "token",
      "outputs": [
        {
          "internalType": "contract IVotesUpgradeable",
          "name": "",
          "type": "address"
        }
      ],
      "stateMutability": "view",
      "type": "function",
      "constant": true
    },
    {
      "inputs": [
        {
          "internalType": "uint256",
          "name": "newQuorumNumerator",
          "type": "uint256"
        }
      ],
      "name": "updateQuorumNumerator",
      "outputs": [],
      "stateMutability": "nonpayable",
      "type": "function"
    },
    {
      "inputs": [
        {
          "internalType": "contract TimelockControllerUpgradeable",
          "name": "newTimelock",
          "type": "address"
        }
      ],
      "name": "updateTimelock",
      "outputs": [],
      "stateMutability": "nonpayable",
      "type": "function"
    },
    {
      "inputs": [],
      "name": "version",
      "outputs": [
        {
          "internalType": "string",
          "name": "",
          "type": "string"
        }
      ],
      "stateMutability": "view",
      "type": "function",
      "constant": true
    },
    {
      "stateMutability": "payable",
      "type": "receive",
      "payable": true
    },
    {
      "inputs": [
        {
          "internalType": "contract IVotesUpgradeable",
          "name": "tokenAddress",
          "type": "address"
        },
        {
          "internalType": "contract TimelockControllerUpgradeable",
          "name": "timelockAddress",
          "type": "address"
        }
      ],
      "name": "__RariGovernor_init",
      "outputs": [],
      "stateMutability": "nonpayable",
      "type": "function"
    },
    {
      "inputs": [],
      "name": "votingDelay",
      "outputs": [
        {
          "internalType": "uint256",
          "name": "",
          "type": "uint256"
        }
      ],
      "stateMutability": "view",
      "type": "function",
      "constant": true
    },
    {
      "inputs": [],
      "name": "votingPeriod",
      "outputs": [
        {
          "internalType": "uint256",
          "name": "",
          "type": "uint256"
        }
      ],
      "stateMutability": "pure",
      "type": "function",
      "constant": true
    },
    {
      "inputs": [],
      "name": "proposalThreshold",
      "outputs": [
        {
          "internalType": "uint256",
          "name": "",
          "type": "uint256"
        }
      ],
      "stateMutability": "pure",
      "type": "function",
      "constant": true
    },
    {
      "inputs": [
        {
          "internalType": "uint256",
          "name": "blockNumber",
          "type": "uint256"
        }
      ],
      "name": "quorum",
      "outputs": [
        {
          "internalType": "uint256",
          "name": "",
          "type": "uint256"
        }
      ],
      "stateMutability": "view",
      "type": "function",
      "constant": true
    },
    {
      "inputs": [
        {
          "internalType": "address",
          "name": "account",
          "type": "address"
        },
        {
          "internalType": "uint256",
          "name": "blockNumber",
          "type": "uint256"
        }
      ],
      "name": "getVotes",
      "outputs": [
        {
          "internalType": "uint256",
          "name": "",
          "type": "uint256"
        }
      ],
      "stateMutability": "view",
      "type": "function",
      "constant": true
    },
    {
      "inputs": [
        {
          "internalType": "uint256",
          "name": "proposalId",
          "type": "uint256"
        }
      ],
      "name": "state",
      "outputs": [
        {
          "internalType": "enum IGovernorUpgradeable.ProposalState",
          "name": "",
          "type": "uint8"
        }
      ],
      "stateMutability": "view",
      "type": "function",
      "constant": true
    },
    {
      "inputs": [
        {
          "internalType": "address[]",
          "name": "targets",
          "type": "address[]"
        },
        {
          "internalType": "uint256[]",
          "name": "values",
          "type": "uint256[]"
        },
        {
          "internalType": "bytes[]",
          "name": "calldatas",
          "type": "bytes[]"
        },
        {
          "internalType": "string",
          "name": "description",
          "type": "string"
        }
      ],
      "name": "propose",
      "outputs": [
        {
          "internalType": "uint256",
          "name": "",
          "type": "uint256"
        }
      ],
      "stateMutability": "nonpayable",
      "type": "function"
    },
    {
      "inputs": [
        {
          "internalType": "address[]",
          "name": "targets",
          "type": "address[]"
        },
        {
          "internalType": "uint256[]",
          "name": "values",
          "type": "uint256[]"
        },
        {
          "internalType": "string[]",
          "name": "signatures",
          "type": "string[]"
        },
        {
          "internalType": "bytes[]",
          "name": "calldatas",
          "type": "bytes[]"
        },
        {
          "internalType": "string",
          "name": "description",
          "type": "string"
        }
      ],
      "name": "propose",
      "outputs": [
        {
          "internalType": "uint256",
          "name": "",
          "type": "uint256"
        }
      ],
      "stateMutability": "nonpayable",
      "type": "function"
    },
    {
      "inputs": [
        {
          "internalType": "bytes4",
          "name": "interfaceId",
          "type": "bytes4"
        }
      ],
      "name": "supportsInterface",
      "outputs": [
        {
          "internalType": "bool",
          "name": "",
          "type": "bool"
        }
      ],
      "stateMutability": "view",
      "type": "function",
      "constant": true
    }
  ],
  "bytecode": "0x608060405234801561001057600080fd5b506152c6806100206000396000f3fe6080604052600436106102815760003560e01c80637d5e81e21161014f578063c59057e4116100c1578063e23a9a521161007a578063e23a9a52146108b1578063eb9019d41461097c578063f23a6e611461099c578063f8ce560a146109c8578063fc0c546a146109e8578063fe0d94c114610a0957600080fd5b8063c59057e4146107a4578063d33219b4146107c4578063da95691a146107f7578063dd4e2ba514610817578063ddf0b0091461085d578063deaaa7cc1461087d57600080fd5b8063a890c91011610113578063a890c910146106e4578063ab58fb8e14610704578063b58131b014610724578063bc197c8114610738578063c01f9e3714610764578063c28bc2fa1461078457600080fd5b80637d5e81e21461065b57806397c3d3341461067b5780639952d6b71461068f5780639a802a6d146106af578063a7713a70146106cf57600080fd5b80632fe3e261116101f357806343859632116101ac578063438596321461056657806354fd4d50146105b157806356781388146105db5780635f398a14146105fb57806360c4247f1461061b5780637b3c71d31461063b57600080fd5b80632fe3e26114610480578063328dd982146104b45780633932abb1146104e45780633bccf4fd146104f95780633e4f49e61461051957806340e58ee51461054657600080fd5b806306fdde031161024557806306fdde03146103b2578063150b7a02146103d4578063160cbed71461041857806324bc1a64146104385780632656227d1461044d5780632d63f6931461046057600080fd5b8063013cf08b146102a957806301ffc9a71461032457806302a251a314610354578063034201811461037257806306f3f9e61461039257600080fd5b366102a4573061028f610a1c565b6001600160a01b0316146102a257600080fd5b005b600080fd5b3480156102b557600080fd5b506102c96102c4366004614227565b610a36565b604080519a8b526001600160a01b0390991660208b0152978901969096526060880194909452608087019290925260a086015260c085015260e084015215156101008301521515610120820152610140015b60405180910390f35b34801561033057600080fd5b5061034461033f366004614240565b610ae0565b604051901515815260200161031b565b34801561036057600080fd5b5060325b60405190815260200161031b565b34801561037e57600080fd5b5061036461038d366004614376565b610af1565b34801561039e57600080fd5b506102a26103ad366004614227565b610be9565b3480156103be57600080fd5b506103c7610c7d565b60405161031b9190614478565b3480156103e057600080fd5b506103ff6103ef3660046144a0565b630a85bd0160e11b949350505050565b6040516001600160e01b0319909116815260200161031b565b34801561042457600080fd5b5061036461043336600461467c565b610d10565b34801561044457600080fd5b50610364610f15565b61036461045b36600461467c565b610f25565b34801561046c57600080fd5b5061036461047b366004614227565b611018565b34801561048c57600080fd5b506103647fb3b3f3b703cd84ce352197dcff232b1b5d3cfb2025ce47cf04742d0651f1af8881565b3480156104c057600080fd5b506104d46104cf366004614227565b611050565b60405161031b94939291906147d1565b3480156104f057600080fd5b506103646112e2565b34801561050557600080fd5b5061036461051436600461481e565b61141c565b34801561052557600080fd5b50610539610534366004614227565b611492565b60405161031b9190614882565b34801561055257600080fd5b506102a2610561366004614227565b61149d565b34801561057257600080fd5b506103446105813660046148aa565b6000828152610161602090815260408083206001600160a01b038516845260080190915290205460ff1692915050565b3480156105bd57600080fd5b506040805180820190915260018152603160f81b60208201526103c7565b3480156105e757600080fd5b506103646105f63660046148da565b6117b0565b34801561060757600080fd5b50610364610616366004614906565b6117d9565b34801561062757600080fd5b50610364610636366004614227565b611823565b34801561064757600080fd5b50610364610656366004614989565b6118bf565b34801561066757600080fd5b506103646106763660046149e2565b611911565b34801561068757600080fd5b506064610364565b34801561069b57600080fd5b506102a26106aa366004614a82565b611928565b3480156106bb57600080fd5b506103646106ca366004614ab0565b611a83565b3480156106db57600080fd5b50610364611a9a565b3480156106f057600080fd5b506102a26106ff366004614b08565b611ab9565b34801561071057600080fd5b5061036461071f366004614227565b611b41565b34801561073057600080fd5b506000610364565b34801561074457600080fd5b506103ff610753366004614b25565b63bc197c8160e01b95945050505050565b34801561077057600080fd5b5061036461077f366004614227565b611bdd565b34801561079057600080fd5b506102a261079f366004614bb8565b611c0d565b3480156107b057600080fd5b506103646107bf36600461467c565b611cd5565b3480156107d057600080fd5b506101f8546001600160a01b03165b6040516001600160a01b03909116815260200161031b565b34801561080357600080fd5b50610364610812366004614c7a565b611d0f565b34801561082357600080fd5b5060408051808201909152601a81527f737570706f72743d627261766f2671756f72756d3d627261766f00000000000060208201526103c7565b34801561086957600080fd5b506102a2610878366004614227565b611d34565b34801561088957600080fd5b506103647f150214d74d59b7d1e90c73fc22ef3d991dd0a76b046543d4d80ab92d2a50328f81565b3480156108bd57600080fd5b5061094c6108cc3660046148aa565b6040805160608101825260008082526020820181905291810191909152506000918252610161602090815260408084206001600160a01b0393909316845260089092018152918190208151606081018352905460ff8082161515835261010082041693820193909352620100009092046001600160601b03169082015290565b6040805182511515815260208084015160ff1690820152918101516001600160601b03169082015260600161031b565b34801561098857600080fd5b50610364610997366004614d1b565b611fa3565b3480156109a857600080fd5b506103ff6109b7366004614d47565b63f23a6e6160e01b95945050505050565b3480156109d457600080fd5b506103646109e3366004614227565b611faf565b3480156109f457600080fd5b50610193546107df906001600160a01b031681565b6102a2610a17366004614227565b611fba565b6000610a316101f8546001600160a01b031690565b905090565b8060008080808080808080610a4a8a611b41565b9750610a558b611018565b9650610a608b611bdd565b60008c81526101616020526040812080546005820154600683015460078401546001600160a01b039093169e50949a509850929650919450610aa18d611492565b90506002816007811115610ab757610ab761486c565b1493506007816007811115610ace57610ace61486c565b14925050509193959799509193959799565b6000610aeb82612229565b92915050565b600080610b95610b8d7fb3b3f3b703cd84ce352197dcff232b1b5d3cfb2025ce47cf04742d0651f1af888c8c8c8c604051610b2d929190614daf565b60405180910390208b80519060200120604051602001610b72959493929190948552602085019390935260ff9190911660408401526060830152608082015260a00190565b6040516020818303038152906040528051906020012061224e565b86868661229c565b9050610bdb8a828b8b8b8080601f0160208091040260200160405190810160405280939291908181526020018383808284376000920191909152508d92506122ba915050565b9a9950505050505050505050565b610bf1610a1c565b6001600160a01b0316336001600160a01b031614610c2a5760405162461bcd60e51b8152600401610c2190614dbf565b60405180910390fd5b30610c33610a1c565b6001600160a01b031614610c715760008036604051610c53929190614daf565b604051809103902090505b80610c6a61013161241f565b03610c5e57505b610c7a8161249e565b50565b606061012f8054610c8d90614df6565b80601f0160208091040260200160405190810160405280929190818152602001828054610cb990614df6565b8015610d065780601f10610cdb57610100808354040283529160200191610d06565b820191906000526020600020905b815481529060010190602001808311610ce957829003601f168201915b5050505050905090565b600080610d1f86868686611cd5565b90506004610d2c82611492565b6007811115610d3d57610d3d61486c565b14610d5a5760405162461bcd60e51b8152600401610c2190614e30565b6101f8546040805163793d064960e11b815290516000926001600160a01b03169163f27a0c929160048083019260209291908290030181865afa158015610da5573d6000803e3d6000fd5b505050506040513d601f19601f82011682018060405250810190610dc99190614e71565b6101f85460405163b1c5f42760e01b81529192506001600160a01b03169063b1c5f42790610e04908a908a908a906000908b90600401614e8a565b602060405180830381865afa158015610e21573d6000803e3d6000fd5b505050506040513d601f19601f82011682018060405250810190610e459190614e71565b60008381526101f96020526040808220929092556101f85491516308f2a0bb60e41b81526001600160a01b0390921691638f2a0bb091610e92918b918b918b91908b908990600401614ed8565b600060405180830381600087803b158015610eac57600080fd5b505af1158015610ec0573d6000803e3d6000fd5b505050507f9a2e42fd6722813d69113e7d0079d3d940171428df7373df9c7f7617cfda2892828242610ef29190614f46565b604080519283526020830191909152015b60405180910390a15095945050505050565b6000610a316109e3600143614f5e565b600080610f3486868686611cd5565b90506000610f4182611492565b90506004816007811115610f5757610f5761486c565b1480610f7457506005816007811115610f7257610f7261486c565b145b610f905760405162461bcd60e51b8152600401610c2190614e30565b6000828152610130602052604090819020600201805460ff19166001179055517f712ae1383f79ac853f8d882153778e0260ef8f03b504e2866e0593e04d2b291f90610fdf9084815260200190565b60405180910390a1610ff482888888886125ee565b6110018288888888612690565b61100e828888888861269d565b5095945050505050565b6000818152610130602090815260408083208151928301909152546001600160401b0316908190525b6001600160401b031692915050565b60608060608060006101616000878152602001908152602001600020905080600101816002018260030183600401838054806020026020016040519081016040528092919081815260200182805480156110d357602002820191906000526020600020905b81546001600160a01b031681526001909101906020018083116110b5575b505050505093508280548060200260200160405190810160405280929190818152602001828054801561112557602002820191906000526020600020905b815481526020019060010190808311611111575b5050505050925081805480602002602001604051908101604052809291908181526020016000905b828210156111f957838290600052602060002001805461116c90614df6565b80601f016020809104026020016040519081016040528092919081815260200182805461119890614df6565b80156111e55780601f106111ba576101008083540402835291602001916111e5565b820191906000526020600020905b8154815290600101906020018083116111c857829003601f168201915b50505050508152602001906001019061114d565b50505050915080805480602002602001604051908101604052809291908181526020016000905b828210156112cc57838290600052602060002001805461123f90614df6565b80601f016020809104026020016040519081016040528092919081815260200182805461126b90614df6565b80156112b85780601f1061128d576101008083540402835291602001916112b8565b820191906000526020600020905b81548152906001019060200180831161129b57829003601f168201915b505050505081526020019060010190611220565b5050505090509450945094509450509193509193565b60008061019360009054906101000a90046001600160a01b03166001600160a01b031663f4359ce56040518163ffffffff1660e01b8152600401602060405180830381865afa158015611339573d6000803e3d6000fd5b505050506040513d601f19601f8201168201806040525081019061135d9190614e71565b9050600061019360009054906101000a90046001600160a01b03166001600160a01b031663ac7ae5896040518163ffffffff1660e01b8152600401602060405180830381865afa1580156113b5573d6000803e3d6000fd5b505050506040513d601f19601f820116820180604052508101906113d99190614e71565b90506000816113e88442614f75565b6113f29190614f5e565b905060016114008482614f46565b61140a9083614f97565b6114149190614f5e565b935050505090565b604080517f150214d74d59b7d1e90c73fc22ef3d991dd0a76b046543d4d80ab92d2a50328f602082015290810186905260ff85166060820152600090819061146a90610b8d90608001610b72565b9050611487878288604051806020016040528060008152506126d8565b979650505050505050565b6000610aeb826126fb565b60008181526101616020526040902080546001600160a01b0316336001600160a01b031614806114e65750600081546114e4906001600160a01b0316610997600143614f5e565b105b6115425760405162461bcd60e51b815260206004820152602760248201527f476f7665726e6f72427261766f3a2070726f706f7365722061626f76652074686044820152661c995cda1bdb1960ca1b6064820152608401610c21565b6117ab8160010180548060200260200160405190810160405280929190818152602001828054801561159d57602002820191906000526020600020905b81546001600160a01b0316815260019091019060200180831161157f575b5050505050826002018054806020026020016040519081016040528092919081815260200182805480156115f057602002820191906000526020600020905b8154815260200190600101908083116115dc575b50505050506117a184600301805480602002602001604051908101604052809291908181526020016000905b828210156116c857838290600052602060002001805461163b90614df6565b80601f016020809104026020016040519081016040528092919081815260200182805461166790614df6565b80156116b45780601f10611689576101008083540402835291602001916116b4565b820191906000526020600020905b81548152906001019060200180831161169757829003601f168201915b50505050508152602001906001019061161c565b50505060048701805460408051602080840282018101909252828152935060009084015b8282101561179857838290600052602060002001805461170b90614df6565b80601f016020809104026020016040519081016040528092919081815260200182805461173790614df6565b80156117845780601f1061175957610100808354040283529160200191611784565b820191906000526020600020905b81548152906001019060200180831161176757829003601f168201915b5050505050815260200190600101906116ec565b50505050612848565b846009015461297a565b505050565b6000803390506117d1848285604051806020016040528060008152506126d8565b949350505050565b60008033905061148787828888888080601f0160208091040260200160405190810160405280939291908181526020018383808284376000920191909152508a92506122ba915050565b6101c75460009080820361183c5750506101c654919050565b60006101c761184c600184614f5e565b8154811061185c5761185c614fb6565b60009182526020918290206040805180820190915291015463ffffffff81168083526401000000009091046001600160e01b031692820192909252915084106118b357602001516001600160e01b03169392505050565b6117d16101c785612988565b60008033905061190786828787878080601f0160208091040260200160405190810160405280939291908181526020018383808284376000920191909152506126d892505050565b9695505050505050565b600061191f85858585612a97565b95945050505050565b600054610100900460ff16158080156119485750600054600160ff909116105b806119625750303b158015611962575060005460ff166001145b6119c55760405162461bcd60e51b815260206004820152602e60248201527f496e697469616c697a61626c653a20636f6e747261637420697320616c72656160448201526d191e481a5b9a5d1a585b1a5e995960921b6064820152608401610c21565b6000805460ff1916600117905580156119e8576000805461ff0019166101001790555b611a156040518060400160405280600c81526020016b2930b934a3b7bb32b93737b960a11b815250612aff565b611a1d612b56565b611a2683612b7f565b611a306004612baf565b611a3982612bdf565b80156117ab576000805461ff0019169055604051600181527f7f26b83ff96e1f2b6a682f133852f6798a09c465da95921460cefb38474024989060200160405180910390a1505050565b6000611a90848484612c0f565b90505b9392505050565b6101c75460009015611ab157610a316101c7612c86565b506101c65490565b611ac1610a1c565b6001600160a01b0316336001600160a01b031614611af15760405162461bcd60e51b8152600401610c2190614dbf565b30611afa610a1c565b6001600160a01b031614611b385760008036604051611b1a929190614daf565b604051809103902090505b80611b3161013161241f565b03611b2557505b610c7a81612ce2565b6101f85460008281526101f9602052604080822054905163d45c443560e01b81526004810191909152909182916001600160a01b039091169063d45c443590602401602060405180830381865afa158015611ba0573d6000803e3d6000fd5b505050506040513d601f19601f82011682018060405250810190611bc49190614e71565b905080600114611bd45780611a93565b60009392505050565b6000818152610130602090815260408083208151928301909152600101546001600160401b031690819052611041565b611c15610a1c565b6001600160a01b0316336001600160a01b031614611c455760405162461bcd60e51b8152600401610c2190614dbf565b30611c4e610a1c565b6001600160a01b031614611c8c5760008036604051611c6e929190614daf565b604051809103902090505b80611c8561013161241f565b03611c7957505b611cce8483838080601f016020809104026020016040519081016040528093929190818152602001838380828437600092019190915250889250612d4d915050565b5050505050565b600084848484604051602001611cee9493929190614fcc565b60408051601f19818403018152919052805160209091012095945050505050565b6000611d1f338787878787612d73565b6119078686611d2e8787612848565b85611911565b6000818152610161602090815260409182902060018101805484518185028101850190955280855291936117ab93909290830182828015611d9e57602002820191906000526020600020905b81546001600160a01b03168152600190910190602001808311611d80575b505050505082600201805480602002602001604051908101604052809291908181526020018280548015611df157602002820191906000526020600020905b815481526020019060010190808311611ddd575b5050505050611f9984600301805480602002602001604051908101604052809291908181526020016000905b82821015611ec9578382906000526020600020018054611e3c90614df6565b80601f0160208091040260200160405190810160405280929190818152602001828054611e6890614df6565b8015611eb55780601f10611e8a57610100808354040283529160200191611eb5565b820191906000526020600020905b815481529060010190602001808311611e9857829003601f168201915b505050505081526020019060010190611e1d565b50505060048701805460408051602080840282018101909252828152935060009084015b82821015611798578382906000526020600020018054611f0c90614df6565b80601f0160208091040260200160405190810160405280929190818152602001828054611f3890614df6565b8015611f855780601f10611f5a57610100808354040283529160200191611f85565b820191906000526020600020905b815481529060010190602001808311611f6857829003601f168201915b505050505081526020019060010190611eed565b8460090154610d10565b6000611a938383612e31565b6000610aeb82612e52565b6000818152610161602090815260409182902060018101805484518185028101850190955280855291936117ab9390929083018282801561202457602002820191906000526020600020905b81546001600160a01b03168152600190910190602001808311612006575b50505050508260020180548060200260200160405190810160405280929190818152602001828054801561207757602002820191906000526020600020905b815481526020019060010190808311612063575b505050505061221f84600301805480602002602001604051908101604052809291908181526020016000905b8282101561214f5783829060005260206000200180546120c290614df6565b80601f01602080910402602001604051908101604052809291908181526020018280546120ee90614df6565b801561213b5780601f106121105761010080835404028352916020019161213b565b820191906000526020600020905b81548152906001019060200180831161211e57829003601f168201915b5050505050815260200190600101906120a3565b50505060048701805460408051602080840282018101909252828152935060009084015b8282101561179857838290600052602060002001805461219290614df6565b80601f01602080910402602001604051908101604052809291908181526020018280546121be90614df6565b801561220b5780601f106121e05761010080835404028352916020019161220b565b820191906000526020600020905b8154815290600101906020018083116121ee57829003601f168201915b505050505081526020019060010190612173565b8460090154610f25565b60006001600160e01b03198216636e665ced60e01b1480610aeb5750610aeb82612ee1565b6000610aeb61225b612f4c565b8360405161190160f01b6020820152602281018390526042810182905260009060620160405160208183030381529060405280519060200120905092915050565b60008060006122ad87878787612fc7565b9150915061100e816130b4565b60008581526101306020526040812060016122d488611492565b60078111156122e5576122e561486c565b1461233e5760405162461bcd60e51b815260206004820152602360248201527f476f7665726e6f723a20766f7465206e6f742063757272656e746c792061637460448201526269766560e81b6064820152608401610c21565b604080516020810190915281546001600160401b03169081905260009061236790889086612c0f565b9050612376888888848861326a565b83516000036123cb57866001600160a01b03167fb8e138887d0aa13bab447e82de9d5c1777041ecd21ca36ba824ff1e6c07ddda4898884896040516123be9493929190615017565b60405180910390a2611487565b866001600160a01b03167fe2babfbac5889a709b63bb7f598b324e08bc5a4fb9ec647fb3cbc9ec07eb8712898884898960405161240c95949392919061503f565b60405180910390a2979650505050505050565b600061243a8254600f81810b600160801b909204900b131590565b1561245857604051631ed9509560e11b815260040160405180910390fd5b508054600f0b6000818152600180840160205260408220805492905583546fffffffffffffffffffffffffffffffff191692016001600160801b03169190911790915590565b60648111156125215760405162461bcd60e51b815260206004820152604360248201527f476f7665726e6f72566f74657351756f72756d4672616374696f6e3a2071756f60448201527f72756d4e756d657261746f72206f7665722071756f72756d44656e6f6d696e616064820152623a37b960e91b608482015260a401610c21565b600061252b611a9a565b9050801580159061253d57506101c754155b156125a35760408051808201909152600081526101c7906020810161256184613411565b6001600160e01b0390811690915282546001810184556000938452602093849020835194909301519091166401000000000263ffffffff909316929092179101555b6125af6101c78361347e565b505060408051828152602081018490527f0553476bf02ef2726e8ce5ced78d63e26e602e4a2257b1f559418e24b4633997910160405180910390a15050565b306125f7610a1c565b6001600160a01b031614611cce5760005b845181101561268857306001600160a01b031685828151811061262d5761262d614fb6565b60200260200101516001600160a01b0316036126785761267883828151811061265857612658614fb6565b6020026020010151805190602001206101316135a990919063ffffffff16565b61268181615085565b9050612608565b505050505050565b611cce85858585856135e5565b306126a6610a1c565b6001600160a01b031614611cce5761013154600f81810b600160801b909204900b1315611cce57600061013155611cce565b600061191f858585856126f660408051602081019091526000815290565b6122ba565b6000806127078361365a565b9050600481600781111561271d5761271d61486c565b146127285792915050565b60008381526101f9602052604090205480612744575092915050565b6101f854604051632ab0f52960e01b8152600481018390526001600160a01b0390911690632ab0f52990602401602060405180830381865afa15801561278e573d6000803e3d6000fd5b505050506040513d601f19601f820116820180604052508101906127b2919061509e565b156127c1575060079392505050565b6101f854604051632c258a9f60e11b8152600481018390526001600160a01b039091169063584b153e90602401602060405180830381865afa15801561280b573d6000803e3d6000fd5b505050506040513d601f19601f8201168201806040525081019061282f919061509e565b1561283e575060059392505050565b5060029392505050565b6060600082516001600160401b03811115612865576128656142c1565b60405190808252806020026020018201604052801561289857816020015b60608152602001906001900390816128835790505b50905060005b8451811015612972578481815181106128b9576128b9614fb6565b602002602001015151600014612929578481815181106128db576128db614fb6565b6020026020010151805190602001208482815181106128fc576128fc614fb6565b60200260200101516040516020016129159291906150c0565b604051602081830303815290604052612944565b83818151811061293b5761293b614fb6565b60200260200101515b82828151811061295657612956614fb6565b60200260200101819052508061296b90615085565b905061289e565b509392505050565b600061191f8585858561376e565b60004382106129d95760405162461bcd60e51b815260206004820181905260248201527f436865636b706f696e74733a20626c6f636b206e6f7420796574206d696e65646044820152606401610c21565b825460005b81811015612a3e5760006129f28284613824565b905084866000018281548110612a0a57612a0a614fb6565b60009182526020909120015463ffffffff161115612a2a57809250612a38565b612a35816001614f46565b91505b506129de565b8115612a825784612a50600184614f5e565b81548110612a6057612a60614fb6565b60009182526020909120015464010000000090046001600160e01b0316612a85565b60005b6001600160e01b031695945050505050565b6000612af333868686516001600160401b03811115612ab857612ab86142c1565b604051908082528060200260200182016040528015612aeb57816020015b6060815260200190600190039081612ad65790505b508787612d73565b61191f8585858561383f565b600054610100900460ff16612b265760405162461bcd60e51b8152600401610c21906150f1565b612b4d81612b486040805180820190915260018152603160f81b602082015290565b613afb565b610c7a81613b3c565b600054610100900460ff16612b7d5760405162461bcd60e51b8152600401610c21906150f1565b565b600054610100900460ff16612ba65760405162461bcd60e51b8152600401610c21906150f1565b610c7a81613b7b565b600054610100900460ff16612bd65760405162461bcd60e51b8152600401610c21906150f1565b610c7a81613bc5565b600054610100900460ff16612c065760405162461bcd60e51b8152600401610c21906150f1565b610c7a81613bec565b61019354604051630748d63560e31b81526001600160a01b038581166004830152602482018590526000921690633a46b1a890604401602060405180830381865afa158015612c62573d6000803e3d6000fd5b505050506040513d601f19601f82011682018060405250810190611a909190614e71565b80546000908015612ccf5782612c9d600183614f5e565b81548110612cad57612cad614fb6565b60009182526020909120015464010000000090046001600160e01b0316612cd2565b60005b6001600160e01b03169392505050565b6101f854604080516001600160a01b03928316815291831660208301527f08f74ea46ef7894f65eabfb5e6e695de773a000b47c529ab559178069b226401910160405180910390a16101f880546001600160a01b0319166001600160a01b0392909216919091179055565b6060611a9084848460405180606001604052806029815260200161526860299139613c13565b805160208201206000612d918787612d8b8888612848565b85611cd5565b600081815261016160205260409020600981015491925090612e265780546001600160a01b0319166001600160a01b038a161781558751612ddb90600183019060208b0190613fdd565b508651612df190600283019060208a019061403e565b508551612e079060038301906020890190614079565b508451612e1d90600483019060208801906140d2565b50600981018390555b505050505050505050565b6000611a938383612e4d60408051602081019091526000815290565b612c0f565b60006064612e5f83611823565b61019354604051632394e7a360e21b8152600481018690526001600160a01b0390911690638e539e8c90602401602060405180830381865afa158015612ea9573d6000803e3d6000fd5b505050506040513d601f19601f82011682018060405250810190612ecd9190614e71565b612ed79190614f97565b610aeb9190614f75565b60006001600160e01b0319821663bf26d89760e01b1480612f1257506001600160e01b031982166379dd796f60e01b145b80612f2d57506001600160e01b03198216630271189760e51b145b80610aeb57506301ffc9a760e01b6001600160e01b0319831614610aeb565b6000610a317f8b73c3c69bb8fe3d512ecc4cf759cc79239f7b179b0ffacaa9a75d522b39400f612f7b60655490565b6066546040805160208101859052908101839052606081018290524660808201523060a082015260009060c0016040516020818303038152906040528051906020012090509392505050565b6000807f7fffffffffffffffffffffffffffffff5d576e7357a4501ddfe92f46681b20a0831115612ffe57506000905060036130ab565b8460ff16601b1415801561301657508460ff16601c14155b1561302757506000905060046130ab565b6040805160008082526020820180845289905260ff881692820192909252606081018690526080810185905260019060a0016020604051602081039080840390855afa15801561307b573d6000803e3d6000fd5b5050604051601f1901519150506001600160a01b0381166130a4576000600192509250506130ab565b9150600090505b94509492505050565b60008160048111156130c8576130c861486c565b036130d05750565b60018160048111156130e4576130e461486c565b036131315760405162461bcd60e51b815260206004820152601860248201527f45434453413a20696e76616c6964207369676e617475726500000000000000006044820152606401610c21565b60028160048111156131455761314561486c565b036131925760405162461bcd60e51b815260206004820152601f60248201527f45434453413a20696e76616c6964207369676e6174757265206c656e677468006044820152606401610c21565b60038160048111156131a6576131a661486c565b036131fe5760405162461bcd60e51b815260206004820152602260248201527f45434453413a20696e76616c6964207369676e6174757265202773272076616c604482015261756560f01b6064820152608401610c21565b60048160048111156132125761321261486c565b03610c7a5760405162461bcd60e51b815260206004820152602260248201527f45434453413a20696e76616c6964207369676e6174757265202776272076616c604482015261756560f01b6064820152608401610c21565b6000858152610161602090815260408083206001600160a01b038816845260088101909252909120805460ff16156132fa5760405162461bcd60e51b815260206004820152602d60248201527f476f7665726e6f72436f6d7061746962696c697479427261766f3a20766f746560448201526c08185b1c9958591e4818d85cdd609a1b6064820152608401610c21565b805460ff86166101000261ffff1990911617600117815561331a84613d39565b81546001600160601b039190911662010000026dffffffffffffffffffffffff00001990911617815560ff851661336a578382600601600082825461335f9190614f46565b909155506134089050565b60001960ff86160161338a578382600501600082825461335f9190614f46565b60011960ff8616016133aa578382600701600082825461335f9190614f46565b60405162461bcd60e51b815260206004820152602d60248201527f476f7665726e6f72436f6d7061746962696c697479427261766f3a20696e766160448201526c6c696420766f7465207479706560981b6064820152608401610c21565b50505050505050565b60006001600160e01b0382111561347a5760405162461bcd60e51b815260206004820152602760248201527f53616665436173743a2076616c756520646f65736e27742066697420696e20326044820152663234206269747360c81b6064820152608401610c21565b5090565b815460009081908161348f86612c86565b90506000821180156134cd575043866134a9600185614f5e565b815481106134b9576134b9614fb6565b60009182526020909120015463ffffffff16145b1561352d576134db85613411565b866134e7600185614f5e565b815481106134f7576134f7614fb6565b9060005260206000200160000160046101000a8154816001600160e01b0302191690836001600160e01b0316021790555061359b565b85600001604051806040016040528061354543613da1565b63ffffffff16815260200161355988613411565b6001600160e01b0390811690915282546001810184556000938452602093849020835194909301519091166401000000000263ffffffff909316929092179101555b9250839150505b9250929050565b8154600160801b90819004600f0b6000818152600180860160205260409091209390935583546001600160801b03908116939091011602179055565b6101f85460405163e38335e560e01b81526001600160a01b039091169063e38335e5903490613621908890889088906000908990600401614e8a565b6000604051808303818588803b15801561363a57600080fd5b505af115801561364e573d6000803e3d6000fd5b50505050505050505050565b600081815261013060205260408120600281015460ff161561367f5750600792915050565b6002810154610100900460ff161561369a5750600292915050565b60006136a584611018565b9050806000036136f75760405162461bcd60e51b815260206004820152601d60248201527f476f7665726e6f723a20756e6b6e6f776e2070726f706f73616c2069640000006044820152606401610c21565b438110613708575060009392505050565b600061371385611bdd565b905043811061372757506001949350505050565b61373085613e06565b801561375357506000858152610161602052604090206006810154600590910154115b1561376357506004949350505050565b506003949350505050565b60008061377d86868686613e2f565b60008181526101f960205260409020549091501561191f576101f85460008281526101f960205260409081902054905163c4d252f560e01b81526001600160a01b039092169163c4d252f5916137d99160040190815260200190565b600060405180830381600087803b1580156137f357600080fd5b505af1158015613807573d6000803e3d6000fd5b50505060008281526101f960205260408120555095945050505050565b60006138336002848418614f75565b611a9390848416614f46565b60008061385133610997600143614f5e565b10156138b95760405162461bcd60e51b815260206004820152603160248201527f476f7665726e6f723a2070726f706f73657220766f7465732062656c6f7720706044820152701c9bdc1bdcd85b081d1a1c995cda1bdb19607a1b6064820152608401610c21565b60006138ce8686868680519060200120611cd5565b905084518651146138f15760405162461bcd60e51b8152600401610c219061513c565b83518651146139125760405162461bcd60e51b8152600401610c219061513c565b60008651116139635760405162461bcd60e51b815260206004820152601860248201527f476f7665726e6f723a20656d7074792070726f706f73616c00000000000000006044820152606401610c21565b60008181526101306020908152604091829020825191820190925281546001600160401b031690819052156139e45760405162461bcd60e51b815260206004820152602160248201527f476f7665726e6f723a2070726f706f73616c20616c72656164792065786973746044820152607360f81b6064820152608401610c21565b60006139f66139f16112e2565b613f3c565b6139ff43613f3c565b613a09919061517d565b90506000613a176032613f3c565b613a21908361517d565b835467ffffffffffffffff19166001600160401b038416178455905060018301805467ffffffffffffffff19166001600160401b0383161790557f7d84a6263ae0d98d3329bd7b46bb4e8d6f98cd35a7adb45c274c8b7fd5ebd5e084338b8b8d516001600160401b03811115613a9957613a996142c1565b604051908082528060200260200182016040528015613acc57816020015b6060815260200190600190039081613ab75790505b508c88888e604051613ae6999897969594939291906151a8565b60405180910390a15091979650505050505050565b600054610100900460ff16613b225760405162461bcd60e51b8152600401610c21906150f1565b815160209283012081519190920120606591909155606655565b600054610100900460ff16613b635760405162461bcd60e51b8152600401610c21906150f1565b8051613b779061012f90602084019061412b565b5050565b600054610100900460ff16613ba25760405162461bcd60e51b8152600401610c21906150f1565b61019380546001600160a01b0319166001600160a01b0392909216919091179055565b600054610100900460ff16610c715760405162461bcd60e51b8152600401610c21906150f1565b600054610100900460ff16611b385760405162461bcd60e51b8152600401610c21906150f1565b606082471015613c745760405162461bcd60e51b815260206004820152602660248201527f416464726573733a20696e73756666696369656e742062616c616e636520666f6044820152651c8818d85b1b60d21b6064820152608401610c21565b6001600160a01b0385163b613ccb5760405162461bcd60e51b815260206004820152601d60248201527f416464726573733a2063616c6c20746f206e6f6e2d636f6e74726163740000006044820152606401610c21565b600080866001600160a01b03168587604051613ce7919061524b565b60006040518083038185875af1925050503d8060008114613d24576040519150601f19603f3d011682016040523d82523d6000602084013e613d29565b606091505b5091509150611487828286613fa4565b60006001600160601b0382111561347a5760405162461bcd60e51b815260206004820152602660248201527f53616665436173743a2076616c756520646f65736e27742066697420696e203960448201526536206269747360d01b6064820152608401610c21565b600063ffffffff82111561347a5760405162461bcd60e51b815260206004820152602660248201527f53616665436173743a2076616c756520646f65736e27742066697420696e203360448201526532206269747360d01b6064820152608401610c21565b6000818152610161602052604081206005810154613e266109e385611018565b11159392505050565b600080613e3e86868686611cd5565b90506000613e4b82611492565b90506002816007811115613e6157613e6161486c565b14158015613e8157506006816007811115613e7e57613e7e61486c565b14155b8015613e9f57506007816007811115613e9c57613e9c61486c565b14155b613eeb5760405162461bcd60e51b815260206004820152601d60248201527f476f7665726e6f723a2070726f706f73616c206e6f74206163746976650000006044820152606401610c21565b6000828152610130602052604090819020600201805461ff001916610100179055517f789cf55be980739dad1d0699b93b58e806b51c9d96619bfa8fe0a28abaa7b30c90610f039084815260200190565b60006001600160401b0382111561347a5760405162461bcd60e51b815260206004820152602660248201527f53616665436173743a2076616c756520646f65736e27742066697420696e203660448201526534206269747360d01b6064820152608401610c21565b60608315613fb3575081611a93565b825115613fc35782518084602001fd5b8160405162461bcd60e51b8152600401610c219190614478565b828054828255906000526020600020908101928215614032579160200282015b8281111561403257825182546001600160a01b0319166001600160a01b03909116178255602090920191600190910190613ffd565b5061347a92915061419e565b828054828255906000526020600020908101928215614032579160200282015b8281111561403257825182559160200191906001019061405e565b8280548282559060005260206000209081019282156140c6579160200282015b828111156140c657825180516140b691849160209091019061412b565b5091602001919060010190614099565b5061347a9291506141b3565b82805482825590600052602060002090810192821561411f579160200282015b8281111561411f578251805161410f91849160209091019061412b565b50916020019190600101906140f2565b5061347a9291506141d0565b82805461413790614df6565b90600052602060002090601f0160209004810192826141595760008555614032565b82601f1061417257805160ff1916838001178555614032565b82800160010185558215614032579182018281111561403257825182559160200191906001019061405e565b5b8082111561347a576000815560010161419f565b8082111561347a5760006141c782826141ed565b506001016141b3565b8082111561347a5760006141e482826141ed565b506001016141d0565b5080546141f990614df6565b6000825580601f10614209575050565b601f016020900490600052602060002090810190610c7a919061419e565b60006020828403121561423957600080fd5b5035919050565b60006020828403121561425257600080fd5b81356001600160e01b031981168114611a9357600080fd5b803560ff8116811461427b57600080fd5b919050565b60008083601f84011261429257600080fd5b5081356001600160401b038111156142a957600080fd5b6020830191508360208285010111156135a257600080fd5b634e487b7160e01b600052604160045260246000fd5b604051601f8201601f191681016001600160401b03811182821017156142ff576142ff6142c1565b604052919050565b600082601f83011261431857600080fd5b81356001600160401b03811115614331576143316142c1565b614344601f8201601f19166020016142d7565b81815284602083860101111561435957600080fd5b816020850160208301376000918101602001919091529392505050565b60008060008060008060008060e0898b03121561439257600080fd5b883597506143a260208a0161426a565b965060408901356001600160401b03808211156143be57600080fd5b6143ca8c838d01614280565b909850965060608b01359150808211156143e357600080fd5b506143f08b828c01614307565b9450506143ff60808a0161426a565b925060a0890135915060c089013590509295985092959890939650565b60005b8381101561443757818101518382015260200161441f565b83811115614446576000848401525b50505050565b6000815180845261446481602086016020860161441c565b601f01601f19169290920160200192915050565b602081526000611a93602083018461444c565b6001600160a01b0381168114610c7a57600080fd5b600080600080608085870312156144b657600080fd5b84356144c18161448b565b935060208501356144d18161448b565b92506040850135915060608501356001600160401b038111156144f357600080fd5b6144ff87828801614307565b91505092959194509250565b60006001600160401b03821115614524576145246142c1565b5060051b60200190565b600082601f83011261453f57600080fd5b8135602061455461454f8361450b565b6142d7565b82815260059290921b8401810191818101908684111561457357600080fd5b8286015b8481101561459757803561458a8161448b565b8352918301918301614577565b509695505050505050565b600082601f8301126145b357600080fd5b813560206145c361454f8361450b565b82815260059290921b840181019181810190868411156145e257600080fd5b8286015b8481101561459757803583529183019183016145e6565b600082601f83011261460e57600080fd5b8135602061461e61454f8361450b565b82815260059290921b8401810191818101908684111561463d57600080fd5b8286015b848110156145975780356001600160401b038111156146605760008081fd5b61466e8986838b0101614307565b845250918301918301614641565b6000806000806080858703121561469257600080fd5b84356001600160401b03808211156146a957600080fd5b6146b58883890161452e565b955060208701359150808211156146cb57600080fd5b6146d7888389016145a2565b945060408701359150808211156146ed57600080fd5b506146fa878288016145fd565b949793965093946060013593505050565b600081518084526020808501945080840160005b838110156147445781516001600160a01b03168752958201959082019060010161471f565b509495945050505050565b600081518084526020808501945080840160005b8381101561474457815187529582019590820190600101614763565b6000815180845260208085019450848260051b860182860160005b858110156147c45783830389526147b283835161444c565b9885019892509084019060010161479a565b5090979650505050505050565b6080815260006147e4608083018761470b565b82810360208401526147f6818761474f565b9050828103604084015261480a818661477f565b90508281036060840152611487818561477f565b600080600080600060a0868803121561483657600080fd5b853594506148466020870161426a565b93506148546040870161426a565b94979396509394606081013594506080013592915050565b634e487b7160e01b600052602160045260246000fd5b60208101600883106148a457634e487b7160e01b600052602160045260246000fd5b91905290565b600080604083850312156148bd57600080fd5b8235915060208301356148cf8161448b565b809150509250929050565b600080604083850312156148ed57600080fd5b823591506148fd6020840161426a565b90509250929050565b60008060008060006080868803121561491e57600080fd5b8535945061492e6020870161426a565b935060408601356001600160401b038082111561494a57600080fd5b61495689838a01614280565b9095509350606088013591508082111561496f57600080fd5b5061497c88828901614307565b9150509295509295909350565b6000806000806060858703121561499f57600080fd5b843593506149af6020860161426a565b925060408501356001600160401b038111156149ca57600080fd5b6149d687828801614280565b95989497509550505050565b600080600080608085870312156149f857600080fd5b84356001600160401b0380821115614a0f57600080fd5b614a1b8883890161452e565b95506020870135915080821115614a3157600080fd5b614a3d888389016145a2565b94506040870135915080821115614a5357600080fd5b614a5f888389016145fd565b93506060870135915080821115614a7557600080fd5b506144ff87828801614307565b60008060408385031215614a9557600080fd5b8235614aa08161448b565b915060208301356148cf8161448b565b600080600060608486031215614ac557600080fd5b8335614ad08161448b565b92506020840135915060408401356001600160401b03811115614af257600080fd5b614afe86828701614307565b9150509250925092565b600060208284031215614b1a57600080fd5b8135611a938161448b565b600080600080600060a08688031215614b3d57600080fd5b8535614b488161448b565b94506020860135614b588161448b565b935060408601356001600160401b0380821115614b7457600080fd5b614b8089838a016145a2565b94506060880135915080821115614b9657600080fd5b614ba289838a016145a2565b9350608088013591508082111561496f57600080fd5b60008060008060608587031215614bce57600080fd5b8435614bd98161448b565b93506020850135925060408501356001600160401b038111156149ca57600080fd5b600082601f830112614c0c57600080fd5b81356020614c1c61454f8361450b565b82815260059290921b84018101918181019086841115614c3b57600080fd5b8286015b848110156145975780356001600160401b03811115614c5e5760008081fd5b614c6c8986838b0101614307565b845250918301918301614c3f565b600080600080600060a08688031215614c9257600080fd5b85356001600160401b0380821115614ca957600080fd5b614cb589838a0161452e565b96506020880135915080821115614ccb57600080fd5b614cd789838a016145a2565b95506040880135915080821115614ced57600080fd5b614cf989838a01614bfb565b94506060880135915080821115614d0f57600080fd5b614ba289838a016145fd565b60008060408385031215614d2e57600080fd5b8235614d398161448b565b946020939093013593505050565b600080600080600060a08688031215614d5f57600080fd5b8535614d6a8161448b565b94506020860135614d7a8161448b565b9350604086013592506060860135915060808601356001600160401b03811115614da357600080fd5b61497c88828901614307565b8183823760009101908152919050565b60208082526018908201527f476f7665726e6f723a206f6e6c79476f7665726e616e63650000000000000000604082015260600190565b600181811c90821680614e0a57607f821691505b602082108103614e2a57634e487b7160e01b600052602260045260246000fd5b50919050565b60208082526021908201527f476f7665726e6f723a2070726f706f73616c206e6f74207375636365737366756040820152601b60fa1b606082015260800190565b600060208284031215614e8357600080fd5b5051919050565b60a081526000614e9d60a083018861470b565b8281036020840152614eaf818861474f565b90508281036040840152614ec3818761477f565b60608401959095525050608001529392505050565b60c081526000614eeb60c083018961470b565b8281036020840152614efd818961474f565b90508281036040840152614f11818861477f565b60608401969096525050608081019290925260a0909101529392505050565b634e487b7160e01b600052601160045260246000fd5b60008219821115614f5957614f59614f30565b500190565b600082821015614f7057614f70614f30565b500390565b600082614f9257634e487b7160e01b600052601260045260246000fd5b500490565b6000816000190483118215151615614fb157614fb1614f30565b500290565b634e487b7160e01b600052603260045260246000fd5b608081526000614fdf608083018761470b565b8281036020840152614ff1818761474f565b90508281036040840152615005818661477f565b91505082606083015295945050505050565b84815260ff84166020820152826040820152608060608201526000611907608083018461444c565b85815260ff8516602082015283604082015260a06060820152600061506760a083018561444c565b8281036080840152615079818561444c565b98975050505050505050565b60006001820161509757615097614f30565b5060010190565b6000602082840312156150b057600080fd5b81518015158114611a9357600080fd5b6001600160e01b03198316815281516000906150e381600485016020870161441c565b919091016004019392505050565b6020808252602b908201527f496e697469616c697a61626c653a20636f6e7472616374206973206e6f74206960408201526a6e697469616c697a696e6760a81b606082015260800190565b60208082526021908201527f476f7665726e6f723a20696e76616c69642070726f706f73616c206c656e67746040820152600d60fb1b606082015260800190565b60006001600160401b0380831681851680830382111561519f5761519f614f30565b01949350505050565b8981526001600160a01b0389166020820152610120604082018190526000906151d38382018b61470b565b905082810360608401526151e7818a61474f565b905082810360808401526151fb818961477f565b905082810360a084015261520f818861477f565b6001600160401b0387811660c0860152861660e0850152838103610100850152905061523b818561444c565b9c9b505050505050505050505050565b6000825161525d81846020870161441c565b919091019291505056fe416464726573733a206c6f772d6c6576656c2063616c6c20776974682076616c7565206661696c6564a2646970667358221220f68a3d3ee006f2fc9aa6d79dc083738ef76ae18385a6d6a41791e7c8aab5c68164736f6c634300080d0033",
  "immutableReferences": {},
  "source": "// SPDX-License-Identifier: MIT\npragma solidity ^0.8.2;\n\nimport \"@openzeppelin/contracts-upgradeable/governance/GovernorUpgradeable.sol\";\nimport \"@openzeppelin/contracts-upgradeable/governance/compatibility/GovernorCompatibilityBravoUpgradeable.sol\";\nimport \"@openzeppelin/contracts-upgradeable/governance/extensions/GovernorVotesUpgradeable.sol\";\nimport \"@openzeppelin/contracts-upgradeable/governance/extensions/GovernorVotesQuorumFractionUpgradeable.sol\";\nimport \"@openzeppelin/contracts-upgradeable/governance/extensions/GovernorTimelockControlUpgradeable.sol\";\n\nimport \"./IStaking.sol\";\n\ncontract RariGovernor is GovernorUpgradeable, GovernorCompatibilityBravoUpgradeable, GovernorVotesUpgradeable, GovernorVotesQuorumFractionUpgradeable, GovernorTimelockControlUpgradeable {\n    function __RariGovernor_init(IVotesUpgradeable tokenAddress, TimelockControllerUpgradeable timelockAddress) external initializer {\n        __Governor_init(\"RariGovernor\");\n        __GovernorCompatibilityBravo_init();\n        __GovernorVotes_init(tokenAddress);\n        __GovernorVotesQuorumFraction_init(4);\n        __GovernorTimelockControl_init(timelockAddress);\n    }\n\n    function votingDelay() public view override virtual returns (uint256) {\n        uint WEEK = IStaking(address(token)).WEEK();\n        uint startingPointWeek = IStaking(address(token)).startingPointWeek();\n\n        uint currentWeek = (block.timestamp / WEEK) - startingPointWeek;\n\n        //return the last block of the current week\n        return (currentWeek * (WEEK + 1)) - 1;\n    }\n\n    function votingPeriod() public pure override virtual returns (uint256) {\n        return 50; // 276 = 1 , 46027 = 1 week \n    }\n\n    function proposalThreshold() public pure override returns (uint256) {\n        return 0;\n    }\n\n    // The functions below are overrides required by Solidity.\n\n    function quorum(uint256 blockNumber)\n        public\n        view\n        override(IGovernorUpgradeable, GovernorVotesQuorumFractionUpgradeable)\n        returns (uint256)\n    {\n        return super.quorum(blockNumber);\n    }\n\n    function getVotes(address account, uint256 blockNumber)\n        public\n        view\n        override(GovernorUpgradeable, IGovernorUpgradeable)\n        returns (uint256)\n    {\n        return super.getVotes(account, blockNumber);\n    }\n\n    function state(uint256 proposalId)\n        public\n        view\n        override(GovernorUpgradeable, IGovernorUpgradeable, GovernorTimelockControlUpgradeable)\n        returns (ProposalState)\n    {\n        return super.state(proposalId);\n    }\n\n    function propose(address[] memory targets, uint256[] memory values, bytes[] memory calldatas, string memory description)\n        public\n        override(GovernorUpgradeable, GovernorCompatibilityBravoUpgradeable, IGovernorUpgradeable)\n        returns (uint256)\n    {\n        return super.propose(targets, values, calldatas, description);\n    }\n\n    function _execute(uint256 proposalId, address[] memory targets, uint256[] memory values, bytes[] memory calldatas, bytes32 descriptionHash)\n        internal\n        override(GovernorUpgradeable, GovernorTimelockControlUpgradeable)\n    {\n        super._execute(proposalId, targets, values, calldatas, descriptionHash);\n    }\n\n    function _cancel(address[] memory targets, uint256[] memory values, bytes[] memory calldatas, bytes32 descriptionHash)\n        internal\n        override(GovernorUpgradeable, GovernorTimelockControlUpgradeable)\n        returns (uint256)\n    {\n        return super._cancel(targets, values, calldatas, descriptionHash);\n    }\n\n    function _executor()\n        internal\n        view\n        override(GovernorUpgradeable, GovernorTimelockControlUpgradeable)\n        returns (address)\n    {\n        return super._executor();\n    }\n\n    function supportsInterface(bytes4 interfaceId)\n        public\n        view\n        override(GovernorUpgradeable, IERC165Upgradeable, GovernorTimelockControlUpgradeable)\n        returns (bool)\n    {\n        return super.supportsInterface(interfaceId);\n    }\n}",
  "sourcePath": "/Users/ds/Documents/rarible/governance-contracts/contracts/RariGovernor.sol",
  "compiler": {
    "name": "solc",
    "version": "0.8.13+commit.abaa5c0e.Emscripten.clang"
  },
  "schemaVersion": "3.4.3",
  "updatedAt": "2022-09-30T13:27:27.253Z",
  "networkType": "ethereum",
  "devdoc": {
    "errors": {
      "Empty()": [
        {
          "details": "An operation (e.g. {front}) couldn't be completed due to the queue being empty."
        }
      ]
    },
    "kind": "dev",
    "methods": {
      "COUNTING_MODE()": {
        "details": "A description of the possible `support` values for {castVote} and the way these votes are counted, meant to be consumed by UIs to show correct vote options and interpret the results. The string is a URL-encoded sequence of key-value pairs that each describe one aspect, for example `support=bravo&quorum=for,abstain`. There are 2 standard keys: `support` and `quorum`. - `support=bravo` refers to the vote options 0 = Against, 1 = For, 2 = Abstain, as in `GovernorBravo`. - `quorum=bravo` means that only For votes are counted towards quorum. - `quorum=for,abstain` means that both For and Abstain votes are counted towards quorum. If a counting module makes use of encoded `params`, it should  include this under a `params` key with a unique name that describes the behavior. For example: - `params=fractional` might refer to a scheme where votes are divided fractionally between for/against/abstain. - `params=erc721` might refer to a scheme where specific NFTs are delegated to vote. NOTE: The string can be decoded by the standard https://developer.mozilla.org/en-US/docs/Web/API/URLSearchParams[`URLSearchParams`] JavaScript class."
      },
      "cancel(uint256)": {
        "details": "Cancels a proposal only if sender is the proposer, or proposer delegates dropped below proposal threshold."
      },
      "castVote(uint256,uint8)": {
        "details": "See {IGovernor-castVote}."
      },
      "castVoteBySig(uint256,uint8,uint8,bytes32,bytes32)": {
        "details": "See {IGovernor-castVoteBySig}."
      },
      "castVoteWithReason(uint256,uint8,string)": {
        "details": "See {IGovernor-castVoteWithReason}."
      },
      "castVoteWithReasonAndParams(uint256,uint8,string,bytes)": {
        "details": "See {IGovernor-castVoteWithReasonAndParams}."
      },
      "castVoteWithReasonAndParamsBySig(uint256,uint8,string,bytes,uint8,bytes32,bytes32)": {
        "details": "See {IGovernor-castVoteWithReasonAndParamsBySig}."
      },
      "execute(address[],uint256[],bytes[],bytes32)": {
        "details": "See {IGovernor-execute}."
      },
      "execute(uint256)": {
        "details": "See {IGovernorCompatibilityBravo-execute}."
      },
      "getActions(uint256)": {
        "details": "See {IGovernorCompatibilityBravo-getActions}."
      },
      "getReceipt(uint256,address)": {
        "details": "See {IGovernorCompatibilityBravo-getReceipt}."
      },
      "getVotesWithParams(address,uint256,bytes)": {
        "details": "See {IGovernor-getVotesWithParams}."
      },
      "hasVoted(uint256,address)": {
        "details": "See {IGovernor-hasVoted}."
      },
      "hashProposal(address[],uint256[],bytes[],bytes32)": {
        "details": "See {IGovernor-hashProposal}. The proposal id is produced by hashing the ABI encoded `targets` array, the `values` array, the `calldatas` array and the descriptionHash (bytes32 which itself is the keccak256 hash of the description string). This proposal id can be produced from the proposal data which is part of the {ProposalCreated} event. It can even be computed in advance, before the proposal is submitted. Note that the chainId and the governor address are not part of the proposal id computation. Consequently, the same proposal (with same operation and same description) will have the same id if submitted on multiple governors across multiple networks. This also means that in order to execute the same operation twice (on the same governor) the proposer will have to change the description in order to avoid proposal id conflicts."
      },
      "name()": {
        "details": "See {IGovernor-name}."
      },
      "onERC1155BatchReceived(address,address,uint256[],uint256[],bytes)": {
        "details": "See {IERC1155Receiver-onERC1155BatchReceived}."
      },
      "onERC1155Received(address,address,uint256,uint256,bytes)": {
        "details": "See {IERC1155Receiver-onERC1155Received}."
      },
      "onERC721Received(address,address,uint256,bytes)": {
        "details": "See {IERC721Receiver-onERC721Received}."
      },
      "proposalDeadline(uint256)": {
        "details": "See {IGovernor-proposalDeadline}."
      },
      "proposalEta(uint256)": {
        "details": "Public accessor to check the eta of a queued proposal"
      },
      "proposalSnapshot(uint256)": {
        "details": "See {IGovernor-proposalSnapshot}."
      },
      "proposalThreshold()": {
        "details": "Part of the Governor Bravo's interface: _\"The number of votes required in order for a voter to become a proposer\"_."
      },
      "proposals(uint256)": {
        "details": "See {IGovernorCompatibilityBravo-proposals}."
      },
      "propose(address[],uint256[],string[],bytes[],string)": {
        "details": "See {IGovernorCompatibilityBravo-propose}."
      },
      "queue(address[],uint256[],bytes[],bytes32)": {
        "details": "Function to queue a proposal to the timelock."
      },
      "queue(uint256)": {
        "details": "See {IGovernorCompatibilityBravo-queue}."
      },
      "quorumDenominator()": {
        "details": "Returns the quorum denominator. Defaults to 100, but may be overridden."
      },
      "quorumNumerator()": {
        "details": "Returns the current quorum numerator. See {quorumDenominator}."
      },
      "quorumNumerator(uint256)": {
        "details": "Returns the quorum numerator at a specific block number. See {quorumDenominator}."
      },
      "quorumVotes()": {
        "details": "See {IGovernorCompatibilityBravo-quorumVotes}."
      },
      "relay(address,uint256,bytes)": {
        "details": "Relays a transaction or function call to an arbitrary target. In cases where the governance executor is some contract other than the governor itself, like when using a timelock, this function can be invoked in a governance proposal to recover tokens or Ether that was sent to the governor contract by mistake. Note that if the executor is simply the governor itself, use of `relay` is redundant."
      },
      "timelock()": {
        "details": "Public accessor to check the address of the timelock"
      },
      "updateQuorumNumerator(uint256)": {
        "details": "Changes the quorum numerator. Emits a {QuorumNumeratorUpdated} event. Requirements: - Must be called through a governance proposal. - New numerator must be smaller or equal to the denominator."
      },
      "updateTimelock(address)": {
        "details": "Public endpoint to update the underlying timelock instance. Restricted to the timelock itself, so updates must be proposed, scheduled, and executed through governance proposals. CAUTION: It is not recommended to change the timelock while there are other queued governance proposals."
      },
      "version()": {
        "details": "See {IGovernor-version}."
      },
      "votingDelay()": {
        "details": "Delay, in number of block, between the proposal is created and the vote starts. This can be increassed to leave time for users to buy voting power, or delegate it, before the voting of a proposal starts."
      },
      "votingPeriod()": {
        "details": "Delay, in number of blocks, between the vote start and vote ends. NOTE: The {votingDelay} can delay the start of the vote. This must be considered when setting the voting duration compared to the voting delay."
      }
    },
    "version": 1
  },
  "userdoc": {
    "kind": "user",
    "methods": {
      "COUNTING_MODE()": {
        "notice": "module:voting"
      },
      "votingDelay()": {
        "notice": "module:user-config"
      },
      "votingPeriod()": {
        "notice": "module:user-config"
      }
    },
    "version": 1
  }
}