{
  "contractName": "RariTimelockController",
  "abi": [
    {
      "anonymous": false,
      "inputs": [
        {
          "indexed": true,
          "internalType": "bytes32",
          "name": "id",
          "type": "bytes32"
        },
        {
          "indexed": true,
          "internalType": "uint256",
          "name": "index",
          "type": "uint256"
        },
        {
          "indexed": false,
          "internalType": "address",
          "name": "target",
          "type": "address"
        },
        {
          "indexed": false,
          "internalType": "uint256",
          "name": "value",
          "type": "uint256"
        },
        {
          "indexed": false,
          "internalType": "bytes",
          "name": "data",
          "type": "bytes"
        }
      ],
      "name": "CallExecuted",
      "type": "event"
    },
    {
      "anonymous": false,
      "inputs": [
        {
          "indexed": true,
          "internalType": "bytes32",
          "name": "id",
          "type": "bytes32"
        },
        {
          "indexed": true,
          "internalType": "uint256",
          "name": "index",
          "type": "uint256"
        },
        {
          "indexed": false,
          "internalType": "address",
          "name": "target",
          "type": "address"
        },
        {
          "indexed": false,
          "internalType": "uint256",
          "name": "value",
          "type": "uint256"
        },
        {
          "indexed": false,
          "internalType": "bytes",
          "name": "data",
          "type": "bytes"
        },
        {
          "indexed": false,
          "internalType": "bytes32",
          "name": "predecessor",
          "type": "bytes32"
        },
        {
          "indexed": false,
          "internalType": "uint256",
          "name": "delay",
          "type": "uint256"
        }
      ],
      "name": "CallScheduled",
      "type": "event"
    },
    {
      "anonymous": false,
      "inputs": [
        {
          "indexed": true,
          "internalType": "bytes32",
          "name": "id",
          "type": "bytes32"
        }
      ],
      "name": "Cancelled",
      "type": "event"
    },
    {
      "anonymous": false,
      "inputs": [
        {
          "indexed": false,
          "internalType": "uint8",
          "name": "version",
          "type": "uint8"
        }
      ],
      "name": "Initialized",
      "type": "event"
    },
    {
      "anonymous": false,
      "inputs": [
        {
          "indexed": false,
          "internalType": "uint256",
          "name": "oldDuration",
          "type": "uint256"
        },
        {
          "indexed": false,
          "internalType": "uint256",
          "name": "newDuration",
          "type": "uint256"
        }
      ],
      "name": "MinDelayChange",
      "type": "event"
    },
    {
      "anonymous": false,
      "inputs": [
        {
          "indexed": true,
          "internalType": "bytes32",
          "name": "role",
          "type": "bytes32"
        },
        {
          "indexed": true,
          "internalType": "bytes32",
          "name": "previousAdminRole",
          "type": "bytes32"
        },
        {
          "indexed": true,
          "internalType": "bytes32",
          "name": "newAdminRole",
          "type": "bytes32"
        }
      ],
      "name": "RoleAdminChanged",
      "type": "event"
    },
    {
      "anonymous": false,
      "inputs": [
        {
          "indexed": true,
          "internalType": "bytes32",
          "name": "role",
          "type": "bytes32"
        },
        {
          "indexed": true,
          "internalType": "address",
          "name": "account",
          "type": "address"
        },
        {
          "indexed": true,
          "internalType": "address",
          "name": "sender",
          "type": "address"
        }
      ],
      "name": "RoleGranted",
      "type": "event"
    },
    {
      "anonymous": false,
      "inputs": [
        {
          "indexed": true,
          "internalType": "bytes32",
          "name": "role",
          "type": "bytes32"
        },
        {
          "indexed": true,
          "internalType": "address",
          "name": "account",
          "type": "address"
        },
        {
          "indexed": true,
          "internalType": "address",
          "name": "sender",
          "type": "address"
        }
      ],
      "name": "RoleRevoked",
      "type": "event"
    },
    {
      "inputs": [],
      "name": "CANCELLER_ROLE",
      "outputs": [
        {
          "internalType": "bytes32",
          "name": "",
          "type": "bytes32"
        }
      ],
      "stateMutability": "view",
      "type": "function",
      "constant": true
    },
    {
      "inputs": [],
      "name": "DEFAULT_ADMIN_ROLE",
      "outputs": [
        {
          "internalType": "bytes32",
          "name": "",
          "type": "bytes32"
        }
      ],
      "stateMutability": "view",
      "type": "function",
      "constant": true
    },
    {
      "inputs": [],
      "name": "EXECUTOR_ROLE",
      "outputs": [
        {
          "internalType": "bytes32",
          "name": "",
          "type": "bytes32"
        }
      ],
      "stateMutability": "view",
      "type": "function",
      "constant": true
    },
    {
      "inputs": [],
      "name": "PROPOSER_ROLE",
      "outputs": [
        {
          "internalType": "bytes32",
          "name": "",
          "type": "bytes32"
        }
      ],
      "stateMutability": "view",
      "type": "function",
      "constant": true
    },
    {
      "inputs": [],
      "name": "TIMELOCK_ADMIN_ROLE",
      "outputs": [
        {
          "internalType": "bytes32",
          "name": "",
          "type": "bytes32"
        }
      ],
      "stateMutability": "view",
      "type": "function",
      "constant": true
    },
    {
      "inputs": [
        {
          "internalType": "bytes32",
          "name": "id",
          "type": "bytes32"
        }
      ],
      "name": "cancel",
      "outputs": [],
      "stateMutability": "nonpayable",
      "type": "function"
    },
    {
      "inputs": [
        {
          "internalType": "address",
          "name": "target",
          "type": "address"
        },
        {
          "internalType": "uint256",
          "name": "value",
          "type": "uint256"
        },
        {
          "internalType": "bytes",
          "name": "payload",
          "type": "bytes"
        },
        {
          "internalType": "bytes32",
          "name": "predecessor",
          "type": "bytes32"
        },
        {
          "internalType": "bytes32",
          "name": "salt",
          "type": "bytes32"
        }
      ],
      "name": "execute",
      "outputs": [],
      "stateMutability": "payable",
      "type": "function",
      "payable": true
    },
    {
      "inputs": [
        {
          "internalType": "address[]",
          "name": "targets",
          "type": "address[]"
        },
        {
          "internalType": "uint256[]",
          "name": "values",
          "type": "uint256[]"
        },
        {
          "internalType": "bytes[]",
          "name": "payloads",
          "type": "bytes[]"
        },
        {
          "internalType": "bytes32",
          "name": "predecessor",
          "type": "bytes32"
        },
        {
          "internalType": "bytes32",
          "name": "salt",
          "type": "bytes32"
        }
      ],
      "name": "executeBatch",
      "outputs": [],
      "stateMutability": "payable",
      "type": "function",
      "payable": true
    },
    {
      "inputs": [],
      "name": "getMinDelay",
      "outputs": [
        {
          "internalType": "uint256",
          "name": "duration",
          "type": "uint256"
        }
      ],
      "stateMutability": "view",
      "type": "function",
      "constant": true
    },
    {
      "inputs": [
        {
          "internalType": "bytes32",
          "name": "role",
          "type": "bytes32"
        }
      ],
      "name": "getRoleAdmin",
      "outputs": [
        {
          "internalType": "bytes32",
          "name": "",
          "type": "bytes32"
        }
      ],
      "stateMutability": "view",
      "type": "function",
      "constant": true
    },
    {
      "inputs": [
        {
          "internalType": "bytes32",
          "name": "id",
          "type": "bytes32"
        }
      ],
      "name": "getTimestamp",
      "outputs": [
        {
          "internalType": "uint256",
          "name": "timestamp",
          "type": "uint256"
        }
      ],
      "stateMutability": "view",
      "type": "function",
      "constant": true
    },
    {
      "inputs": [
        {
          "internalType": "bytes32",
          "name": "role",
          "type": "bytes32"
        },
        {
          "internalType": "address",
          "name": "account",
          "type": "address"
        }
      ],
      "name": "grantRole",
      "outputs": [],
      "stateMutability": "nonpayable",
      "type": "function"
    },
    {
      "inputs": [
        {
          "internalType": "bytes32",
          "name": "role",
          "type": "bytes32"
        },
        {
          "internalType": "address",
          "name": "account",
          "type": "address"
        }
      ],
      "name": "hasRole",
      "outputs": [
        {
          "internalType": "bool",
          "name": "",
          "type": "bool"
        }
      ],
      "stateMutability": "view",
      "type": "function",
      "constant": true
    },
    {
      "inputs": [
        {
          "internalType": "address",
          "name": "target",
          "type": "address"
        },
        {
          "internalType": "uint256",
          "name": "value",
          "type": "uint256"
        },
        {
          "internalType": "bytes",
          "name": "data",
          "type": "bytes"
        },
        {
          "internalType": "bytes32",
          "name": "predecessor",
          "type": "bytes32"
        },
        {
          "internalType": "bytes32",
          "name": "salt",
          "type": "bytes32"
        }
      ],
      "name": "hashOperation",
      "outputs": [
        {
          "internalType": "bytes32",
          "name": "hash",
          "type": "bytes32"
        }
      ],
      "stateMutability": "pure",
      "type": "function",
      "constant": true
    },
    {
      "inputs": [
        {
          "internalType": "address[]",
          "name": "targets",
          "type": "address[]"
        },
        {
          "internalType": "uint256[]",
          "name": "values",
          "type": "uint256[]"
        },
        {
          "internalType": "bytes[]",
          "name": "payloads",
          "type": "bytes[]"
        },
        {
          "internalType": "bytes32",
          "name": "predecessor",
          "type": "bytes32"
        },
        {
          "internalType": "bytes32",
          "name": "salt",
          "type": "bytes32"
        }
      ],
      "name": "hashOperationBatch",
      "outputs": [
        {
          "internalType": "bytes32",
          "name": "hash",
          "type": "bytes32"
        }
      ],
      "stateMutability": "pure",
      "type": "function",
      "constant": true
    },
    {
      "inputs": [
        {
          "internalType": "bytes32",
          "name": "id",
          "type": "bytes32"
        }
      ],
      "name": "isOperation",
      "outputs": [
        {
          "internalType": "bool",
          "name": "registered",
          "type": "bool"
        }
      ],
      "stateMutability": "view",
      "type": "function",
      "constant": true
    },
    {
      "inputs": [
        {
          "internalType": "bytes32",
          "name": "id",
          "type": "bytes32"
        }
      ],
      "name": "isOperationDone",
      "outputs": [
        {
          "internalType": "bool",
          "name": "done",
          "type": "bool"
        }
      ],
      "stateMutability": "view",
      "type": "function",
      "constant": true
    },
    {
      "inputs": [
        {
          "internalType": "bytes32",
          "name": "id",
          "type": "bytes32"
        }
      ],
      "name": "isOperationPending",
      "outputs": [
        {
          "internalType": "bool",
          "name": "pending",
          "type": "bool"
        }
      ],
      "stateMutability": "view",
      "type": "function",
      "constant": true
    },
    {
      "inputs": [
        {
          "internalType": "bytes32",
          "name": "id",
          "type": "bytes32"
        }
      ],
      "name": "isOperationReady",
      "outputs": [
        {
          "internalType": "bool",
          "name": "ready",
          "type": "bool"
        }
      ],
      "stateMutability": "view",
      "type": "function",
      "constant": true
    },
    {
      "inputs": [
        {
          "internalType": "address",
          "name": "",
          "type": "address"
        },
        {
          "internalType": "address",
          "name": "",
          "type": "address"
        },
        {
          "internalType": "uint256[]",
          "name": "",
          "type": "uint256[]"
        },
        {
          "internalType": "uint256[]",
          "name": "",
          "type": "uint256[]"
        },
        {
          "internalType": "bytes",
          "name": "",
          "type": "bytes"
        }
      ],
      "name": "onERC1155BatchReceived",
      "outputs": [
        {
          "internalType": "bytes4",
          "name": "",
          "type": "bytes4"
        }
      ],
      "stateMutability": "nonpayable",
      "type": "function"
    },
    {
      "inputs": [
        {
          "internalType": "address",
          "name": "",
          "type": "address"
        },
        {
          "internalType": "address",
          "name": "",
          "type": "address"
        },
        {
          "internalType": "uint256",
          "name": "",
          "type": "uint256"
        },
        {
          "internalType": "uint256",
          "name": "",
          "type": "uint256"
        },
        {
          "internalType": "bytes",
          "name": "",
          "type": "bytes"
        }
      ],
      "name": "onERC1155Received",
      "outputs": [
        {
          "internalType": "bytes4",
          "name": "",
          "type": "bytes4"
        }
      ],
      "stateMutability": "nonpayable",
      "type": "function"
    },
    {
      "inputs": [
        {
          "internalType": "address",
          "name": "",
          "type": "address"
        },
        {
          "internalType": "address",
          "name": "",
          "type": "address"
        },
        {
          "internalType": "uint256",
          "name": "",
          "type": "uint256"
        },
        {
          "internalType": "bytes",
          "name": "",
          "type": "bytes"
        }
      ],
      "name": "onERC721Received",
      "outputs": [
        {
          "internalType": "bytes4",
          "name": "",
          "type": "bytes4"
        }
      ],
      "stateMutability": "nonpayable",
      "type": "function"
    },
    {
      "inputs": [
        {
          "internalType": "bytes32",
          "name": "role",
          "type": "bytes32"
        },
        {
          "internalType": "address",
          "name": "account",
          "type": "address"
        }
      ],
      "name": "renounceRole",
      "outputs": [],
      "stateMutability": "nonpayable",
      "type": "function"
    },
    {
      "inputs": [
        {
          "internalType": "bytes32",
          "name": "role",
          "type": "bytes32"
        },
        {
          "internalType": "address",
          "name": "account",
          "type": "address"
        }
      ],
      "name": "revokeRole",
      "outputs": [],
      "stateMutability": "nonpayable",
      "type": "function"
    },
    {
      "inputs": [
        {
          "internalType": "address",
          "name": "target",
          "type": "address"
        },
        {
          "internalType": "uint256",
          "name": "value",
          "type": "uint256"
        },
        {
          "internalType": "bytes",
          "name": "data",
          "type": "bytes"
        },
        {
          "internalType": "bytes32",
          "name": "predecessor",
          "type": "bytes32"
        },
        {
          "internalType": "bytes32",
          "name": "salt",
          "type": "bytes32"
        },
        {
          "internalType": "uint256",
          "name": "delay",
          "type": "uint256"
        }
      ],
      "name": "schedule",
      "outputs": [],
      "stateMutability": "nonpayable",
      "type": "function"
    },
    {
      "inputs": [
        {
          "internalType": "address[]",
          "name": "targets",
          "type": "address[]"
        },
        {
          "internalType": "uint256[]",
          "name": "values",
          "type": "uint256[]"
        },
        {
          "internalType": "bytes[]",
          "name": "payloads",
          "type": "bytes[]"
        },
        {
          "internalType": "bytes32",
          "name": "predecessor",
          "type": "bytes32"
        },
        {
          "internalType": "bytes32",
          "name": "salt",
          "type": "bytes32"
        },
        {
          "internalType": "uint256",
          "name": "delay",
          "type": "uint256"
        }
      ],
      "name": "scheduleBatch",
      "outputs": [],
      "stateMutability": "nonpayable",
      "type": "function"
    },
    {
      "inputs": [
        {
          "internalType": "bytes4",
          "name": "interfaceId",
          "type": "bytes4"
        }
      ],
      "name": "supportsInterface",
      "outputs": [
        {
          "internalType": "bool",
          "name": "",
          "type": "bool"
        }
      ],
      "stateMutability": "view",
      "type": "function",
      "constant": true
    },
    {
      "inputs": [
        {
          "internalType": "uint256",
          "name": "newDelay",
          "type": "uint256"
        }
      ],
      "name": "updateDelay",
      "outputs": [],
      "stateMutability": "nonpayable",
      "type": "function"
    },
    {
      "stateMutability": "payable",
      "type": "receive",
      "payable": true
    },
    {
      "inputs": [
        {
          "internalType": "uint256",
          "name": "minDelay",
          "type": "uint256"
        },
        {
          "internalType": "address[]",
          "name": "proposers",
          "type": "address[]"
        },
        {
          "internalType": "address[]",
          "name": "executors",
          "type": "address[]"
        }
      ],
      "name": "__RariTimelockController_init",
      "outputs": [],
      "stateMutability": "nonpayable",
      "type": "function"
    }
  ],
  "bytecode": "0x608060405234801561001057600080fd5b50612266806100206000396000f3fe6080604052600436106101c65760003560e01c80638065657f116100f7578063b1c5f42711610095578063d547741f11610064578063d547741f14610564578063e38335e514610584578063f23a6e6114610597578063f27a0c92146105c357600080fd5b8063b1c5f427146104cb578063bc197c81146104eb578063c4d252f514610517578063d45c44351461053757600080fd5b806391d14854116100d157806391d148541461045457806399d2d7bf14610474578063a217fddf14610494578063b08e51c0146104a957600080fd5b80638065657f146103f25780638f2a0bb0146104125780638f61f4f51461043257600080fd5b8063248a9ca31161016457806331d507501161013e57806331d507501461037257806336568abe14610392578063584b153e146103b257806364d62353146103d257600080fd5b8063248a9ca3146102f25780632ab0f529146103225780632f2ff15d1461035257600080fd5b80630d3cf6fc116101a05780630d3cf6fc14610259578063134008d31461027b57806313bc9f201461028e578063150b7a02146102ae57600080fd5b806301d5062a146101d257806301ffc9a7146101f457806307bd02651461022957600080fd5b366101cd57005b600080fd5b3480156101de57600080fd5b506101f26101ed3660046116bd565b6105d8565b005b34801561020057600080fd5b5061021461020f366004611731565b61065b565b60405190151581526020015b60405180910390f35b34801561023557600080fd5b5061024b6000805160206121f183398151915281565b604051908152602001610220565b34801561026557600080fd5b5061024b6000805160206121b183398151915281565b6101f261028936600461175b565b610686565b34801561029a57600080fd5b506102146102a93660046117c6565b610729565b3480156102ba57600080fd5b506102d96102c9366004611894565b630a85bd0160e11b949350505050565b6040516001600160e01b03199091168152602001610220565b3480156102fe57600080fd5b5061024b61030d3660046117c6565b60009081526065602052604090206001015490565b34801561032e57600080fd5b5061021461033d3660046117c6565b60009081526097602052604090205460011490565b34801561035e57600080fd5b506101f261036d3660046118fb565b61074f565b34801561037e57600080fd5b5061021461038d3660046117c6565b610779565b34801561039e57600080fd5b506101f26103ad3660046118fb565b610792565b3480156103be57600080fd5b506102146103cd3660046117c6565b610815565b3480156103de57600080fd5b506101f26103ed3660046117c6565b61082c565b3480156103fe57600080fd5b5061024b61040d36600461175b565b6108d0565b34801561041e57600080fd5b506101f261042d36600461196b565b61090f565b34801561043e57600080fd5b5061024b6000805160206121d183398151915281565b34801561046057600080fd5b5061021461046f3660046118fb565b610a4f565b34801561048057600080fd5b506101f261048f366004611ab1565b610a7a565b3480156104a057600080fd5b5061024b600081565b3480156104b557600080fd5b5061024b60008051602061221183398151915281565b3480156104d757600080fd5b5061024b6104e6366004611b1d565b610b91565b3480156104f757600080fd5b506102d9610506366004611c20565b63bc197c8160e01b95945050505050565b34801561052357600080fd5b506101f26105323660046117c6565b610bd6565b34801561054357600080fd5b5061024b6105523660046117c6565b60009081526097602052604090205490565b34801561057057600080fd5b506101f261057f3660046118fb565b610c99565b6101f2610592366004611b1d565b610cbe565b3480156105a357600080fd5b506102d96105b2366004611cc9565b63f23a6e6160e01b95945050505050565b3480156105cf57600080fd5b5060985461024b565b6000805160206121d18339815191526105f081610e36565b60006106008989898989896108d0565b905061060c8184610e43565b6000817f4cf4410cc57040e44862ef0f45f3dd5a5e02db8eb8add648d4b0e236f1d07dca8b8b8b8b8b8a60405161064896959493929190611d56565b60405180910390a3505050505050505050565b60006001600160e01b03198216630271189760e51b1480610680575061068082610f32565b92915050565b6000805160206121f18339815191526106a0816000610a4f565b6106ae576106ae8133610f67565b60006106be8888888888886108d0565b90506106ca8185610fcb565b6106d688888888611066565b6000817fc2617efa69bab66782fa219543714338489c4e9e178271560a91b82c3f612b588a8a8a8a60405161070e9493929190611d93565b60405180910390a361071f81611139565b5050505050505050565b6000818152609760205260408120546001811180156107485750428111155b9392505050565b60008281526065602052604090206001015461076a81610e36565b6107748383611172565b505050565b60008181526097602052604081205481905b1192915050565b6001600160a01b03811633146108075760405162461bcd60e51b815260206004820152602f60248201527f416363657373436f6e74726f6c3a2063616e206f6e6c792072656e6f756e636560448201526e103937b632b9903337b91039b2b63360891b60648201526084015b60405180910390fd5b61081182826111f8565b5050565b60008181526097602052604081205460019061078b565b33301461088f5760405162461bcd60e51b815260206004820152602b60248201527f54696d656c6f636b436f6e74726f6c6c65723a2063616c6c6572206d7573742060448201526a62652074696d656c6f636b60a81b60648201526084016107fe565b60985460408051918252602082018390527f11c24f4ead16507c69ac467fbd5e4eed5fb5c699626d2cc6d66421df253886d5910160405180910390a1609855565b60008686868686866040516020016108ed96959493929190611d56565b6040516020818303038152906040528051906020012090509695505050505050565b6000805160206121d183398151915261092781610e36565b8887146109465760405162461bcd60e51b81526004016107fe90611dc5565b8885146109655760405162461bcd60e51b81526004016107fe90611dc5565b60006109778b8b8b8b8b8b8b8b610b91565b90506109838184610e43565b60005b8a811015610a415780827f4cf4410cc57040e44862ef0f45f3dd5a5e02db8eb8add648d4b0e236f1d07dca8e8e858181106109c3576109c3611e08565b90506020020160208101906109d89190611e1e565b8d8d868181106109ea576109ea611e08565b905060200201358c8c87818110610a0357610a03611e08565b9050602002810190610a159190611e39565b8c8b604051610a2996959493929190611d56565b60405180910390a3610a3a81611e95565b9050610986565b505050505050505050505050565b60009182526065602090815260408084206001600160a01b0393909316845291905290205460ff1690565b600054610100900460ff1615808015610a9a5750600054600160ff909116105b80610ab45750303b158015610ab4575060005460ff166001145b610b175760405162461bcd60e51b815260206004820152602e60248201527f496e697469616c697a61626c653a20636f6e747261637420697320616c72656160448201526d191e481a5b9a5d1a585b1a5e995960921b60648201526084016107fe565b6000805460ff191660011790558015610b3a576000805461ff0019166101001790555b610b4584848461125f565b8015610b8b576000805461ff0019169055604051600181527f7f26b83ff96e1f2b6a682f133852f6798a09c465da95921460cefb38474024989060200160405180910390a15b50505050565b60008888888888888888604051602001610bb2989796959493929190611f3e565b60405160208183030381529060405280519060200120905098975050505050505050565b600080516020612211833981519152610bee81610e36565b610bf782610815565b610c5d5760405162461bcd60e51b815260206004820152603160248201527f54696d656c6f636b436f6e74726f6c6c65723a206f7065726174696f6e2063616044820152701b9b9bdd0818994818d85b98d95b1b1959607a1b60648201526084016107fe565b6000828152609760205260408082208290555183917fbaa1eb22f2a492ba1a5fea61b8df4d27c6c8b5f3971e63bb58fa14ff72eedb7091a25050565b600082815260656020526040902060010154610cb481610e36565b61077483836111f8565b6000805160206121f1833981519152610cd8816000610a4f565b610ce657610ce68133610f67565b878614610d055760405162461bcd60e51b81526004016107fe90611dc5565b878414610d245760405162461bcd60e51b81526004016107fe90611dc5565b6000610d368a8a8a8a8a8a8a8a610b91565b9050610d428185610fcb565b60005b89811015610e205760008b8b83818110610d6157610d61611e08565b9050602002016020810190610d769190611e1e565b905060008a8a84818110610d8c57610d8c611e08565b9050602002013590503660008a8a86818110610daa57610daa611e08565b9050602002810190610dbc9190611e39565b91509150610dcc84848484611066565b84867fc2617efa69bab66782fa219543714338489c4e9e178271560a91b82c3f612b5886868686604051610e039493929190611d93565b60405180910390a35050505080610e1990611e95565b9050610d45565b50610e2a81611139565b50505050505050505050565b610e408133610f67565b50565b610e4c82610779565b15610eb15760405162461bcd60e51b815260206004820152602f60248201527f54696d656c6f636b436f6e74726f6c6c65723a206f7065726174696f6e20616c60448201526e1c9958591e481cd8da19591d5b1959608a1b60648201526084016107fe565b609854811015610f125760405162461bcd60e51b815260206004820152602660248201527f54696d656c6f636b436f6e74726f6c6c65723a20696e73756666696369656e746044820152652064656c617960d01b60648201526084016107fe565b610f1c8142611fe9565b6000928352609760205260409092209190915550565b60006001600160e01b03198216637965db0b60e01b148061068057506301ffc9a760e01b6001600160e01b0319831614610680565b610f718282610a4f565b61081157610f89816001600160a01b03166014611291565b610f94836020611291565b604051602001610fa592919061202d565b60408051601f198184030181529082905262461bcd60e51b82526107fe916004016120a2565b610fd482610729565b610ff05760405162461bcd60e51b81526004016107fe906120d5565b80158061100b57506000818152609760205260409020546001145b6108115760405162461bcd60e51b815260206004820152602660248201527f54696d656c6f636b436f6e74726f6c6c65723a206d697373696e6720646570656044820152656e64656e637960d01b60648201526084016107fe565b6000846001600160a01b031684848460405161108392919061211f565b60006040518083038185875af1925050503d80600081146110c0576040519150601f19603f3d011682016040523d82523d6000602084013e6110c5565b606091505b50509050806111325760405162461bcd60e51b815260206004820152603360248201527f54696d656c6f636b436f6e74726f6c6c65723a20756e6465726c79696e6720746044820152721c985b9cd858dd1a5bdb881c995d995c9d1959606a1b60648201526084016107fe565b5050505050565b61114281610729565b61115e5760405162461bcd60e51b81526004016107fe906120d5565b600090815260976020526040902060019055565b61117c8282610a4f565b6108115760008281526065602090815260408083206001600160a01b03851684529091529020805460ff191660011790556111b43390565b6001600160a01b0316816001600160a01b0316837f2f8788117e7eff1d82e926ec794901d17c78024a50270940304540a733656f0d60405160405180910390a45050565b6112028282610a4f565b156108115760008281526065602090815260408083206001600160a01b0385168085529252808320805460ff1916905551339285917ff6391f5c32d9c69d2a47ea670b442974b53935d1edc7fd64eb21e047a839171b9190a45050565b600054610100900460ff166112865760405162461bcd60e51b81526004016107fe9061212f565b61077483838361142c565b606060006112a083600261217a565b6112ab906002611fe9565b6001600160401b038111156112c2576112c26117df565b6040519080825280601f01601f1916602001820160405280156112ec576020820181803683370190505b509050600360fc1b8160008151811061130757611307611e08565b60200101906001600160f81b031916908160001a905350600f60fb1b8160018151811061133657611336611e08565b60200101906001600160f81b031916908160001a905350600061135a84600261217a565b611365906001611fe9565b90505b60018111156113dd576f181899199a1a9b1b9c1cb0b131b232b360811b85600f166010811061139957611399611e08565b1a60f81b8282815181106113af576113af611e08565b60200101906001600160f81b031916908160001a90535060049490941c936113d681612199565b9050611368565b5083156107485760405162461bcd60e51b815260206004820181905260248201527f537472696e67733a20686578206c656e67746820696e73756666696369656e7460448201526064016107fe565b600054610100900460ff166114535760405162461bcd60e51b81526004016107fe9061212f565b61146b6000805160206121b183398151915280611604565b6114916000805160206121d18339815191526000805160206121b1833981519152611604565b6114b76000805160206121f18339815191526000805160206121b1833981519152611604565b6114dd6000805160206122118339815191526000805160206121b1833981519152611604565b6114f56000805160206121b18339815191523361164f565b61150d6000805160206121b18339815191523061164f565b60005b825181101561157e5761154a6000805160206121d183398151915284838151811061153d5761153d611e08565b602002602001015161164f565b61156e60008051602061221183398151915284838151811061153d5761153d611e08565b61157781611e95565b9050611510565b5060005b81518110156115bf576115af6000805160206121f183398151915283838151811061153d5761153d611e08565b6115b881611e95565b9050611582565b5060988390556040805160008152602081018590527f11c24f4ead16507c69ac467fbd5e4eed5fb5c699626d2cc6d66421df253886d5910160405180910390a1505050565b600082815260656020526040808220600101805490849055905190918391839186917fbd79b86ffe0ab8e8776151514217cd7cacd52c909f66475c3af44e129f0b00ff9190a4505050565b6108118282611172565b80356001600160a01b038116811461167057600080fd5b919050565b60008083601f84011261168757600080fd5b5081356001600160401b0381111561169e57600080fd5b6020830191508360208285010111156116b657600080fd5b9250929050565b600080600080600080600060c0888a0312156116d857600080fd5b6116e188611659565b96506020880135955060408801356001600160401b0381111561170357600080fd5b61170f8a828b01611675565b989b979a50986060810135976080820135975060a09091013595509350505050565b60006020828403121561174357600080fd5b81356001600160e01b03198116811461074857600080fd5b60008060008060008060a0878903121561177457600080fd5b61177d87611659565b95506020870135945060408701356001600160401b0381111561179f57600080fd5b6117ab89828a01611675565b979a9699509760608101359660809091013595509350505050565b6000602082840312156117d857600080fd5b5035919050565b634e487b7160e01b600052604160045260246000fd5b604051601f8201601f191681016001600160401b038111828210171561181d5761181d6117df565b604052919050565b600082601f83011261183657600080fd5b81356001600160401b0381111561184f5761184f6117df565b611862601f8201601f19166020016117f5565b81815284602083860101111561187757600080fd5b816020850160208301376000918101602001919091529392505050565b600080600080608085870312156118aa57600080fd5b6118b385611659565b93506118c160208601611659565b92506040850135915060608501356001600160401b038111156118e357600080fd5b6118ef87828801611825565b91505092959194509250565b6000806040838503121561190e57600080fd5b8235915061191e60208401611659565b90509250929050565b60008083601f84011261193957600080fd5b5081356001600160401b0381111561195057600080fd5b6020830191508360208260051b85010111156116b657600080fd5b600080600080600080600080600060c08a8c03121561198957600080fd5b89356001600160401b03808211156119a057600080fd5b6119ac8d838e01611927565b909b50995060208c01359150808211156119c557600080fd5b6119d18d838e01611927565b909950975060408c01359150808211156119ea57600080fd5b506119f78c828d01611927565b9a9d999c50979a969997986060880135976080810135975060a0013595509350505050565b60006001600160401b03821115611a3557611a356117df565b5060051b60200190565b600082601f830112611a5057600080fd5b81356020611a65611a6083611a1c565b6117f5565b82815260059290921b84018101918181019086841115611a8457600080fd5b8286015b84811015611aa657611a9981611659565b8352918301918301611a88565b509695505050505050565b600080600060608486031215611ac657600080fd5b8335925060208401356001600160401b0380821115611ae457600080fd5b611af087838801611a3f565b93506040860135915080821115611b0657600080fd5b50611b1386828701611a3f565b9150509250925092565b60008060008060008060008060a0898b031215611b3957600080fd5b88356001600160401b0380821115611b5057600080fd5b611b5c8c838d01611927565b909a50985060208b0135915080821115611b7557600080fd5b611b818c838d01611927565b909850965060408b0135915080821115611b9a57600080fd5b50611ba78b828c01611927565b999c989b509699959896976060870135966080013595509350505050565b600082601f830112611bd657600080fd5b81356020611be6611a6083611a1c565b82815260059290921b84018101918181019086841115611c0557600080fd5b8286015b84811015611aa65780358352918301918301611c09565b600080600080600060a08688031215611c3857600080fd5b611c4186611659565b9450611c4f60208701611659565b935060408601356001600160401b0380821115611c6b57600080fd5b611c7789838a01611bc5565b94506060880135915080821115611c8d57600080fd5b611c9989838a01611bc5565b93506080880135915080821115611caf57600080fd5b50611cbc88828901611825565b9150509295509295909350565b600080600080600060a08688031215611ce157600080fd5b611cea86611659565b9450611cf860208701611659565b9350604086013592506060860135915060808601356001600160401b03811115611d2157600080fd5b611cbc88828901611825565b81835281816020850137506000828201602090810191909152601f909101601f19169091010190565b60018060a01b038716815285602082015260a060408201526000611d7e60a083018688611d2d565b60608301949094525060800152949350505050565b60018060a01b0385168152836020820152606060408201526000611dbb606083018486611d2d565b9695505050505050565b60208082526023908201527f54696d656c6f636b436f6e74726f6c6c65723a206c656e677468206d69736d616040820152620e8c6d60eb1b606082015260800190565b634e487b7160e01b600052603260045260246000fd5b600060208284031215611e3057600080fd5b61074882611659565b6000808335601e19843603018112611e5057600080fd5b8301803591506001600160401b03821115611e6a57600080fd5b6020019150368190038213156116b657600080fd5b634e487b7160e01b600052601160045260246000fd5b600060018201611ea757611ea7611e7f565b5060010190565b81835260006020808501808196508560051b810191508460005b87811015611f315782840389528135601e19883603018112611ee957600080fd5b870180356001600160401b03811115611f0157600080fd5b803603891315611f1057600080fd5b611f1d8682898501611d2d565b9a87019a9550505090840190600101611ec8565b5091979650505050505050565b60a0808252810188905260008960c08301825b8b811015611f7f576001600160a01b03611f6a84611659565b16825260209283019290910190600101611f51565b5083810360208501528881526001600160fb1b03891115611f9f57600080fd5b8860051b9150818a602083013781810191505060208101600081526020848303016040850152611fd081888a611eae565b6060850196909652505050608001529695505050505050565b60008219821115611ffc57611ffc611e7f565b500190565b60005b8381101561201c578181015183820152602001612004565b83811115610b8b5750506000910152565b7f416363657373436f6e74726f6c3a206163636f756e7420000000000000000000815260008351612065816017850160208801612001565b7001034b99036b4b9b9b4b733903937b6329607d1b6017918401918201528351612096816028840160208801612001565b01602801949350505050565b60208152600082518060208401526120c1816040850160208701612001565b601f01601f19169190910160400192915050565b6020808252602a908201527f54696d656c6f636b436f6e74726f6c6c65723a206f7065726174696f6e206973604082015269206e6f7420726561647960b01b606082015260800190565b8183823760009101908152919050565b6020808252602b908201527f496e697469616c697a61626c653a20636f6e7472616374206973206e6f74206960408201526a6e697469616c697a696e6760a81b606082015260800190565b600081600019048311821515161561219457612194611e7f565b500290565b6000816121a8576121a8611e7f565b50600019019056fe5f58e3a2316349923ce3780f8d587db2d72378aed66a8261c916544fa6846ca5b09aa5aeb3702cfd50b6b62bc4532604938f21248a27a1d5ca736082b6819cc1d8aa0f3194971a2a116679f7c2090f6939c8d4e01a2a8d7e41d55e5351469e63fd643c72710c63c0180259aba6b2d05451e3591a24e58b62239378085726f783a2646970667358221220a9d63baf1a19bec516e2702db8792f09b89f05571e60de51f202561cbade94d664736f6c634300080d0033",
  "immutableReferences": {},
  "source": "// SPDX-License-Identifier: MIT\n\npragma solidity ^0.8.0;\n\nimport  \"@openzeppelin/contracts-upgradeable/governance/TimelockControllerUpgradeable.sol\";\n\ncontract RariTimelockController is TimelockControllerUpgradeable {\n    \n    function __RariTimelockController_init(\n        uint256 minDelay,\n        address[] memory proposers,\n        address[] memory executors\n    ) external initializer {\n        __TimelockController_init(minDelay, proposers, executors);\n    }\n}\n",
  "sourcePath": "/Users/ds/Documents/rarible/governance-contracts/contracts/RariTimelockController.sol",
  "compiler": {
    "name": "solc",
    "version": "0.8.13+commit.abaa5c0e.Emscripten.clang"
  },
  "schemaVersion": "3.4.3",
  "updatedAt": "2022-09-30T13:27:27.235Z",
  "networkType": "ethereum",
  "devdoc": {
    "kind": "dev",
    "methods": {
      "cancel(bytes32)": {
        "details": "Cancel an operation. Requirements: - the caller must have the 'canceller' role."
      },
      "execute(address,uint256,bytes,bytes32,bytes32)": {
        "details": "Execute an (ready) operation containing a single transaction. Emits a {CallExecuted} event. Requirements: - the caller must have the 'executor' role."
      },
      "executeBatch(address[],uint256[],bytes[],bytes32,bytes32)": {
        "details": "Execute an (ready) operation containing a batch of transactions. Emits one {CallExecuted} event per transaction in the batch. Requirements: - the caller must have the 'executor' role."
      },
      "getMinDelay()": {
        "details": "Returns the minimum delay for an operation to become valid. This value can be changed by executing an operation that calls `updateDelay`."
      },
      "getRoleAdmin(bytes32)": {
        "details": "Returns the admin role that controls `role`. See {grantRole} and {revokeRole}. To change a role's admin, use {_setRoleAdmin}."
      },
      "getTimestamp(bytes32)": {
        "details": "Returns the timestamp at with an operation becomes ready (0 for unset operations, 1 for done operations)."
      },
      "grantRole(bytes32,address)": {
        "details": "Grants `role` to `account`. If `account` had not been already granted `role`, emits a {RoleGranted} event. Requirements: - the caller must have ``role``'s admin role. May emit a {RoleGranted} event."
      },
      "hasRole(bytes32,address)": {
        "details": "Returns `true` if `account` has been granted `role`."
      },
      "hashOperation(address,uint256,bytes,bytes32,bytes32)": {
        "details": "Returns the identifier of an operation containing a single transaction."
      },
      "hashOperationBatch(address[],uint256[],bytes[],bytes32,bytes32)": {
        "details": "Returns the identifier of an operation containing a batch of transactions."
      },
      "isOperation(bytes32)": {
        "details": "Returns whether an id correspond to a registered operation. This includes both Pending, Ready and Done operations."
      },
      "isOperationDone(bytes32)": {
        "details": "Returns whether an operation is done or not."
      },
      "isOperationPending(bytes32)": {
        "details": "Returns whether an operation is pending or not."
      },
      "isOperationReady(bytes32)": {
        "details": "Returns whether an operation is ready or not."
      },
      "onERC1155BatchReceived(address,address,uint256[],uint256[],bytes)": {
        "details": "See {IERC1155Receiver-onERC1155BatchReceived}."
      },
      "onERC1155Received(address,address,uint256,uint256,bytes)": {
        "details": "See {IERC1155Receiver-onERC1155Received}."
      },
      "onERC721Received(address,address,uint256,bytes)": {
        "details": "See {IERC721Receiver-onERC721Received}."
      },
      "renounceRole(bytes32,address)": {
        "details": "Revokes `role` from the calling account. Roles are often managed via {grantRole} and {revokeRole}: this function's purpose is to provide a mechanism for accounts to lose their privileges if they are compromised (such as when a trusted device is misplaced). If the calling account had been revoked `role`, emits a {RoleRevoked} event. Requirements: - the caller must be `account`. May emit a {RoleRevoked} event."
      },
      "revokeRole(bytes32,address)": {
        "details": "Revokes `role` from `account`. If `account` had been granted `role`, emits a {RoleRevoked} event. Requirements: - the caller must have ``role``'s admin role. May emit a {RoleRevoked} event."
      },
      "schedule(address,uint256,bytes,bytes32,bytes32,uint256)": {
        "details": "Schedule an operation containing a single transaction. Emits a {CallScheduled} event. Requirements: - the caller must have the 'proposer' role."
      },
      "scheduleBatch(address[],uint256[],bytes[],bytes32,bytes32,uint256)": {
        "details": "Schedule an operation containing a batch of transactions. Emits one {CallScheduled} event per transaction in the batch. Requirements: - the caller must have the 'proposer' role."
      },
      "supportsInterface(bytes4)": {
        "details": "See {IERC165-supportsInterface}."
      },
      "updateDelay(uint256)": {
        "details": "Changes the minimum timelock duration for future operations. Emits a {MinDelayChange} event. Requirements: - the caller must be the timelock itself. This can only be achieved by scheduling and later executing an operation where the timelock is the target and the data is the ABI-encoded call to this function."
      }
    },
    "version": 1
  },
  "userdoc": {
    "kind": "user",
    "methods": {},
    "version": 1
  }
}