{
  "contractName": "RariGovernor",
  "abi": [
    {
      "inputs": [],
      "name": "Empty",
      "type": "error"
    },
    {
      "anonymous": false,
      "inputs": [
        {
          "indexed": false,
          "internalType": "uint8",
          "name": "version",
          "type": "uint8"
        }
      ],
      "name": "Initialized",
      "type": "event"
    },
    {
      "anonymous": false,
      "inputs": [
        {
          "indexed": false,
          "internalType": "uint256",
          "name": "proposalId",
          "type": "uint256"
        }
      ],
      "name": "ProposalCanceled",
      "type": "event"
    },
    {
      "anonymous": false,
      "inputs": [
        {
          "indexed": false,
          "internalType": "uint256",
          "name": "proposalId",
          "type": "uint256"
        },
        {
          "indexed": false,
          "internalType": "address",
          "name": "proposer",
          "type": "address"
        },
        {
          "indexed": false,
          "internalType": "address[]",
          "name": "targets",
          "type": "address[]"
        },
        {
          "indexed": false,
          "internalType": "uint256[]",
          "name": "values",
          "type": "uint256[]"
        },
        {
          "indexed": false,
          "internalType": "string[]",
          "name": "signatures",
          "type": "string[]"
        },
        {
          "indexed": false,
          "internalType": "bytes[]",
          "name": "calldatas",
          "type": "bytes[]"
        },
        {
          "indexed": false,
          "internalType": "uint256",
          "name": "startBlock",
          "type": "uint256"
        },
        {
          "indexed": false,
          "internalType": "uint256",
          "name": "endBlock",
          "type": "uint256"
        },
        {
          "indexed": false,
          "internalType": "string",
          "name": "description",
          "type": "string"
        }
      ],
      "name": "ProposalCreated",
      "type": "event"
    },
    {
      "anonymous": false,
      "inputs": [
        {
          "indexed": false,
          "internalType": "uint256",
          "name": "proposalId",
          "type": "uint256"
        }
      ],
      "name": "ProposalExecuted",
      "type": "event"
    },
    {
      "anonymous": false,
      "inputs": [
        {
          "indexed": false,
          "internalType": "uint256",
          "name": "proposalId",
          "type": "uint256"
        },
        {
          "indexed": false,
          "internalType": "uint256",
          "name": "eta",
          "type": "uint256"
        }
      ],
      "name": "ProposalQueued",
      "type": "event"
    },
    {
      "anonymous": false,
      "inputs": [
        {
          "indexed": false,
          "internalType": "uint256",
          "name": "oldQuorumNumerator",
          "type": "uint256"
        },
        {
          "indexed": false,
          "internalType": "uint256",
          "name": "newQuorumNumerator",
          "type": "uint256"
        }
      ],
      "name": "QuorumNumeratorUpdated",
      "type": "event"
    },
    {
      "anonymous": false,
      "inputs": [
        {
          "indexed": false,
          "internalType": "address",
          "name": "oldTimelock",
          "type": "address"
        },
        {
          "indexed": false,
          "internalType": "address",
          "name": "newTimelock",
          "type": "address"
        }
      ],
      "name": "TimelockChange",
      "type": "event"
    },
    {
      "anonymous": false,
      "inputs": [
        {
          "indexed": true,
          "internalType": "address",
          "name": "voter",
          "type": "address"
        },
        {
          "indexed": false,
          "internalType": "uint256",
          "name": "proposalId",
          "type": "uint256"
        },
        {
          "indexed": false,
          "internalType": "uint8",
          "name": "support",
          "type": "uint8"
        },
        {
          "indexed": false,
          "internalType": "uint256",
          "name": "weight",
          "type": "uint256"
        },
        {
          "indexed": false,
          "internalType": "string",
          "name": "reason",
          "type": "string"
        }
      ],
      "name": "VoteCast",
      "type": "event"
    },
    {
      "anonymous": false,
      "inputs": [
        {
          "indexed": true,
          "internalType": "address",
          "name": "voter",
          "type": "address"
        },
        {
          "indexed": false,
          "internalType": "uint256",
          "name": "proposalId",
          "type": "uint256"
        },
        {
          "indexed": false,
          "internalType": "uint8",
          "name": "support",
          "type": "uint8"
        },
        {
          "indexed": false,
          "internalType": "uint256",
          "name": "weight",
          "type": "uint256"
        },
        {
          "indexed": false,
          "internalType": "string",
          "name": "reason",
          "type": "string"
        },
        {
          "indexed": false,
          "internalType": "bytes",
          "name": "params",
          "type": "bytes"
        }
      ],
      "name": "VoteCastWithParams",
      "type": "event"
    },
    {
      "inputs": [],
      "name": "BALLOT_TYPEHASH",
      "outputs": [
        {
          "internalType": "bytes32",
          "name": "",
          "type": "bytes32"
        }
      ],
      "stateMutability": "view",
      "type": "function",
      "constant": true
    },
    {
      "inputs": [],
      "name": "COUNTING_MODE",
      "outputs": [
        {
          "internalType": "string",
          "name": "",
          "type": "string"
        }
      ],
      "stateMutability": "pure",
      "type": "function",
      "constant": true
    },
    {
      "inputs": [],
      "name": "EXTENDED_BALLOT_TYPEHASH",
      "outputs": [
        {
          "internalType": "bytes32",
          "name": "",
          "type": "bytes32"
        }
      ],
      "stateMutability": "view",
      "type": "function",
      "constant": true
    },
    {
      "inputs": [
        {
          "internalType": "uint256",
          "name": "proposalId",
          "type": "uint256"
        }
      ],
      "name": "cancel",
      "outputs": [],
      "stateMutability": "nonpayable",
      "type": "function"
    },
    {
      "inputs": [
        {
          "internalType": "uint256",
          "name": "proposalId",
          "type": "uint256"
        },
        {
          "internalType": "uint8",
          "name": "support",
          "type": "uint8"
        }
      ],
      "name": "castVote",
      "outputs": [
        {
          "internalType": "uint256",
          "name": "",
          "type": "uint256"
        }
      ],
      "stateMutability": "nonpayable",
      "type": "function"
    },
    {
      "inputs": [
        {
          "internalType": "uint256",
          "name": "proposalId",
          "type": "uint256"
        },
        {
          "internalType": "uint8",
          "name": "support",
          "type": "uint8"
        },
        {
          "internalType": "uint8",
          "name": "v",
          "type": "uint8"
        },
        {
          "internalType": "bytes32",
          "name": "r",
          "type": "bytes32"
        },
        {
          "internalType": "bytes32",
          "name": "s",
          "type": "bytes32"
        }
      ],
      "name": "castVoteBySig",
      "outputs": [
        {
          "internalType": "uint256",
          "name": "",
          "type": "uint256"
        }
      ],
      "stateMutability": "nonpayable",
      "type": "function"
    },
    {
      "inputs": [
        {
          "internalType": "uint256",
          "name": "proposalId",
          "type": "uint256"
        },
        {
          "internalType": "uint8",
          "name": "support",
          "type": "uint8"
        },
        {
          "internalType": "string",
          "name": "reason",
          "type": "string"
        }
      ],
      "name": "castVoteWithReason",
      "outputs": [
        {
          "internalType": "uint256",
          "name": "",
          "type": "uint256"
        }
      ],
      "stateMutability": "nonpayable",
      "type": "function"
    },
    {
      "inputs": [
        {
          "internalType": "uint256",
          "name": "proposalId",
          "type": "uint256"
        },
        {
          "internalType": "uint8",
          "name": "support",
          "type": "uint8"
        },
        {
          "internalType": "string",
          "name": "reason",
          "type": "string"
        },
        {
          "internalType": "bytes",
          "name": "params",
          "type": "bytes"
        }
      ],
      "name": "castVoteWithReasonAndParams",
      "outputs": [
        {
          "internalType": "uint256",
          "name": "",
          "type": "uint256"
        }
      ],
      "stateMutability": "nonpayable",
      "type": "function"
    },
    {
      "inputs": [
        {
          "internalType": "uint256",
          "name": "proposalId",
          "type": "uint256"
        },
        {
          "internalType": "uint8",
          "name": "support",
          "type": "uint8"
        },
        {
          "internalType": "string",
          "name": "reason",
          "type": "string"
        },
        {
          "internalType": "bytes",
          "name": "params",
          "type": "bytes"
        },
        {
          "internalType": "uint8",
          "name": "v",
          "type": "uint8"
        },
        {
          "internalType": "bytes32",
          "name": "r",
          "type": "bytes32"
        },
        {
          "internalType": "bytes32",
          "name": "s",
          "type": "bytes32"
        }
      ],
      "name": "castVoteWithReasonAndParamsBySig",
      "outputs": [
        {
          "internalType": "uint256",
          "name": "",
          "type": "uint256"
        }
      ],
      "stateMutability": "nonpayable",
      "type": "function"
    },
    {
      "inputs": [
        {
          "internalType": "address[]",
          "name": "targets",
          "type": "address[]"
        },
        {
          "internalType": "uint256[]",
          "name": "values",
          "type": "uint256[]"
        },
        {
          "internalType": "bytes[]",
          "name": "calldatas",
          "type": "bytes[]"
        },
        {
          "internalType": "bytes32",
          "name": "descriptionHash",
          "type": "bytes32"
        }
      ],
      "name": "execute",
      "outputs": [
        {
          "internalType": "uint256",
          "name": "",
          "type": "uint256"
        }
      ],
      "stateMutability": "payable",
      "type": "function",
      "payable": true
    },
    {
      "inputs": [
        {
          "internalType": "uint256",
          "name": "proposalId",
          "type": "uint256"
        }
      ],
      "name": "execute",
      "outputs": [],
      "stateMutability": "payable",
      "type": "function",
      "payable": true
    },
    {
      "inputs": [
        {
          "internalType": "uint256",
          "name": "proposalId",
          "type": "uint256"
        }
      ],
      "name": "getActions",
      "outputs": [
        {
          "internalType": "address[]",
          "name": "targets",
          "type": "address[]"
        },
        {
          "internalType": "uint256[]",
          "name": "values",
          "type": "uint256[]"
        },
        {
          "internalType": "string[]",
          "name": "signatures",
          "type": "string[]"
        },
        {
          "internalType": "bytes[]",
          "name": "calldatas",
          "type": "bytes[]"
        }
      ],
      "stateMutability": "view",
      "type": "function",
      "constant": true
    },
    {
      "inputs": [
        {
          "internalType": "uint256",
          "name": "proposalId",
          "type": "uint256"
        },
        {
          "internalType": "address",
          "name": "voter",
          "type": "address"
        }
      ],
      "name": "getReceipt",
      "outputs": [
        {
          "components": [
            {
              "internalType": "bool",
              "name": "hasVoted",
              "type": "bool"
            },
            {
              "internalType": "uint8",
              "name": "support",
              "type": "uint8"
            },
            {
              "internalType": "uint96",
              "name": "votes",
              "type": "uint96"
            }
          ],
          "internalType": "struct IGovernorCompatibilityBravoUpgradeable.Receipt",
          "name": "",
          "type": "tuple"
        }
      ],
      "stateMutability": "view",
      "type": "function",
      "constant": true
    },
    {
      "inputs": [
        {
          "internalType": "address",
          "name": "account",
          "type": "address"
        },
        {
          "internalType": "uint256",
          "name": "blockNumber",
          "type": "uint256"
        },
        {
          "internalType": "bytes",
          "name": "params",
          "type": "bytes"
        }
      ],
      "name": "getVotesWithParams",
      "outputs": [
        {
          "internalType": "uint256",
          "name": "",
          "type": "uint256"
        }
      ],
      "stateMutability": "view",
      "type": "function",
      "constant": true
    },
    {
      "inputs": [
        {
          "internalType": "uint256",
          "name": "proposalId",
          "type": "uint256"
        },
        {
          "internalType": "address",
          "name": "account",
          "type": "address"
        }
      ],
      "name": "hasVoted",
      "outputs": [
        {
          "internalType": "bool",
          "name": "",
          "type": "bool"
        }
      ],
      "stateMutability": "view",
      "type": "function",
      "constant": true
    },
    {
      "inputs": [
        {
          "internalType": "address[]",
          "name": "targets",
          "type": "address[]"
        },
        {
          "internalType": "uint256[]",
          "name": "values",
          "type": "uint256[]"
        },
        {
          "internalType": "bytes[]",
          "name": "calldatas",
          "type": "bytes[]"
        },
        {
          "internalType": "bytes32",
          "name": "descriptionHash",
          "type": "bytes32"
        }
      ],
      "name": "hashProposal",
      "outputs": [
        {
          "internalType": "uint256",
          "name": "",
          "type": "uint256"
        }
      ],
      "stateMutability": "pure",
      "type": "function",
      "constant": true
    },
    {
      "inputs": [],
      "name": "name",
      "outputs": [
        {
          "internalType": "string",
          "name": "",
          "type": "string"
        }
      ],
      "stateMutability": "view",
      "type": "function",
      "constant": true
    },
    {
      "inputs": [
        {
          "internalType": "address",
          "name": "",
          "type": "address"
        },
        {
          "internalType": "address",
          "name": "",
          "type": "address"
        },
        {
          "internalType": "uint256[]",
          "name": "",
          "type": "uint256[]"
        },
        {
          "internalType": "uint256[]",
          "name": "",
          "type": "uint256[]"
        },
        {
          "internalType": "bytes",
          "name": "",
          "type": "bytes"
        }
      ],
      "name": "onERC1155BatchReceived",
      "outputs": [
        {
          "internalType": "bytes4",
          "name": "",
          "type": "bytes4"
        }
      ],
      "stateMutability": "nonpayable",
      "type": "function"
    },
    {
      "inputs": [
        {
          "internalType": "address",
          "name": "",
          "type": "address"
        },
        {
          "internalType": "address",
          "name": "",
          "type": "address"
        },
        {
          "internalType": "uint256",
          "name": "",
          "type": "uint256"
        },
        {
          "internalType": "uint256",
          "name": "",
          "type": "uint256"
        },
        {
          "internalType": "bytes",
          "name": "",
          "type": "bytes"
        }
      ],
      "name": "onERC1155Received",
      "outputs": [
        {
          "internalType": "bytes4",
          "name": "",
          "type": "bytes4"
        }
      ],
      "stateMutability": "nonpayable",
      "type": "function"
    },
    {
      "inputs": [
        {
          "internalType": "address",
          "name": "",
          "type": "address"
        },
        {
          "internalType": "address",
          "name": "",
          "type": "address"
        },
        {
          "internalType": "uint256",
          "name": "",
          "type": "uint256"
        },
        {
          "internalType": "bytes",
          "name": "",
          "type": "bytes"
        }
      ],
      "name": "onERC721Received",
      "outputs": [
        {
          "internalType": "bytes4",
          "name": "",
          "type": "bytes4"
        }
      ],
      "stateMutability": "nonpayable",
      "type": "function"
    },
    {
      "inputs": [
        {
          "internalType": "uint256",
          "name": "proposalId",
          "type": "uint256"
        }
      ],
      "name": "proposalDeadline",
      "outputs": [
        {
          "internalType": "uint256",
          "name": "",
          "type": "uint256"
        }
      ],
      "stateMutability": "view",
      "type": "function",
      "constant": true
    },
    {
      "inputs": [
        {
          "internalType": "uint256",
          "name": "proposalId",
          "type": "uint256"
        }
      ],
      "name": "proposalEta",
      "outputs": [
        {
          "internalType": "uint256",
          "name": "",
          "type": "uint256"
        }
      ],
      "stateMutability": "view",
      "type": "function",
      "constant": true
    },
    {
      "inputs": [
        {
          "internalType": "uint256",
          "name": "proposalId",
          "type": "uint256"
        }
      ],
      "name": "proposalSnapshot",
      "outputs": [
        {
          "internalType": "uint256",
          "name": "",
          "type": "uint256"
        }
      ],
      "stateMutability": "view",
      "type": "function",
      "constant": true
    },
    {
      "inputs": [
        {
          "internalType": "uint256",
          "name": "proposalId",
          "type": "uint256"
        }
      ],
      "name": "proposals",
      "outputs": [
        {
          "internalType": "uint256",
          "name": "id",
          "type": "uint256"
        },
        {
          "internalType": "address",
          "name": "proposer",
          "type": "address"
        },
        {
          "internalType": "uint256",
          "name": "eta",
          "type": "uint256"
        },
        {
          "internalType": "uint256",
          "name": "startBlock",
          "type": "uint256"
        },
        {
          "internalType": "uint256",
          "name": "endBlock",
          "type": "uint256"
        },
        {
          "internalType": "uint256",
          "name": "forVotes",
          "type": "uint256"
        },
        {
          "internalType": "uint256",
          "name": "againstVotes",
          "type": "uint256"
        },
        {
          "internalType": "uint256",
          "name": "abstainVotes",
          "type": "uint256"
        },
        {
          "internalType": "bool",
          "name": "canceled",
          "type": "bool"
        },
        {
          "internalType": "bool",
          "name": "executed",
          "type": "bool"
        }
      ],
      "stateMutability": "view",
      "type": "function",
      "constant": true
    },
    {
      "inputs": [
        {
          "internalType": "address[]",
          "name": "targets",
          "type": "address[]"
        },
        {
          "internalType": "uint256[]",
          "name": "values",
          "type": "uint256[]"
        },
        {
          "internalType": "bytes[]",
          "name": "calldatas",
          "type": "bytes[]"
        },
        {
          "internalType": "bytes32",
          "name": "descriptionHash",
          "type": "bytes32"
        }
      ],
      "name": "queue",
      "outputs": [
        {
          "internalType": "uint256",
          "name": "",
          "type": "uint256"
        }
      ],
      "stateMutability": "nonpayable",
      "type": "function"
    },
    {
      "inputs": [
        {
          "internalType": "uint256",
          "name": "proposalId",
          "type": "uint256"
        }
      ],
      "name": "queue",
      "outputs": [],
      "stateMutability": "nonpayable",
      "type": "function"
    },
    {
      "inputs": [],
      "name": "quorumDenominator",
      "outputs": [
        {
          "internalType": "uint256",
          "name": "",
          "type": "uint256"
        }
      ],
      "stateMutability": "view",
      "type": "function",
      "constant": true
    },
    {
      "inputs": [
        {
          "internalType": "uint256",
          "name": "blockNumber",
          "type": "uint256"
        }
      ],
      "name": "quorumNumerator",
      "outputs": [
        {
          "internalType": "uint256",
          "name": "",
          "type": "uint256"
        }
      ],
      "stateMutability": "view",
      "type": "function",
      "constant": true
    },
    {
      "inputs": [],
      "name": "quorumNumerator",
      "outputs": [
        {
          "internalType": "uint256",
          "name": "",
          "type": "uint256"
        }
      ],
      "stateMutability": "view",
      "type": "function",
      "constant": true
    },
    {
      "inputs": [],
      "name": "quorumVotes",
      "outputs": [
        {
          "internalType": "uint256",
          "name": "",
          "type": "uint256"
        }
      ],
      "stateMutability": "view",
      "type": "function",
      "constant": true
    },
    {
      "inputs": [
        {
          "internalType": "address",
          "name": "target",
          "type": "address"
        },
        {
          "internalType": "uint256",
          "name": "value",
          "type": "uint256"
        },
        {
          "internalType": "bytes",
          "name": "data",
          "type": "bytes"
        }
      ],
      "name": "relay",
      "outputs": [],
      "stateMutability": "nonpayable",
      "type": "function"
    },
    {
      "inputs": [],
      "name": "timelock",
      "outputs": [
        {
          "internalType": "address",
          "name": "",
          "type": "address"
        }
      ],
      "stateMutability": "view",
      "type": "function",
      "constant": true
    },
    {
      "inputs": [],
      "name": "token",
      "outputs": [
        {
          "internalType": "contract IVotesUpgradeable",
          "name": "",
          "type": "address"
        }
      ],
      "stateMutability": "view",
      "type": "function",
      "constant": true
    },
    {
      "inputs": [
        {
          "internalType": "uint256",
          "name": "newQuorumNumerator",
          "type": "uint256"
        }
      ],
      "name": "updateQuorumNumerator",
      "outputs": [],
      "stateMutability": "nonpayable",
      "type": "function"
    },
    {
      "inputs": [
        {
          "internalType": "contract TimelockControllerUpgradeable",
          "name": "newTimelock",
          "type": "address"
        }
      ],
      "name": "updateTimelock",
      "outputs": [],
      "stateMutability": "nonpayable",
      "type": "function"
    },
    {
      "inputs": [],
      "name": "version",
      "outputs": [
        {
          "internalType": "string",
          "name": "",
          "type": "string"
        }
      ],
      "stateMutability": "view",
      "type": "function",
      "constant": true
    },
    {
      "stateMutability": "payable",
      "type": "receive",
      "payable": true
    },
    {
      "inputs": [
        {
          "internalType": "contract IVotesUpgradeable",
          "name": "tokenAddress",
          "type": "address"
        },
        {
          "internalType": "contract TimelockControllerUpgradeable",
          "name": "timelockAddress",
          "type": "address"
        }
      ],
      "name": "__RariGovernor_init",
      "outputs": [],
      "stateMutability": "nonpayable",
      "type": "function"
    },
    {
      "inputs": [],
      "name": "votingDelay",
      "outputs": [
        {
          "internalType": "uint256",
          "name": "",
          "type": "uint256"
        }
      ],
      "stateMutability": "view",
      "type": "function",
      "constant": true
    },
    {
      "inputs": [],
      "name": "votingPeriod",
      "outputs": [
        {
          "internalType": "uint256",
          "name": "",
          "type": "uint256"
        }
      ],
      "stateMutability": "pure",
      "type": "function",
      "constant": true
    },
    {
      "inputs": [],
      "name": "proposalThreshold",
      "outputs": [
        {
          "internalType": "uint256",
          "name": "",
          "type": "uint256"
        }
      ],
      "stateMutability": "pure",
      "type": "function",
      "constant": true
    },
    {
      "inputs": [
        {
          "internalType": "uint256",
          "name": "blockNumber",
          "type": "uint256"
        }
      ],
      "name": "quorum",
      "outputs": [
        {
          "internalType": "uint256",
          "name": "",
          "type": "uint256"
        }
      ],
      "stateMutability": "view",
      "type": "function",
      "constant": true
    },
    {
      "inputs": [
        {
          "internalType": "address",
          "name": "account",
          "type": "address"
        },
        {
          "internalType": "uint256",
          "name": "blockNumber",
          "type": "uint256"
        }
      ],
      "name": "getVotes",
      "outputs": [
        {
          "internalType": "uint256",
          "name": "",
          "type": "uint256"
        }
      ],
      "stateMutability": "view",
      "type": "function",
      "constant": true
    },
    {
      "inputs": [
        {
          "internalType": "uint256",
          "name": "proposalId",
          "type": "uint256"
        }
      ],
      "name": "state",
      "outputs": [
        {
          "internalType": "enum IGovernorUpgradeable.ProposalState",
          "name": "",
          "type": "uint8"
        }
      ],
      "stateMutability": "view",
      "type": "function",
      "constant": true
    },
    {
      "inputs": [
        {
          "internalType": "address[]",
          "name": "targets",
          "type": "address[]"
        },
        {
          "internalType": "uint256[]",
          "name": "values",
          "type": "uint256[]"
        },
        {
          "internalType": "bytes[]",
          "name": "calldatas",
          "type": "bytes[]"
        },
        {
          "internalType": "string",
          "name": "description",
          "type": "string"
        }
      ],
      "name": "propose",
      "outputs": [
        {
          "internalType": "uint256",
          "name": "",
          "type": "uint256"
        }
      ],
      "stateMutability": "nonpayable",
      "type": "function"
    },
    {
      "inputs": [
        {
          "internalType": "address[]",
          "name": "targets",
          "type": "address[]"
        },
        {
          "internalType": "uint256[]",
          "name": "values",
          "type": "uint256[]"
        },
        {
          "internalType": "string[]",
          "name": "signatures",
          "type": "string[]"
        },
        {
          "internalType": "bytes[]",
          "name": "calldatas",
          "type": "bytes[]"
        },
        {
          "internalType": "string",
          "name": "description",
          "type": "string"
        }
      ],
      "name": "propose",
      "outputs": [
        {
          "internalType": "uint256",
          "name": "",
          "type": "uint256"
        }
      ],
      "stateMutability": "nonpayable",
      "type": "function"
    },
    {
      "inputs": [
        {
          "internalType": "bytes4",
          "name": "interfaceId",
          "type": "bytes4"
        }
      ],
      "name": "supportsInterface",
      "outputs": [
        {
          "internalType": "bool",
          "name": "",
          "type": "bool"
        }
      ],
      "stateMutability": "view",
      "type": "function",
      "constant": true
    }
  ],
  "bytecode": "0x608060405234801561001057600080fd5b50615189806100206000396000f3fe6080604052600436106102815760003560e01c80637d5e81e21161014f578063c59057e4116100c1578063e23a9a521161007a578063e23a9a52146108b2578063eb9019d41461097d578063f23a6e611461099d578063f8ce560a146109c9578063fc0c546a146109e9578063fe0d94c114610a0a57600080fd5b8063c59057e4146107a5578063d33219b4146107c5578063da95691a146107f8578063dd4e2ba514610818578063ddf0b0091461085e578063deaaa7cc1461087e57600080fd5b8063a890c91011610113578063a890c910146106e5578063ab58fb8e14610705578063b58131b014610725578063bc197c8114610739578063c01f9e3714610765578063c28bc2fa1461078557600080fd5b80637d5e81e21461065c57806397c3d3341461067c5780639952d6b7146106905780639a802a6d146106b0578063a7713a70146106d057600080fd5b80632fe3e261116101f357806343859632116101ac578063438596321461056757806354fd4d50146105b257806356781388146105dc5780635f398a14146105fc57806360c4247f1461061c5780637b3c71d31461063c57600080fd5b80632fe3e26114610481578063328dd982146104b55780633932abb1146104e55780633bccf4fd146104fa5780633e4f49e61461051a57806340e58ee51461054757600080fd5b806306fdde031161024557806306fdde03146103b3578063150b7a02146103d5578063160cbed71461041957806324bc1a64146104395780632656227d1461044e5780632d63f6931461046157600080fd5b8063013cf08b146102a957806301ffc9a71461032457806302a251a314610354578063034201811461037357806306f3f9e61461039357600080fd5b366102a4573061028f610a1d565b6001600160a01b0316146102a257600080fd5b005b600080fd5b3480156102b557600080fd5b506102c96102c43660046140ea565b610a37565b604080519a8b526001600160a01b0390991660208b0152978901969096526060880194909452608087019290925260a086015260c085015260e084015215156101008301521515610120820152610140015b60405180910390f35b34801561033057600080fd5b5061034461033f366004614103565b610ae1565b604051901515815260200161031b565b34801561036057600080fd5b506103e85b60405190815260200161031b565b34801561037f57600080fd5b5061036561038e366004614239565b610af2565b34801561039f57600080fd5b506102a26103ae3660046140ea565b610bea565b3480156103bf57600080fd5b506103c8610c7e565b60405161031b919061433b565b3480156103e157600080fd5b506104006103f0366004614363565b630a85bd0160e11b949350505050565b6040516001600160e01b0319909116815260200161031b565b34801561042557600080fd5b5061036561043436600461453f565b610d11565b34801561044557600080fd5b50610365610f16565b61036561045c36600461453f565b610f26565b34801561046d57600080fd5b5061036561047c3660046140ea565b611019565b34801561048d57600080fd5b506103657fb3b3f3b703cd84ce352197dcff232b1b5d3cfb2025ce47cf04742d0651f1af8881565b3480156104c157600080fd5b506104d56104d03660046140ea565b611051565b60405161031b9493929190614694565b3480156104f157600080fd5b5061012c610365565b34801561050657600080fd5b506103656105153660046146e1565b6112e3565b34801561052657600080fd5b5061053a6105353660046140ea565b611359565b60405161031b9190614745565b34801561055357600080fd5b506102a26105623660046140ea565b611364565b34801561057357600080fd5b5061034461058236600461476d565b6000828152610161602090815260408083206001600160a01b038516845260080190915290205460ff1692915050565b3480156105be57600080fd5b506040805180820190915260018152603160f81b60208201526103c8565b3480156105e857600080fd5b506103656105f736600461479d565b611677565b34801561060857600080fd5b506103656106173660046147c9565b6116a0565b34801561062857600080fd5b506103656106373660046140ea565b6116ea565b34801561064857600080fd5b5061036561065736600461484c565b611786565b34801561066857600080fd5b506103656106773660046148a5565b6117d8565b34801561068857600080fd5b506064610365565b34801561069c57600080fd5b506102a26106ab366004614945565b6117ef565b3480156106bc57600080fd5b506103656106cb366004614973565b61194a565b3480156106dc57600080fd5b50610365611961565b3480156106f157600080fd5b506102a26107003660046149cb565b611980565b34801561071157600080fd5b506103656107203660046140ea565b611a08565b34801561073157600080fd5b506000610365565b34801561074557600080fd5b506104006107543660046149e8565b63bc197c8160e01b95945050505050565b34801561077157600080fd5b506103656107803660046140ea565b611aa4565b34801561079157600080fd5b506102a26107a0366004614a7b565b611ad4565b3480156107b157600080fd5b506103656107c036600461453f565b611b9c565b3480156107d157600080fd5b506101f8546001600160a01b03165b6040516001600160a01b03909116815260200161031b565b34801561080457600080fd5b50610365610813366004614b3d565b611bd6565b34801561082457600080fd5b5060408051808201909152601a81527f737570706f72743d627261766f2671756f72756d3d627261766f00000000000060208201526103c8565b34801561086a57600080fd5b506102a26108793660046140ea565b611bfb565b34801561088a57600080fd5b506103657f150214d74d59b7d1e90c73fc22ef3d991dd0a76b046543d4d80ab92d2a50328f81565b3480156108be57600080fd5b5061094d6108cd36600461476d565b6040805160608101825260008082526020820181905291810191909152506000918252610161602090815260408084206001600160a01b0393909316845260089092018152918190208151606081018352905460ff8082161515835261010082041693820193909352620100009092046001600160601b03169082015290565b6040805182511515815260208084015160ff1690820152918101516001600160601b03169082015260600161031b565b34801561098957600080fd5b50610365610998366004614bde565b611e6a565b3480156109a957600080fd5b506104006109b8366004614c0a565b63f23a6e6160e01b95945050505050565b3480156109d557600080fd5b506103656109e43660046140ea565b611e76565b3480156109f557600080fd5b50610193546107e0906001600160a01b031681565b6102a2610a183660046140ea565b611e81565b6000610a326101f8546001600160a01b031690565b905090565b8060008080808080808080610a4b8a611a08565b9750610a568b611019565b9650610a618b611aa4565b60008c81526101616020526040812080546005820154600683015460078401546001600160a01b039093169e50949a509850929650919450610aa28d611359565b90506002816007811115610ab857610ab861472f565b1493506007816007811115610acf57610acf61472f565b14925050509193959799509193959799565b6000610aec826120f0565b92915050565b600080610b96610b8e7fb3b3f3b703cd84ce352197dcff232b1b5d3cfb2025ce47cf04742d0651f1af888c8c8c8c604051610b2e929190614c72565b60405180910390208b80519060200120604051602001610b73959493929190948552602085019390935260ff9190911660408401526060830152608082015260a00190565b60405160208183030381529060405280519060200120612115565b868686612163565b9050610bdc8a828b8b8b8080601f0160208091040260200160405190810160405280939291908181526020018383808284376000920191909152508d9250612181915050565b9a9950505050505050505050565b610bf2610a1d565b6001600160a01b0316336001600160a01b031614610c2b5760405162461bcd60e51b8152600401610c2290614c82565b60405180910390fd5b30610c34610a1d565b6001600160a01b031614610c725760008036604051610c54929190614c72565b604051809103902090505b80610c6b6101316122e6565b03610c5f57505b610c7b81612365565b50565b606061012f8054610c8e90614cb9565b80601f0160208091040260200160405190810160405280929190818152602001828054610cba90614cb9565b8015610d075780601f10610cdc57610100808354040283529160200191610d07565b820191906000526020600020905b815481529060010190602001808311610cea57829003601f168201915b5050505050905090565b600080610d2086868686611b9c565b90506004610d2d82611359565b6007811115610d3e57610d3e61472f565b14610d5b5760405162461bcd60e51b8152600401610c2290614cf3565b6101f8546040805163793d064960e11b815290516000926001600160a01b03169163f27a0c929160048083019260209291908290030181865afa158015610da6573d6000803e3d6000fd5b505050506040513d601f19601f82011682018060405250810190610dca9190614d34565b6101f85460405163b1c5f42760e01b81529192506001600160a01b03169063b1c5f42790610e05908a908a908a906000908b90600401614d4d565b602060405180830381865afa158015610e22573d6000803e3d6000fd5b505050506040513d601f19601f82011682018060405250810190610e469190614d34565b60008381526101f96020526040808220929092556101f85491516308f2a0bb60e41b81526001600160a01b0390921691638f2a0bb091610e93918b918b918b91908b908990600401614d9b565b600060405180830381600087803b158015610ead57600080fd5b505af1158015610ec1573d6000803e3d6000fd5b505050507f9a2e42fd6722813d69113e7d0079d3d940171428df7373df9c7f7617cfda2892828242610ef39190614e09565b604080519283526020830191909152015b60405180910390a15095945050505050565b6000610a326109e4600143614e21565b600080610f3586868686611b9c565b90506000610f4282611359565b90506004816007811115610f5857610f5861472f565b1480610f7557506005816007811115610f7357610f7361472f565b145b610f915760405162461bcd60e51b8152600401610c2290614cf3565b6000828152610130602052604090819020600201805460ff19166001179055517f712ae1383f79ac853f8d882153778e0260ef8f03b504e2866e0593e04d2b291f90610fe09084815260200190565b60405180910390a1610ff582888888886124b5565b6110028288888888612557565b61100f8288888888612564565b5095945050505050565b6000818152610130602090815260408083208151928301909152546001600160401b0316908190525b6001600160401b031692915050565b60608060608060006101616000878152602001908152602001600020905080600101816002018260030183600401838054806020026020016040519081016040528092919081815260200182805480156110d457602002820191906000526020600020905b81546001600160a01b031681526001909101906020018083116110b6575b505050505093508280548060200260200160405190810160405280929190818152602001828054801561112657602002820191906000526020600020905b815481526020019060010190808311611112575b5050505050925081805480602002602001604051908101604052809291908181526020016000905b828210156111fa57838290600052602060002001805461116d90614cb9565b80601f016020809104026020016040519081016040528092919081815260200182805461119990614cb9565b80156111e65780601f106111bb576101008083540402835291602001916111e6565b820191906000526020600020905b8154815290600101906020018083116111c957829003601f168201915b50505050508152602001906001019061114e565b50505050915080805480602002602001604051908101604052809291908181526020016000905b828210156112cd57838290600052602060002001805461124090614cb9565b80601f016020809104026020016040519081016040528092919081815260200182805461126c90614cb9565b80156112b95780601f1061128e576101008083540402835291602001916112b9565b820191906000526020600020905b81548152906001019060200180831161129c57829003601f168201915b505050505081526020019060010190611221565b5050505090509450945094509450509193509193565b604080517f150214d74d59b7d1e90c73fc22ef3d991dd0a76b046543d4d80ab92d2a50328f602082015290810186905260ff85166060820152600090819061133190610b8e90608001610b73565b905061134e8782886040518060200160405280600081525061259f565b979650505050505050565b6000610aec826125c2565b60008181526101616020526040902080546001600160a01b0316336001600160a01b031614806113ad5750600081546113ab906001600160a01b0316610998600143614e21565b105b6114095760405162461bcd60e51b815260206004820152602760248201527f476f7665726e6f72427261766f3a2070726f706f7365722061626f76652074686044820152661c995cda1bdb1960ca1b6064820152608401610c22565b6116728160010180548060200260200160405190810160405280929190818152602001828054801561146457602002820191906000526020600020905b81546001600160a01b03168152600190910190602001808311611446575b5050505050826002018054806020026020016040519081016040528092919081815260200182805480156114b757602002820191906000526020600020905b8154815260200190600101908083116114a3575b505050505061166884600301805480602002602001604051908101604052809291908181526020016000905b8282101561158f57838290600052602060002001805461150290614cb9565b80601f016020809104026020016040519081016040528092919081815260200182805461152e90614cb9565b801561157b5780601f106115505761010080835404028352916020019161157b565b820191906000526020600020905b81548152906001019060200180831161155e57829003601f168201915b5050505050815260200190600101906114e3565b50505060048701805460408051602080840282018101909252828152935060009084015b8282101561165f5783829060005260206000200180546115d290614cb9565b80601f01602080910402602001604051908101604052809291908181526020018280546115fe90614cb9565b801561164b5780601f106116205761010080835404028352916020019161164b565b820191906000526020600020905b81548152906001019060200180831161162e57829003601f168201915b5050505050815260200190600101906115b3565b5050505061270f565b8460090154612841565b505050565b6000803390506116988482856040518060200160405280600081525061259f565b949350505050565b60008033905061134e87828888888080601f0160208091040260200160405190810160405280939291908181526020018383808284376000920191909152508a9250612181915050565b6101c7546000908082036117035750506101c654919050565b60006101c7611713600184614e21565b8154811061172357611723614e38565b60009182526020918290206040805180820190915291015463ffffffff81168083526401000000009091046001600160e01b0316928201929092529150841061177a57602001516001600160e01b03169392505050565b6116986101c78561284f565b6000803390506117ce86828787878080601f01602080910402602001604051908101604052809392919081815260200183838082843760009201919091525061259f92505050565b9695505050505050565b60006117e68585858561295e565b95945050505050565b600054610100900460ff161580801561180f5750600054600160ff909116105b806118295750303b158015611829575060005460ff166001145b61188c5760405162461bcd60e51b815260206004820152602e60248201527f496e697469616c697a61626c653a20636f6e747261637420697320616c72656160448201526d191e481a5b9a5d1a585b1a5e995960921b6064820152608401610c22565b6000805460ff1916600117905580156118af576000805461ff0019166101001790555b6118dc6040518060400160405280600c81526020016b2930b934a3b7bb32b93737b960a11b8152506129c6565b6118e4612a1d565b6118ed83612a46565b6118f76004612a76565b61190082612aa6565b8015611672576000805461ff0019169055604051600181527f7f26b83ff96e1f2b6a682f133852f6798a09c465da95921460cefb38474024989060200160405180910390a1505050565b6000611957848484612ad6565b90505b9392505050565b6101c7546000901561197857610a326101c7612b4d565b506101c65490565b611988610a1d565b6001600160a01b0316336001600160a01b0316146119b85760405162461bcd60e51b8152600401610c2290614c82565b306119c1610a1d565b6001600160a01b0316146119ff57600080366040516119e1929190614c72565b604051809103902090505b806119f86101316122e6565b036119ec57505b610c7b81612ba9565b6101f85460008281526101f9602052604080822054905163d45c443560e01b81526004810191909152909182916001600160a01b039091169063d45c443590602401602060405180830381865afa158015611a67573d6000803e3d6000fd5b505050506040513d601f19601f82011682018060405250810190611a8b9190614d34565b905080600114611a9b578061195a565b60009392505050565b6000818152610130602090815260408083208151928301909152600101546001600160401b031690819052611042565b611adc610a1d565b6001600160a01b0316336001600160a01b031614611b0c5760405162461bcd60e51b8152600401610c2290614c82565b30611b15610a1d565b6001600160a01b031614611b535760008036604051611b35929190614c72565b604051809103902090505b80611b4c6101316122e6565b03611b4057505b611b958483838080601f016020809104026020016040519081016040528093929190818152602001838380828437600092019190915250889250612c14915050565b5050505050565b600084848484604051602001611bb59493929190614e4e565b60408051601f19818403018152919052805160209091012095945050505050565b6000611be6338787878787612c3a565b6117ce8686611bf5878761270f565b856117d8565b60008181526101616020908152604091829020600181018054845181850281018501909552808552919361167293909290830182828015611c6557602002820191906000526020600020905b81546001600160a01b03168152600190910190602001808311611c47575b505050505082600201805480602002602001604051908101604052809291908181526020018280548015611cb857602002820191906000526020600020905b815481526020019060010190808311611ca4575b5050505050611e6084600301805480602002602001604051908101604052809291908181526020016000905b82821015611d90578382906000526020600020018054611d0390614cb9565b80601f0160208091040260200160405190810160405280929190818152602001828054611d2f90614cb9565b8015611d7c5780601f10611d5157610100808354040283529160200191611d7c565b820191906000526020600020905b815481529060010190602001808311611d5f57829003601f168201915b505050505081526020019060010190611ce4565b50505060048701805460408051602080840282018101909252828152935060009084015b8282101561165f578382906000526020600020018054611dd390614cb9565b80601f0160208091040260200160405190810160405280929190818152602001828054611dff90614cb9565b8015611e4c5780601f10611e2157610100808354040283529160200191611e4c565b820191906000526020600020905b815481529060010190602001808311611e2f57829003601f168201915b505050505081526020019060010190611db4565b8460090154610d11565b600061195a8383612cf8565b6000610aec82612d19565b60008181526101616020908152604091829020600181018054845181850281018501909552808552919361167293909290830182828015611eeb57602002820191906000526020600020905b81546001600160a01b03168152600190910190602001808311611ecd575b505050505082600201805480602002602001604051908101604052809291908181526020018280548015611f3e57602002820191906000526020600020905b815481526020019060010190808311611f2a575b50505050506120e684600301805480602002602001604051908101604052809291908181526020016000905b82821015612016578382906000526020600020018054611f8990614cb9565b80601f0160208091040260200160405190810160405280929190818152602001828054611fb590614cb9565b80156120025780601f10611fd757610100808354040283529160200191612002565b820191906000526020600020905b815481529060010190602001808311611fe557829003601f168201915b505050505081526020019060010190611f6a565b50505060048701805460408051602080840282018101909252828152935060009084015b8282101561165f57838290600052602060002001805461205990614cb9565b80601f016020809104026020016040519081016040528092919081815260200182805461208590614cb9565b80156120d25780601f106120a7576101008083540402835291602001916120d2565b820191906000526020600020905b8154815290600101906020018083116120b557829003601f168201915b50505050508152602001906001019061203a565b8460090154610f26565b60006001600160e01b03198216636e665ced60e01b1480610aec5750610aec82612da8565b6000610aec612122612e13565b8360405161190160f01b6020820152602281018390526042810182905260009060620160405160208183030381529060405280519060200120905092915050565b600080600061217487878787612e8e565b9150915061100f81612f7b565b600085815261013060205260408120600161219b88611359565b60078111156121ac576121ac61472f565b146122055760405162461bcd60e51b815260206004820152602360248201527f476f7665726e6f723a20766f7465206e6f742063757272656e746c792061637460448201526269766560e81b6064820152608401610c22565b604080516020810190915281546001600160401b03169081905260009061222e90889086612ad6565b905061223d8888888488613131565b835160000361229257866001600160a01b03167fb8e138887d0aa13bab447e82de9d5c1777041ecd21ca36ba824ff1e6c07ddda4898884896040516122859493929190614e99565b60405180910390a261134e565b866001600160a01b03167fe2babfbac5889a709b63bb7f598b324e08bc5a4fb9ec647fb3cbc9ec07eb871289888489896040516122d3959493929190614ec1565b60405180910390a2979650505050505050565b60006123018254600f81810b600160801b909204900b131590565b1561231f57604051631ed9509560e11b815260040160405180910390fd5b508054600f0b6000818152600180840160205260408220805492905583546fffffffffffffffffffffffffffffffff191692016001600160801b03169190911790915590565b60648111156123e85760405162461bcd60e51b815260206004820152604360248201527f476f7665726e6f72566f74657351756f72756d4672616374696f6e3a2071756f60448201527f72756d4e756d657261746f72206f7665722071756f72756d44656e6f6d696e616064820152623a37b960e91b608482015260a401610c22565b60006123f2611961565b9050801580159061240457506101c754155b1561246a5760408051808201909152600081526101c79060208101612428846132d8565b6001600160e01b0390811690915282546001810184556000938452602093849020835194909301519091166401000000000263ffffffff909316929092179101555b6124766101c783613345565b505060408051828152602081018490527f0553476bf02ef2726e8ce5ced78d63e26e602e4a2257b1f559418e24b4633997910160405180910390a15050565b306124be610a1d565b6001600160a01b031614611b955760005b845181101561254f57306001600160a01b03168582815181106124f4576124f4614e38565b60200260200101516001600160a01b03160361253f5761253f83828151811061251f5761251f614e38565b60200260200101518051906020012061013161347090919063ffffffff16565b61254881614f07565b90506124cf565b505050505050565b611b9585858585856134ac565b3061256d610a1d565b6001600160a01b031614611b955761013154600f81810b600160801b909204900b1315611b9557600061013155611b95565b60006117e6858585856125bd60408051602081019091526000815290565b612181565b6000806125ce83613521565b905060048160078111156125e4576125e461472f565b146125ef5792915050565b60008381526101f960205260409020548061260b575092915050565b6101f854604051632ab0f52960e01b8152600481018390526001600160a01b0390911690632ab0f52990602401602060405180830381865afa158015612655573d6000803e3d6000fd5b505050506040513d601f19601f820116820180604052508101906126799190614f20565b15612688575060079392505050565b6101f854604051632c258a9f60e11b8152600481018390526001600160a01b039091169063584b153e90602401602060405180830381865afa1580156126d2573d6000803e3d6000fd5b505050506040513d601f19601f820116820180604052508101906126f69190614f20565b15612705575060059392505050565b5060029392505050565b6060600082516001600160401b0381111561272c5761272c614184565b60405190808252806020026020018201604052801561275f57816020015b606081526020019060019003908161274a5790505b50905060005b84518110156128395784818151811061278057612780614e38565b6020026020010151516000146127f0578481815181106127a2576127a2614e38565b6020026020010151805190602001208482815181106127c3576127c3614e38565b60200260200101516040516020016127dc929190614f42565b60405160208183030381529060405261280b565b83818151811061280257612802614e38565b60200260200101515b82828151811061281d5761281d614e38565b60200260200101819052508061283290614f07565b9050612765565b509392505050565b60006117e685858585613635565b60004382106128a05760405162461bcd60e51b815260206004820181905260248201527f436865636b706f696e74733a20626c6f636b206e6f7420796574206d696e65646044820152606401610c22565b825460005b818110156129055760006128b982846136eb565b9050848660000182815481106128d1576128d1614e38565b60009182526020909120015463ffffffff1611156128f1578092506128ff565b6128fc816001614e09565b91505b506128a5565b81156129495784612917600184614e21565b8154811061292757612927614e38565b60009182526020909120015464010000000090046001600160e01b031661294c565b60005b6001600160e01b031695945050505050565b60006129ba33868686516001600160401b0381111561297f5761297f614184565b6040519080825280602002602001820160405280156129b257816020015b606081526020019060019003908161299d5790505b508787612c3a565b6117e685858585613706565b600054610100900460ff166129ed5760405162461bcd60e51b8152600401610c2290614f73565b612a1481612a0f6040805180820190915260018152603160f81b602082015290565b6139be565b610c7b816139ff565b600054610100900460ff16612a445760405162461bcd60e51b8152600401610c2290614f73565b565b600054610100900460ff16612a6d5760405162461bcd60e51b8152600401610c2290614f73565b610c7b81613a3e565b600054610100900460ff16612a9d5760405162461bcd60e51b8152600401610c2290614f73565b610c7b81613a88565b600054610100900460ff16612acd5760405162461bcd60e51b8152600401610c2290614f73565b610c7b81613aaf565b61019354604051630748d63560e31b81526001600160a01b038581166004830152602482018590526000921690633a46b1a890604401602060405180830381865afa158015612b29573d6000803e3d6000fd5b505050506040513d601f19601f820116820180604052508101906119579190614d34565b80546000908015612b965782612b64600183614e21565b81548110612b7457612b74614e38565b60009182526020909120015464010000000090046001600160e01b0316612b99565b60005b6001600160e01b03169392505050565b6101f854604080516001600160a01b03928316815291831660208301527f08f74ea46ef7894f65eabfb5e6e695de773a000b47c529ab559178069b226401910160405180910390a16101f880546001600160a01b0319166001600160a01b0392909216919091179055565b606061195784848460405180606001604052806029815260200161512b60299139613ad6565b805160208201206000612c588787612c52888861270f565b85611b9c565b600081815261016160205260409020600981015491925090612ced5780546001600160a01b0319166001600160a01b038a161781558751612ca290600183019060208b0190613ea0565b508651612cb890600283019060208a0190613f01565b508551612cce9060038301906020890190613f3c565b508451612ce49060048301906020880190613f95565b50600981018390555b505050505050505050565b600061195a8383612d1460408051602081019091526000815290565b612ad6565b60006064612d26836116ea565b61019354604051632394e7a360e21b8152600481018690526001600160a01b0390911690638e539e8c90602401602060405180830381865afa158015612d70573d6000803e3d6000fd5b505050506040513d601f19601f82011682018060405250810190612d949190614d34565b612d9e9190614fbe565b610aec9190614fdd565b60006001600160e01b0319821663bf26d89760e01b1480612dd957506001600160e01b031982166379dd796f60e01b145b80612df457506001600160e01b03198216630271189760e51b145b80610aec57506301ffc9a760e01b6001600160e01b0319831614610aec565b6000610a327f8b73c3c69bb8fe3d512ecc4cf759cc79239f7b179b0ffacaa9a75d522b39400f612e4260655490565b6066546040805160208101859052908101839052606081018290524660808201523060a082015260009060c0016040516020818303038152906040528051906020012090509392505050565b6000807f7fffffffffffffffffffffffffffffff5d576e7357a4501ddfe92f46681b20a0831115612ec55750600090506003612f72565b8460ff16601b14158015612edd57508460ff16601c14155b15612eee5750600090506004612f72565b6040805160008082526020820180845289905260ff881692820192909252606081018690526080810185905260019060a0016020604051602081039080840390855afa158015612f42573d6000803e3d6000fd5b5050604051601f1901519150506001600160a01b038116612f6b57600060019250925050612f72565b9150600090505b94509492505050565b6000816004811115612f8f57612f8f61472f565b03612f975750565b6001816004811115612fab57612fab61472f565b03612ff85760405162461bcd60e51b815260206004820152601860248201527f45434453413a20696e76616c6964207369676e617475726500000000000000006044820152606401610c22565b600281600481111561300c5761300c61472f565b036130595760405162461bcd60e51b815260206004820152601f60248201527f45434453413a20696e76616c6964207369676e6174757265206c656e677468006044820152606401610c22565b600381600481111561306d5761306d61472f565b036130c55760405162461bcd60e51b815260206004820152602260248201527f45434453413a20696e76616c6964207369676e6174757265202773272076616c604482015261756560f01b6064820152608401610c22565b60048160048111156130d9576130d961472f565b03610c7b5760405162461bcd60e51b815260206004820152602260248201527f45434453413a20696e76616c6964207369676e6174757265202776272076616c604482015261756560f01b6064820152608401610c22565b6000858152610161602090815260408083206001600160a01b038816845260088101909252909120805460ff16156131c15760405162461bcd60e51b815260206004820152602d60248201527f476f7665726e6f72436f6d7061746962696c697479427261766f3a20766f746560448201526c08185b1c9958591e4818d85cdd609a1b6064820152608401610c22565b805460ff86166101000261ffff199091161760011781556131e184613bfc565b81546001600160601b039190911662010000026dffffffffffffffffffffffff00001990911617815560ff851661323157838260060160008282546132269190614e09565b909155506132cf9050565b60001960ff86160161325157838260050160008282546132269190614e09565b60011960ff86160161327157838260070160008282546132269190614e09565b60405162461bcd60e51b815260206004820152602d60248201527f476f7665726e6f72436f6d7061746962696c697479427261766f3a20696e766160448201526c6c696420766f7465207479706560981b6064820152608401610c22565b50505050505050565b60006001600160e01b038211156133415760405162461bcd60e51b815260206004820152602760248201527f53616665436173743a2076616c756520646f65736e27742066697420696e20326044820152663234206269747360c81b6064820152608401610c22565b5090565b815460009081908161335686612b4d565b905060008211801561339457504386613370600185614e21565b8154811061338057613380614e38565b60009182526020909120015463ffffffff16145b156133f4576133a2856132d8565b866133ae600185614e21565b815481106133be576133be614e38565b9060005260206000200160000160046101000a8154816001600160e01b0302191690836001600160e01b03160217905550613462565b85600001604051806040016040528061340c43613c64565b63ffffffff168152602001613420886132d8565b6001600160e01b0390811690915282546001810184556000938452602093849020835194909301519091166401000000000263ffffffff909316929092179101555b9250839150505b9250929050565b8154600160801b90819004600f0b6000818152600180860160205260409091209390935583546001600160801b03908116939091011602179055565b6101f85460405163e38335e560e01b81526001600160a01b039091169063e38335e59034906134e8908890889088906000908990600401614d4d565b6000604051808303818588803b15801561350157600080fd5b505af1158015613515573d6000803e3d6000fd5b50505050505050505050565b600081815261013060205260408120600281015460ff16156135465750600792915050565b6002810154610100900460ff16156135615750600292915050565b600061356c84611019565b9050806000036135be5760405162461bcd60e51b815260206004820152601d60248201527f476f7665726e6f723a20756e6b6e6f776e2070726f706f73616c2069640000006044820152606401610c22565b4381106135cf575060009392505050565b60006135da85611aa4565b90504381106135ee57506001949350505050565b6135f785613cc9565b801561361a57506000858152610161602052604090206006810154600590910154115b1561362a57506004949350505050565b506003949350505050565b60008061364486868686613cf2565b60008181526101f96020526040902054909150156117e6576101f85460008281526101f960205260409081902054905163c4d252f560e01b81526001600160a01b039092169163c4d252f5916136a09160040190815260200190565b600060405180830381600087803b1580156136ba57600080fd5b505af11580156136ce573d6000803e3d6000fd5b50505060008281526101f960205260408120555095945050505050565b60006136fa6002848418614fdd565b61195a90848416614e09565b60008061371833610998600143614e21565b10156137805760405162461bcd60e51b815260206004820152603160248201527f476f7665726e6f723a2070726f706f73657220766f7465732062656c6f7720706044820152701c9bdc1bdcd85b081d1a1c995cda1bdb19607a1b6064820152608401610c22565b60006137958686868680519060200120611b9c565b905084518651146137b85760405162461bcd60e51b8152600401610c2290614fff565b83518651146137d95760405162461bcd60e51b8152600401610c2290614fff565b600086511161382a5760405162461bcd60e51b815260206004820152601860248201527f476f7665726e6f723a20656d7074792070726f706f73616c00000000000000006044820152606401610c22565b60008181526101306020908152604091829020825191820190925281546001600160401b031690819052156138ab5760405162461bcd60e51b815260206004820152602160248201527f476f7665726e6f723a2070726f706f73616c20616c72656164792065786973746044820152607360f81b6064820152608401610c22565b60006138b861012c613dff565b6138c143613dff565b6138cb9190615040565b905060006138da6103e8613dff565b6138e49083615040565b835467ffffffffffffffff19166001600160401b038416178455905060018301805467ffffffffffffffff19166001600160401b0383161790557f7d84a6263ae0d98d3329bd7b46bb4e8d6f98cd35a7adb45c274c8b7fd5ebd5e084338b8b8d516001600160401b0381111561395c5761395c614184565b60405190808252806020026020018201604052801561398f57816020015b606081526020019060019003908161397a5790505b508c88888e6040516139a99998979695949392919061506b565b60405180910390a15091979650505050505050565b600054610100900460ff166139e55760405162461bcd60e51b8152600401610c2290614f73565b815160209283012081519190920120606591909155606655565b600054610100900460ff16613a265760405162461bcd60e51b8152600401610c2290614f73565b8051613a3a9061012f906020840190613fee565b5050565b600054610100900460ff16613a655760405162461bcd60e51b8152600401610c2290614f73565b61019380546001600160a01b0319166001600160a01b0392909216919091179055565b600054610100900460ff16610c725760405162461bcd60e51b8152600401610c2290614f73565b600054610100900460ff166119ff5760405162461bcd60e51b8152600401610c2290614f73565b606082471015613b375760405162461bcd60e51b815260206004820152602660248201527f416464726573733a20696e73756666696369656e742062616c616e636520666f6044820152651c8818d85b1b60d21b6064820152608401610c22565b6001600160a01b0385163b613b8e5760405162461bcd60e51b815260206004820152601d60248201527f416464726573733a2063616c6c20746f206e6f6e2d636f6e74726163740000006044820152606401610c22565b600080866001600160a01b03168587604051613baa919061510e565b60006040518083038185875af1925050503d8060008114613be7576040519150601f19603f3d011682016040523d82523d6000602084013e613bec565b606091505b509150915061134e828286613e67565b60006001600160601b038211156133415760405162461bcd60e51b815260206004820152602660248201527f53616665436173743a2076616c756520646f65736e27742066697420696e203960448201526536206269747360d01b6064820152608401610c22565b600063ffffffff8211156133415760405162461bcd60e51b815260206004820152602660248201527f53616665436173743a2076616c756520646f65736e27742066697420696e203360448201526532206269747360d01b6064820152608401610c22565b6000818152610161602052604081206005810154613ce96109e485611019565b11159392505050565b600080613d0186868686611b9c565b90506000613d0e82611359565b90506002816007811115613d2457613d2461472f565b14158015613d4457506006816007811115613d4157613d4161472f565b14155b8015613d6257506007816007811115613d5f57613d5f61472f565b14155b613dae5760405162461bcd60e51b815260206004820152601d60248201527f476f7665726e6f723a2070726f706f73616c206e6f74206163746976650000006044820152606401610c22565b6000828152610130602052604090819020600201805461ff001916610100179055517f789cf55be980739dad1d0699b93b58e806b51c9d96619bfa8fe0a28abaa7b30c90610f049084815260200190565b60006001600160401b038211156133415760405162461bcd60e51b815260206004820152602660248201527f53616665436173743a2076616c756520646f65736e27742066697420696e203660448201526534206269747360d01b6064820152608401610c22565b60608315613e7657508161195a565b825115613e865782518084602001fd5b8160405162461bcd60e51b8152600401610c22919061433b565b828054828255906000526020600020908101928215613ef5579160200282015b82811115613ef557825182546001600160a01b0319166001600160a01b03909116178255602090920191600190910190613ec0565b50613341929150614061565b828054828255906000526020600020908101928215613ef5579160200282015b82811115613ef5578251825591602001919060010190613f21565b828054828255906000526020600020908101928215613f89579160200282015b82811115613f895782518051613f79918491602090910190613fee565b5091602001919060010190613f5c565b50613341929150614076565b828054828255906000526020600020908101928215613fe2579160200282015b82811115613fe25782518051613fd2918491602090910190613fee565b5091602001919060010190613fb5565b50613341929150614093565b828054613ffa90614cb9565b90600052602060002090601f01602090048101928261401c5760008555613ef5565b82601f1061403557805160ff1916838001178555613ef5565b82800160010185558215613ef55791820182811115613ef5578251825591602001919060010190613f21565b5b808211156133415760008155600101614062565b8082111561334157600061408a82826140b0565b50600101614076565b808211156133415760006140a782826140b0565b50600101614093565b5080546140bc90614cb9565b6000825580601f106140cc575050565b601f016020900490600052602060002090810190610c7b9190614061565b6000602082840312156140fc57600080fd5b5035919050565b60006020828403121561411557600080fd5b81356001600160e01b03198116811461195a57600080fd5b803560ff8116811461413e57600080fd5b919050565b60008083601f84011261415557600080fd5b5081356001600160401b0381111561416c57600080fd5b60208301915083602082850101111561346957600080fd5b634e487b7160e01b600052604160045260246000fd5b604051601f8201601f191681016001600160401b03811182821017156141c2576141c2614184565b604052919050565b600082601f8301126141db57600080fd5b81356001600160401b038111156141f4576141f4614184565b614207601f8201601f191660200161419a565b81815284602083860101111561421c57600080fd5b816020850160208301376000918101602001919091529392505050565b60008060008060008060008060e0898b03121561425557600080fd5b8835975061426560208a0161412d565b965060408901356001600160401b038082111561428157600080fd5b61428d8c838d01614143565b909850965060608b01359150808211156142a657600080fd5b506142b38b828c016141ca565b9450506142c260808a0161412d565b925060a0890135915060c089013590509295985092959890939650565b60005b838110156142fa5781810151838201526020016142e2565b83811115614309576000848401525b50505050565b600081518084526143278160208601602086016142df565b601f01601f19169290920160200192915050565b60208152600061195a602083018461430f565b6001600160a01b0381168114610c7b57600080fd5b6000806000806080858703121561437957600080fd5b84356143848161434e565b935060208501356143948161434e565b92506040850135915060608501356001600160401b038111156143b657600080fd5b6143c2878288016141ca565b91505092959194509250565b60006001600160401b038211156143e7576143e7614184565b5060051b60200190565b600082601f83011261440257600080fd5b81356020614417614412836143ce565b61419a565b82815260059290921b8401810191818101908684111561443657600080fd5b8286015b8481101561445a57803561444d8161434e565b835291830191830161443a565b509695505050505050565b600082601f83011261447657600080fd5b81356020614486614412836143ce565b82815260059290921b840181019181810190868411156144a557600080fd5b8286015b8481101561445a57803583529183019183016144a9565b600082601f8301126144d157600080fd5b813560206144e1614412836143ce565b82815260059290921b8401810191818101908684111561450057600080fd5b8286015b8481101561445a5780356001600160401b038111156145235760008081fd5b6145318986838b01016141ca565b845250918301918301614504565b6000806000806080858703121561455557600080fd5b84356001600160401b038082111561456c57600080fd5b614578888389016143f1565b9550602087013591508082111561458e57600080fd5b61459a88838901614465565b945060408701359150808211156145b057600080fd5b506145bd878288016144c0565b949793965093946060013593505050565b600081518084526020808501945080840160005b838110156146075781516001600160a01b0316875295820195908201906001016145e2565b509495945050505050565b600081518084526020808501945080840160005b8381101561460757815187529582019590820190600101614626565b6000815180845260208085019450848260051b860182860160005b8581101561468757838303895261467583835161430f565b9885019892509084019060010161465d565b5090979650505050505050565b6080815260006146a760808301876145ce565b82810360208401526146b98187614612565b905082810360408401526146cd8186614642565b9050828103606084015261134e8185614642565b600080600080600060a086880312156146f957600080fd5b853594506147096020870161412d565b93506147176040870161412d565b94979396509394606081013594506080013592915050565b634e487b7160e01b600052602160045260246000fd5b602081016008831061476757634e487b7160e01b600052602160045260246000fd5b91905290565b6000806040838503121561478057600080fd5b8235915060208301356147928161434e565b809150509250929050565b600080604083850312156147b057600080fd5b823591506147c06020840161412d565b90509250929050565b6000806000806000608086880312156147e157600080fd5b853594506147f16020870161412d565b935060408601356001600160401b038082111561480d57600080fd5b61481989838a01614143565b9095509350606088013591508082111561483257600080fd5b5061483f888289016141ca565b9150509295509295909350565b6000806000806060858703121561486257600080fd5b843593506148726020860161412d565b925060408501356001600160401b0381111561488d57600080fd5b61489987828801614143565b95989497509550505050565b600080600080608085870312156148bb57600080fd5b84356001600160401b03808211156148d257600080fd5b6148de888389016143f1565b955060208701359150808211156148f457600080fd5b61490088838901614465565b9450604087013591508082111561491657600080fd5b614922888389016144c0565b9350606087013591508082111561493857600080fd5b506143c2878288016141ca565b6000806040838503121561495857600080fd5b82356149638161434e565b915060208301356147928161434e565b60008060006060848603121561498857600080fd5b83356149938161434e565b92506020840135915060408401356001600160401b038111156149b557600080fd5b6149c1868287016141ca565b9150509250925092565b6000602082840312156149dd57600080fd5b813561195a8161434e565b600080600080600060a08688031215614a0057600080fd5b8535614a0b8161434e565b94506020860135614a1b8161434e565b935060408601356001600160401b0380821115614a3757600080fd5b614a4389838a01614465565b94506060880135915080821115614a5957600080fd5b614a6589838a01614465565b9350608088013591508082111561483257600080fd5b60008060008060608587031215614a9157600080fd5b8435614a9c8161434e565b93506020850135925060408501356001600160401b0381111561488d57600080fd5b600082601f830112614acf57600080fd5b81356020614adf614412836143ce565b82815260059290921b84018101918181019086841115614afe57600080fd5b8286015b8481101561445a5780356001600160401b03811115614b215760008081fd5b614b2f8986838b01016141ca565b845250918301918301614b02565b600080600080600060a08688031215614b5557600080fd5b85356001600160401b0380821115614b6c57600080fd5b614b7889838a016143f1565b96506020880135915080821115614b8e57600080fd5b614b9a89838a01614465565b95506040880135915080821115614bb057600080fd5b614bbc89838a01614abe565b94506060880135915080821115614bd257600080fd5b614a6589838a016144c0565b60008060408385031215614bf157600080fd5b8235614bfc8161434e565b946020939093013593505050565b600080600080600060a08688031215614c2257600080fd5b8535614c2d8161434e565b94506020860135614c3d8161434e565b9350604086013592506060860135915060808601356001600160401b03811115614c6657600080fd5b61483f888289016141ca565b8183823760009101908152919050565b60208082526018908201527f476f7665726e6f723a206f6e6c79476f7665726e616e63650000000000000000604082015260600190565b600181811c90821680614ccd57607f821691505b602082108103614ced57634e487b7160e01b600052602260045260246000fd5b50919050565b60208082526021908201527f476f7665726e6f723a2070726f706f73616c206e6f74207375636365737366756040820152601b60fa1b606082015260800190565b600060208284031215614d4657600080fd5b5051919050565b60a081526000614d6060a08301886145ce565b8281036020840152614d728188614612565b90508281036040840152614d868187614642565b60608401959095525050608001529392505050565b60c081526000614dae60c08301896145ce565b8281036020840152614dc08189614612565b90508281036040840152614dd48188614642565b60608401969096525050608081019290925260a0909101529392505050565b634e487b7160e01b600052601160045260246000fd5b60008219821115614e1c57614e1c614df3565b500190565b600082821015614e3357614e33614df3565b500390565b634e487b7160e01b600052603260045260246000fd5b608081526000614e6160808301876145ce565b8281036020840152614e738187614612565b90508281036040840152614e878186614642565b91505082606083015295945050505050565b84815260ff841660208201528260408201526080606082015260006117ce608083018461430f565b85815260ff8516602082015283604082015260a060608201526000614ee960a083018561430f565b8281036080840152614efb818561430f565b98975050505050505050565b600060018201614f1957614f19614df3565b5060010190565b600060208284031215614f3257600080fd5b8151801515811461195a57600080fd5b6001600160e01b0319831681528151600090614f658160048501602087016142df565b919091016004019392505050565b6020808252602b908201527f496e697469616c697a61626c653a20636f6e7472616374206973206e6f74206960408201526a6e697469616c697a696e6760a81b606082015260800190565b6000816000190483118215151615614fd857614fd8614df3565b500290565b600082614ffa57634e487b7160e01b600052601260045260246000fd5b500490565b60208082526021908201527f476f7665726e6f723a20696e76616c69642070726f706f73616c206c656e67746040820152600d60fb1b606082015260800190565b60006001600160401b0380831681851680830382111561506257615062614df3565b01949350505050565b8981526001600160a01b0389166020820152610120604082018190526000906150968382018b6145ce565b905082810360608401526150aa818a614612565b905082810360808401526150be8189614642565b905082810360a08401526150d28188614642565b6001600160401b0387811660c0860152861660e085015283810361010085015290506150fe818561430f565b9c9b505050505050505050505050565b600082516151208184602087016142df565b919091019291505056fe416464726573733a206c6f772d6c6576656c2063616c6c20776974682076616c7565206661696c6564a264697066735822122093b51faabd631b49e58679a2a5224c68cd0ad84e3c6baa869c0e9fc34ad8002064736f6c634300080d0033",
  "immutableReferences": {},
  "source": "// SPDX-License-Identifier: MIT\npragma solidity ^0.8.2;\n\nimport \"@openzeppelin/contracts-upgradeable/governance/GovernorUpgradeable.sol\";\nimport \"@openzeppelin/contracts-upgradeable/governance/compatibility/GovernorCompatibilityBravoUpgradeable.sol\";\nimport \"@openzeppelin/contracts-upgradeable/governance/extensions/GovernorVotesUpgradeable.sol\";\nimport \"@openzeppelin/contracts-upgradeable/governance/extensions/GovernorVotesQuorumFractionUpgradeable.sol\";\nimport \"@openzeppelin/contracts-upgradeable/governance/extensions/GovernorTimelockControlUpgradeable.sol\";\n\nimport \"./IStaking.sol\";\n\ncontract RariGovernor is GovernorUpgradeable, GovernorCompatibilityBravoUpgradeable, GovernorVotesUpgradeable, GovernorVotesQuorumFractionUpgradeable, GovernorTimelockControlUpgradeable {\n    function __RariGovernor_init(IVotesUpgradeable tokenAddress, TimelockControllerUpgradeable timelockAddress) external initializer {\n        __Governor_init(\"RariGovernor\");\n        __GovernorCompatibilityBravo_init();\n        __GovernorVotes_init(tokenAddress);\n        __GovernorVotesQuorumFraction_init(4);\n        __GovernorTimelockControl_init(timelockAddress);\n    }\n\n    function votingDelay() public view override virtual returns (uint256) {\n        return 300;\n    }\n\n    function votingPeriod() public pure override virtual returns (uint256) {\n        return 1000; // 276 = 1 , 46027 = 1 week\n    }\n\n    function proposalThreshold() public pure override returns (uint256) {\n        return 0;\n    }\n\n    // The functions below are overrides required by Solidity.\n\n    function quorum(uint256 blockNumber)\n        public\n        view\n        override(IGovernorUpgradeable, GovernorVotesQuorumFractionUpgradeable)\n        returns (uint256)\n    {\n        return super.quorum(blockNumber);\n    }\n\n    function getVotes(address account, uint256 blockNumber)\n        public\n        view\n        override(GovernorUpgradeable, IGovernorUpgradeable)\n        returns (uint256)\n    {\n        return super.getVotes(account, blockNumber);\n    }\n\n    function state(uint256 proposalId)\n        public\n        view\n        override(GovernorUpgradeable, IGovernorUpgradeable, GovernorTimelockControlUpgradeable)\n        returns (ProposalState)\n    {\n        return super.state(proposalId);\n    }\n\n    function propose(address[] memory targets, uint256[] memory values, bytes[] memory calldatas, string memory description)\n        public\n        override(GovernorUpgradeable, GovernorCompatibilityBravoUpgradeable, IGovernorUpgradeable)\n        returns (uint256)\n    {\n        return super.propose(targets, values, calldatas, description);\n    }\n\n    function _execute(uint256 proposalId, address[] memory targets, uint256[] memory values, bytes[] memory calldatas, bytes32 descriptionHash)\n        internal\n        override(GovernorUpgradeable, GovernorTimelockControlUpgradeable)\n    {\n        super._execute(proposalId, targets, values, calldatas, descriptionHash);\n    }\n\n    function _cancel(address[] memory targets, uint256[] memory values, bytes[] memory calldatas, bytes32 descriptionHash)\n        internal\n        override(GovernorUpgradeable, GovernorTimelockControlUpgradeable)\n        returns (uint256)\n    {\n        return super._cancel(targets, values, calldatas, descriptionHash);\n    }\n\n    function _executor()\n        internal\n        view\n        override(GovernorUpgradeable, GovernorTimelockControlUpgradeable)\n        returns (address)\n    {\n        return super._executor();\n    }\n\n    function supportsInterface(bytes4 interfaceId)\n        public\n        view\n        override(GovernorUpgradeable, IERC165Upgradeable, GovernorTimelockControlUpgradeable)\n        returns (bool)\n    {\n        return super.supportsInterface(interfaceId);\n    }\n}",
  "sourcePath": "/Users/eugene/Projects/rarible/governance-contracts/contracts/RariGovernor.sol",
  "compiler": {
    "name": "solc",
    "version": "0.8.13+commit.abaa5c0e.Emscripten.clang"
  },
  "schemaVersion": "3.4.5",
  "updatedAt": "2022-10-05T06:40:05.070Z",
  "networkType": "ethereum",
  "devdoc": {
    "errors": {
      "Empty()": [
        {
          "details": "An operation (e.g. {front}) couldn't be completed due to the queue being empty."
        }
      ]
    },
    "kind": "dev",
    "methods": {
      "COUNTING_MODE()": {
        "details": "A description of the possible `support` values for {castVote} and the way these votes are counted, meant to be consumed by UIs to show correct vote options and interpret the results. The string is a URL-encoded sequence of key-value pairs that each describe one aspect, for example `support=bravo&quorum=for,abstain`. There are 2 standard keys: `support` and `quorum`. - `support=bravo` refers to the vote options 0 = Against, 1 = For, 2 = Abstain, as in `GovernorBravo`. - `quorum=bravo` means that only For votes are counted towards quorum. - `quorum=for,abstain` means that both For and Abstain votes are counted towards quorum. If a counting module makes use of encoded `params`, it should  include this under a `params` key with a unique name that describes the behavior. For example: - `params=fractional` might refer to a scheme where votes are divided fractionally between for/against/abstain. - `params=erc721` might refer to a scheme where specific NFTs are delegated to vote. NOTE: The string can be decoded by the standard https://developer.mozilla.org/en-US/docs/Web/API/URLSearchParams[`URLSearchParams`] JavaScript class."
      },
      "cancel(uint256)": {
        "details": "Cancels a proposal only if sender is the proposer, or proposer delegates dropped below proposal threshold."
      },
      "castVote(uint256,uint8)": {
        "details": "See {IGovernor-castVote}."
      },
      "castVoteBySig(uint256,uint8,uint8,bytes32,bytes32)": {
        "details": "See {IGovernor-castVoteBySig}."
      },
      "castVoteWithReason(uint256,uint8,string)": {
        "details": "See {IGovernor-castVoteWithReason}."
      },
      "castVoteWithReasonAndParams(uint256,uint8,string,bytes)": {
        "details": "See {IGovernor-castVoteWithReasonAndParams}."
      },
      "castVoteWithReasonAndParamsBySig(uint256,uint8,string,bytes,uint8,bytes32,bytes32)": {
        "details": "See {IGovernor-castVoteWithReasonAndParamsBySig}."
      },
      "execute(address[],uint256[],bytes[],bytes32)": {
        "details": "See {IGovernor-execute}."
      },
      "execute(uint256)": {
        "details": "See {IGovernorCompatibilityBravo-execute}."
      },
      "getActions(uint256)": {
        "details": "See {IGovernorCompatibilityBravo-getActions}."
      },
      "getReceipt(uint256,address)": {
        "details": "See {IGovernorCompatibilityBravo-getReceipt}."
      },
      "getVotesWithParams(address,uint256,bytes)": {
        "details": "See {IGovernor-getVotesWithParams}."
      },
      "hasVoted(uint256,address)": {
        "details": "See {IGovernor-hasVoted}."
      },
      "hashProposal(address[],uint256[],bytes[],bytes32)": {
        "details": "See {IGovernor-hashProposal}. The proposal id is produced by hashing the ABI encoded `targets` array, the `values` array, the `calldatas` array and the descriptionHash (bytes32 which itself is the keccak256 hash of the description string). This proposal id can be produced from the proposal data which is part of the {ProposalCreated} event. It can even be computed in advance, before the proposal is submitted. Note that the chainId and the governor address are not part of the proposal id computation. Consequently, the same proposal (with same operation and same description) will have the same id if submitted on multiple governors across multiple networks. This also means that in order to execute the same operation twice (on the same governor) the proposer will have to change the description in order to avoid proposal id conflicts."
      },
      "name()": {
        "details": "See {IGovernor-name}."
      },
      "onERC1155BatchReceived(address,address,uint256[],uint256[],bytes)": {
        "details": "See {IERC1155Receiver-onERC1155BatchReceived}."
      },
      "onERC1155Received(address,address,uint256,uint256,bytes)": {
        "details": "See {IERC1155Receiver-onERC1155Received}."
      },
      "onERC721Received(address,address,uint256,bytes)": {
        "details": "See {IERC721Receiver-onERC721Received}."
      },
      "proposalDeadline(uint256)": {
        "details": "See {IGovernor-proposalDeadline}."
      },
      "proposalEta(uint256)": {
        "details": "Public accessor to check the eta of a queued proposal"
      },
      "proposalSnapshot(uint256)": {
        "details": "See {IGovernor-proposalSnapshot}."
      },
      "proposalThreshold()": {
        "details": "Part of the Governor Bravo's interface: _\"The number of votes required in order for a voter to become a proposer\"_."
      },
      "proposals(uint256)": {
        "details": "See {IGovernorCompatibilityBravo-proposals}."
      },
      "propose(address[],uint256[],string[],bytes[],string)": {
        "details": "See {IGovernorCompatibilityBravo-propose}."
      },
      "queue(address[],uint256[],bytes[],bytes32)": {
        "details": "Function to queue a proposal to the timelock."
      },
      "queue(uint256)": {
        "details": "See {IGovernorCompatibilityBravo-queue}."
      },
      "quorumDenominator()": {
        "details": "Returns the quorum denominator. Defaults to 100, but may be overridden."
      },
      "quorumNumerator()": {
        "details": "Returns the current quorum numerator. See {quorumDenominator}."
      },
      "quorumNumerator(uint256)": {
        "details": "Returns the quorum numerator at a specific block number. See {quorumDenominator}."
      },
      "quorumVotes()": {
        "details": "See {IGovernorCompatibilityBravo-quorumVotes}."
      },
      "relay(address,uint256,bytes)": {
        "details": "Relays a transaction or function call to an arbitrary target. In cases where the governance executor is some contract other than the governor itself, like when using a timelock, this function can be invoked in a governance proposal to recover tokens or Ether that was sent to the governor contract by mistake. Note that if the executor is simply the governor itself, use of `relay` is redundant."
      },
      "timelock()": {
        "details": "Public accessor to check the address of the timelock"
      },
      "updateQuorumNumerator(uint256)": {
        "details": "Changes the quorum numerator. Emits a {QuorumNumeratorUpdated} event. Requirements: - Must be called through a governance proposal. - New numerator must be smaller or equal to the denominator."
      },
      "updateTimelock(address)": {
        "details": "Public endpoint to update the underlying timelock instance. Restricted to the timelock itself, so updates must be proposed, scheduled, and executed through governance proposals. CAUTION: It is not recommended to change the timelock while there are other queued governance proposals."
      },
      "version()": {
        "details": "See {IGovernor-version}."
      },
      "votingDelay()": {
        "details": "Delay, in number of block, between the proposal is created and the vote starts. This can be increassed to leave time for users to buy voting power, or delegate it, before the voting of a proposal starts."
      },
      "votingPeriod()": {
        "details": "Delay, in number of blocks, between the vote start and vote ends. NOTE: The {votingDelay} can delay the start of the vote. This must be considered when setting the voting duration compared to the voting delay."
      }
    },
    "version": 1
  },
  "userdoc": {
    "kind": "user",
    "methods": {
      "COUNTING_MODE()": {
        "notice": "module:voting"
      },
      "votingDelay()": {
        "notice": "module:user-config"
      },
      "votingPeriod()": {
        "notice": "module:user-config"
      }
    },
    "version": 1
  }
}