{
  "contractName": "RariGovernor",
  "abi": [
    {
      "inputs": [
        {
          "internalType": "contract IVotes",
          "name": "_token",
          "type": "address"
        },
        {
          "internalType": "contract TimelockController",
          "name": "_timelock",
          "type": "address"
        }
      ],
      "stateMutability": "nonpayable",
      "type": "constructor"
    },
    {
      "inputs": [],
      "name": "Empty",
      "type": "error"
    },
    {
      "anonymous": false,
      "inputs": [
        {
          "indexed": false,
          "internalType": "uint256",
          "name": "proposalId",
          "type": "uint256"
        }
      ],
      "name": "ProposalCanceled",
      "type": "event"
    },
    {
      "anonymous": false,
      "inputs": [
        {
          "indexed": false,
          "internalType": "uint256",
          "name": "proposalId",
          "type": "uint256"
        },
        {
          "indexed": false,
          "internalType": "address",
          "name": "proposer",
          "type": "address"
        },
        {
          "indexed": false,
          "internalType": "address[]",
          "name": "targets",
          "type": "address[]"
        },
        {
          "indexed": false,
          "internalType": "uint256[]",
          "name": "values",
          "type": "uint256[]"
        },
        {
          "indexed": false,
          "internalType": "string[]",
          "name": "signatures",
          "type": "string[]"
        },
        {
          "indexed": false,
          "internalType": "bytes[]",
          "name": "calldatas",
          "type": "bytes[]"
        },
        {
          "indexed": false,
          "internalType": "uint256",
          "name": "startBlock",
          "type": "uint256"
        },
        {
          "indexed": false,
          "internalType": "uint256",
          "name": "endBlock",
          "type": "uint256"
        },
        {
          "indexed": false,
          "internalType": "string",
          "name": "description",
          "type": "string"
        }
      ],
      "name": "ProposalCreated",
      "type": "event"
    },
    {
      "anonymous": false,
      "inputs": [
        {
          "indexed": false,
          "internalType": "uint256",
          "name": "proposalId",
          "type": "uint256"
        }
      ],
      "name": "ProposalExecuted",
      "type": "event"
    },
    {
      "anonymous": false,
      "inputs": [
        {
          "indexed": false,
          "internalType": "uint256",
          "name": "proposalId",
          "type": "uint256"
        },
        {
          "indexed": false,
          "internalType": "uint256",
          "name": "eta",
          "type": "uint256"
        }
      ],
      "name": "ProposalQueued",
      "type": "event"
    },
    {
      "anonymous": false,
      "inputs": [
        {
          "indexed": false,
          "internalType": "uint256",
          "name": "oldQuorumNumerator",
          "type": "uint256"
        },
        {
          "indexed": false,
          "internalType": "uint256",
          "name": "newQuorumNumerator",
          "type": "uint256"
        }
      ],
      "name": "QuorumNumeratorUpdated",
      "type": "event"
    },
    {
      "anonymous": false,
      "inputs": [
        {
          "indexed": false,
          "internalType": "address",
          "name": "oldTimelock",
          "type": "address"
        },
        {
          "indexed": false,
          "internalType": "address",
          "name": "newTimelock",
          "type": "address"
        }
      ],
      "name": "TimelockChange",
      "type": "event"
    },
    {
      "anonymous": false,
      "inputs": [
        {
          "indexed": true,
          "internalType": "address",
          "name": "voter",
          "type": "address"
        },
        {
          "indexed": false,
          "internalType": "uint256",
          "name": "proposalId",
          "type": "uint256"
        },
        {
          "indexed": false,
          "internalType": "uint8",
          "name": "support",
          "type": "uint8"
        },
        {
          "indexed": false,
          "internalType": "uint256",
          "name": "weight",
          "type": "uint256"
        },
        {
          "indexed": false,
          "internalType": "string",
          "name": "reason",
          "type": "string"
        }
      ],
      "name": "VoteCast",
      "type": "event"
    },
    {
      "anonymous": false,
      "inputs": [
        {
          "indexed": true,
          "internalType": "address",
          "name": "voter",
          "type": "address"
        },
        {
          "indexed": false,
          "internalType": "uint256",
          "name": "proposalId",
          "type": "uint256"
        },
        {
          "indexed": false,
          "internalType": "uint8",
          "name": "support",
          "type": "uint8"
        },
        {
          "indexed": false,
          "internalType": "uint256",
          "name": "weight",
          "type": "uint256"
        },
        {
          "indexed": false,
          "internalType": "string",
          "name": "reason",
          "type": "string"
        },
        {
          "indexed": false,
          "internalType": "bytes",
          "name": "params",
          "type": "bytes"
        }
      ],
      "name": "VoteCastWithParams",
      "type": "event"
    },
    {
      "inputs": [],
      "name": "BALLOT_TYPEHASH",
      "outputs": [
        {
          "internalType": "bytes32",
          "name": "",
          "type": "bytes32"
        }
      ],
      "stateMutability": "view",
      "type": "function"
    },
    {
      "inputs": [],
      "name": "COUNTING_MODE",
      "outputs": [
        {
          "internalType": "string",
          "name": "",
          "type": "string"
        }
      ],
      "stateMutability": "pure",
      "type": "function"
    },
    {
      "inputs": [],
      "name": "EXTENDED_BALLOT_TYPEHASH",
      "outputs": [
        {
          "internalType": "bytes32",
          "name": "",
          "type": "bytes32"
        }
      ],
      "stateMutability": "view",
      "type": "function"
    },
    {
      "inputs": [
        {
          "internalType": "uint256",
          "name": "proposalId",
          "type": "uint256"
        }
      ],
      "name": "cancel",
      "outputs": [],
      "stateMutability": "nonpayable",
      "type": "function"
    },
    {
      "inputs": [
        {
          "internalType": "uint256",
          "name": "proposalId",
          "type": "uint256"
        },
        {
          "internalType": "uint8",
          "name": "support",
          "type": "uint8"
        }
      ],
      "name": "castVote",
      "outputs": [
        {
          "internalType": "uint256",
          "name": "",
          "type": "uint256"
        }
      ],
      "stateMutability": "nonpayable",
      "type": "function"
    },
    {
      "inputs": [
        {
          "internalType": "uint256",
          "name": "proposalId",
          "type": "uint256"
        },
        {
          "internalType": "uint8",
          "name": "support",
          "type": "uint8"
        },
        {
          "internalType": "uint8",
          "name": "v",
          "type": "uint8"
        },
        {
          "internalType": "bytes32",
          "name": "r",
          "type": "bytes32"
        },
        {
          "internalType": "bytes32",
          "name": "s",
          "type": "bytes32"
        }
      ],
      "name": "castVoteBySig",
      "outputs": [
        {
          "internalType": "uint256",
          "name": "",
          "type": "uint256"
        }
      ],
      "stateMutability": "nonpayable",
      "type": "function"
    },
    {
      "inputs": [
        {
          "internalType": "uint256",
          "name": "proposalId",
          "type": "uint256"
        },
        {
          "internalType": "uint8",
          "name": "support",
          "type": "uint8"
        },
        {
          "internalType": "string",
          "name": "reason",
          "type": "string"
        }
      ],
      "name": "castVoteWithReason",
      "outputs": [
        {
          "internalType": "uint256",
          "name": "",
          "type": "uint256"
        }
      ],
      "stateMutability": "nonpayable",
      "type": "function"
    },
    {
      "inputs": [
        {
          "internalType": "uint256",
          "name": "proposalId",
          "type": "uint256"
        },
        {
          "internalType": "uint8",
          "name": "support",
          "type": "uint8"
        },
        {
          "internalType": "string",
          "name": "reason",
          "type": "string"
        },
        {
          "internalType": "bytes",
          "name": "params",
          "type": "bytes"
        }
      ],
      "name": "castVoteWithReasonAndParams",
      "outputs": [
        {
          "internalType": "uint256",
          "name": "",
          "type": "uint256"
        }
      ],
      "stateMutability": "nonpayable",
      "type": "function"
    },
    {
      "inputs": [
        {
          "internalType": "uint256",
          "name": "proposalId",
          "type": "uint256"
        },
        {
          "internalType": "uint8",
          "name": "support",
          "type": "uint8"
        },
        {
          "internalType": "string",
          "name": "reason",
          "type": "string"
        },
        {
          "internalType": "bytes",
          "name": "params",
          "type": "bytes"
        },
        {
          "internalType": "uint8",
          "name": "v",
          "type": "uint8"
        },
        {
          "internalType": "bytes32",
          "name": "r",
          "type": "bytes32"
        },
        {
          "internalType": "bytes32",
          "name": "s",
          "type": "bytes32"
        }
      ],
      "name": "castVoteWithReasonAndParamsBySig",
      "outputs": [
        {
          "internalType": "uint256",
          "name": "",
          "type": "uint256"
        }
      ],
      "stateMutability": "nonpayable",
      "type": "function"
    },
    {
      "inputs": [
        {
          "internalType": "address[]",
          "name": "targets",
          "type": "address[]"
        },
        {
          "internalType": "uint256[]",
          "name": "values",
          "type": "uint256[]"
        },
        {
          "internalType": "bytes[]",
          "name": "calldatas",
          "type": "bytes[]"
        },
        {
          "internalType": "bytes32",
          "name": "descriptionHash",
          "type": "bytes32"
        }
      ],
      "name": "execute",
      "outputs": [
        {
          "internalType": "uint256",
          "name": "",
          "type": "uint256"
        }
      ],
      "stateMutability": "payable",
      "type": "function"
    },
    {
      "inputs": [
        {
          "internalType": "uint256",
          "name": "proposalId",
          "type": "uint256"
        }
      ],
      "name": "execute",
      "outputs": [],
      "stateMutability": "payable",
      "type": "function"
    },
    {
      "inputs": [
        {
          "internalType": "uint256",
          "name": "proposalId",
          "type": "uint256"
        }
      ],
      "name": "getActions",
      "outputs": [
        {
          "internalType": "address[]",
          "name": "targets",
          "type": "address[]"
        },
        {
          "internalType": "uint256[]",
          "name": "values",
          "type": "uint256[]"
        },
        {
          "internalType": "string[]",
          "name": "signatures",
          "type": "string[]"
        },
        {
          "internalType": "bytes[]",
          "name": "calldatas",
          "type": "bytes[]"
        }
      ],
      "stateMutability": "view",
      "type": "function"
    },
    {
      "inputs": [
        {
          "internalType": "uint256",
          "name": "proposalId",
          "type": "uint256"
        },
        {
          "internalType": "address",
          "name": "voter",
          "type": "address"
        }
      ],
      "name": "getReceipt",
      "outputs": [
        {
          "components": [
            {
              "internalType": "bool",
              "name": "hasVoted",
              "type": "bool"
            },
            {
              "internalType": "uint8",
              "name": "support",
              "type": "uint8"
            },
            {
              "internalType": "uint96",
              "name": "votes",
              "type": "uint96"
            }
          ],
          "internalType": "struct IGovernorCompatibilityBravo.Receipt",
          "name": "",
          "type": "tuple"
        }
      ],
      "stateMutability": "view",
      "type": "function"
    },
    {
      "inputs": [
        {
          "internalType": "address",
          "name": "account",
          "type": "address"
        },
        {
          "internalType": "uint256",
          "name": "blockNumber",
          "type": "uint256"
        },
        {
          "internalType": "bytes",
          "name": "params",
          "type": "bytes"
        }
      ],
      "name": "getVotesWithParams",
      "outputs": [
        {
          "internalType": "uint256",
          "name": "",
          "type": "uint256"
        }
      ],
      "stateMutability": "view",
      "type": "function"
    },
    {
      "inputs": [
        {
          "internalType": "uint256",
          "name": "proposalId",
          "type": "uint256"
        },
        {
          "internalType": "address",
          "name": "account",
          "type": "address"
        }
      ],
      "name": "hasVoted",
      "outputs": [
        {
          "internalType": "bool",
          "name": "",
          "type": "bool"
        }
      ],
      "stateMutability": "view",
      "type": "function"
    },
    {
      "inputs": [
        {
          "internalType": "address[]",
          "name": "targets",
          "type": "address[]"
        },
        {
          "internalType": "uint256[]",
          "name": "values",
          "type": "uint256[]"
        },
        {
          "internalType": "bytes[]",
          "name": "calldatas",
          "type": "bytes[]"
        },
        {
          "internalType": "bytes32",
          "name": "descriptionHash",
          "type": "bytes32"
        }
      ],
      "name": "hashProposal",
      "outputs": [
        {
          "internalType": "uint256",
          "name": "",
          "type": "uint256"
        }
      ],
      "stateMutability": "pure",
      "type": "function"
    },
    {
      "inputs": [],
      "name": "name",
      "outputs": [
        {
          "internalType": "string",
          "name": "",
          "type": "string"
        }
      ],
      "stateMutability": "view",
      "type": "function"
    },
    {
      "inputs": [
        {
          "internalType": "address",
          "name": "",
          "type": "address"
        },
        {
          "internalType": "address",
          "name": "",
          "type": "address"
        },
        {
          "internalType": "uint256[]",
          "name": "",
          "type": "uint256[]"
        },
        {
          "internalType": "uint256[]",
          "name": "",
          "type": "uint256[]"
        },
        {
          "internalType": "bytes",
          "name": "",
          "type": "bytes"
        }
      ],
      "name": "onERC1155BatchReceived",
      "outputs": [
        {
          "internalType": "bytes4",
          "name": "",
          "type": "bytes4"
        }
      ],
      "stateMutability": "nonpayable",
      "type": "function"
    },
    {
      "inputs": [
        {
          "internalType": "address",
          "name": "",
          "type": "address"
        },
        {
          "internalType": "address",
          "name": "",
          "type": "address"
        },
        {
          "internalType": "uint256",
          "name": "",
          "type": "uint256"
        },
        {
          "internalType": "uint256",
          "name": "",
          "type": "uint256"
        },
        {
          "internalType": "bytes",
          "name": "",
          "type": "bytes"
        }
      ],
      "name": "onERC1155Received",
      "outputs": [
        {
          "internalType": "bytes4",
          "name": "",
          "type": "bytes4"
        }
      ],
      "stateMutability": "nonpayable",
      "type": "function"
    },
    {
      "inputs": [
        {
          "internalType": "address",
          "name": "",
          "type": "address"
        },
        {
          "internalType": "address",
          "name": "",
          "type": "address"
        },
        {
          "internalType": "uint256",
          "name": "",
          "type": "uint256"
        },
        {
          "internalType": "bytes",
          "name": "",
          "type": "bytes"
        }
      ],
      "name": "onERC721Received",
      "outputs": [
        {
          "internalType": "bytes4",
          "name": "",
          "type": "bytes4"
        }
      ],
      "stateMutability": "nonpayable",
      "type": "function"
    },
    {
      "inputs": [
        {
          "internalType": "uint256",
          "name": "proposalId",
          "type": "uint256"
        }
      ],
      "name": "proposalDeadline",
      "outputs": [
        {
          "internalType": "uint256",
          "name": "",
          "type": "uint256"
        }
      ],
      "stateMutability": "view",
      "type": "function"
    },
    {
      "inputs": [
        {
          "internalType": "uint256",
          "name": "proposalId",
          "type": "uint256"
        }
      ],
      "name": "proposalEta",
      "outputs": [
        {
          "internalType": "uint256",
          "name": "",
          "type": "uint256"
        }
      ],
      "stateMutability": "view",
      "type": "function"
    },
    {
      "inputs": [
        {
          "internalType": "uint256",
          "name": "proposalId",
          "type": "uint256"
        }
      ],
      "name": "proposalSnapshot",
      "outputs": [
        {
          "internalType": "uint256",
          "name": "",
          "type": "uint256"
        }
      ],
      "stateMutability": "view",
      "type": "function"
    },
    {
      "inputs": [
        {
          "internalType": "uint256",
          "name": "proposalId",
          "type": "uint256"
        }
      ],
      "name": "proposals",
      "outputs": [
        {
          "internalType": "uint256",
          "name": "id",
          "type": "uint256"
        },
        {
          "internalType": "address",
          "name": "proposer",
          "type": "address"
        },
        {
          "internalType": "uint256",
          "name": "eta",
          "type": "uint256"
        },
        {
          "internalType": "uint256",
          "name": "startBlock",
          "type": "uint256"
        },
        {
          "internalType": "uint256",
          "name": "endBlock",
          "type": "uint256"
        },
        {
          "internalType": "uint256",
          "name": "forVotes",
          "type": "uint256"
        },
        {
          "internalType": "uint256",
          "name": "againstVotes",
          "type": "uint256"
        },
        {
          "internalType": "uint256",
          "name": "abstainVotes",
          "type": "uint256"
        },
        {
          "internalType": "bool",
          "name": "canceled",
          "type": "bool"
        },
        {
          "internalType": "bool",
          "name": "executed",
          "type": "bool"
        }
      ],
      "stateMutability": "view",
      "type": "function"
    },
    {
      "inputs": [
        {
          "internalType": "address[]",
          "name": "targets",
          "type": "address[]"
        },
        {
          "internalType": "uint256[]",
          "name": "values",
          "type": "uint256[]"
        },
        {
          "internalType": "bytes[]",
          "name": "calldatas",
          "type": "bytes[]"
        },
        {
          "internalType": "bytes32",
          "name": "descriptionHash",
          "type": "bytes32"
        }
      ],
      "name": "queue",
      "outputs": [
        {
          "internalType": "uint256",
          "name": "",
          "type": "uint256"
        }
      ],
      "stateMutability": "nonpayable",
      "type": "function"
    },
    {
      "inputs": [
        {
          "internalType": "uint256",
          "name": "proposalId",
          "type": "uint256"
        }
      ],
      "name": "queue",
      "outputs": [],
      "stateMutability": "nonpayable",
      "type": "function"
    },
    {
      "inputs": [],
      "name": "quorumDenominator",
      "outputs": [
        {
          "internalType": "uint256",
          "name": "",
          "type": "uint256"
        }
      ],
      "stateMutability": "view",
      "type": "function"
    },
    {
      "inputs": [
        {
          "internalType": "uint256",
          "name": "blockNumber",
          "type": "uint256"
        }
      ],
      "name": "quorumNumerator",
      "outputs": [
        {
          "internalType": "uint256",
          "name": "",
          "type": "uint256"
        }
      ],
      "stateMutability": "view",
      "type": "function"
    },
    {
      "inputs": [],
      "name": "quorumNumerator",
      "outputs": [
        {
          "internalType": "uint256",
          "name": "",
          "type": "uint256"
        }
      ],
      "stateMutability": "view",
      "type": "function"
    },
    {
      "inputs": [],
      "name": "quorumVotes",
      "outputs": [
        {
          "internalType": "uint256",
          "name": "",
          "type": "uint256"
        }
      ],
      "stateMutability": "view",
      "type": "function"
    },
    {
      "inputs": [
        {
          "internalType": "address",
          "name": "target",
          "type": "address"
        },
        {
          "internalType": "uint256",
          "name": "value",
          "type": "uint256"
        },
        {
          "internalType": "bytes",
          "name": "data",
          "type": "bytes"
        }
      ],
      "name": "relay",
      "outputs": [],
      "stateMutability": "nonpayable",
      "type": "function"
    },
    {
      "inputs": [],
      "name": "timelock",
      "outputs": [
        {
          "internalType": "address",
          "name": "",
          "type": "address"
        }
      ],
      "stateMutability": "view",
      "type": "function"
    },
    {
      "inputs": [],
      "name": "token",
      "outputs": [
        {
          "internalType": "contract IVotes",
          "name": "",
          "type": "address"
        }
      ],
      "stateMutability": "view",
      "type": "function"
    },
    {
      "inputs": [
        {
          "internalType": "uint256",
          "name": "newQuorumNumerator",
          "type": "uint256"
        }
      ],
      "name": "updateQuorumNumerator",
      "outputs": [],
      "stateMutability": "nonpayable",
      "type": "function"
    },
    {
      "inputs": [
        {
          "internalType": "contract TimelockController",
          "name": "newTimelock",
          "type": "address"
        }
      ],
      "name": "updateTimelock",
      "outputs": [],
      "stateMutability": "nonpayable",
      "type": "function"
    },
    {
      "inputs": [],
      "name": "version",
      "outputs": [
        {
          "internalType": "string",
          "name": "",
          "type": "string"
        }
      ],
      "stateMutability": "view",
      "type": "function"
    },
    {
      "stateMutability": "payable",
      "type": "receive"
    },
    {
      "inputs": [],
      "name": "votingDelay",
      "outputs": [
        {
          "internalType": "uint256",
          "name": "",
          "type": "uint256"
        }
      ],
      "stateMutability": "pure",
      "type": "function"
    },
    {
      "inputs": [],
      "name": "votingPeriod",
      "outputs": [
        {
          "internalType": "uint256",
          "name": "",
          "type": "uint256"
        }
      ],
      "stateMutability": "pure",
      "type": "function"
    },
    {
      "inputs": [],
      "name": "proposalThreshold",
      "outputs": [
        {
          "internalType": "uint256",
          "name": "",
          "type": "uint256"
        }
      ],
      "stateMutability": "pure",
      "type": "function"
    },
    {
      "inputs": [
        {
          "internalType": "uint256",
          "name": "blockNumber",
          "type": "uint256"
        }
      ],
      "name": "quorum",
      "outputs": [
        {
          "internalType": "uint256",
          "name": "",
          "type": "uint256"
        }
      ],
      "stateMutability": "view",
      "type": "function"
    },
    {
      "inputs": [
        {
          "internalType": "address",
          "name": "account",
          "type": "address"
        },
        {
          "internalType": "uint256",
          "name": "blockNumber",
          "type": "uint256"
        }
      ],
      "name": "getVotes",
      "outputs": [
        {
          "internalType": "uint256",
          "name": "",
          "type": "uint256"
        }
      ],
      "stateMutability": "view",
      "type": "function"
    },
    {
      "inputs": [
        {
          "internalType": "uint256",
          "name": "proposalId",
          "type": "uint256"
        }
      ],
      "name": "state",
      "outputs": [
        {
          "internalType": "enum IGovernor.ProposalState",
          "name": "",
          "type": "uint8"
        }
      ],
      "stateMutability": "view",
      "type": "function"
    },
    {
      "inputs": [
        {
          "internalType": "address[]",
          "name": "targets",
          "type": "address[]"
        },
        {
          "internalType": "uint256[]",
          "name": "values",
          "type": "uint256[]"
        },
        {
          "internalType": "bytes[]",
          "name": "calldatas",
          "type": "bytes[]"
        },
        {
          "internalType": "string",
          "name": "description",
          "type": "string"
        }
      ],
      "name": "propose",
      "outputs": [
        {
          "internalType": "uint256",
          "name": "",
          "type": "uint256"
        }
      ],
      "stateMutability": "nonpayable",
      "type": "function"
    },
    {
      "inputs": [
        {
          "internalType": "address[]",
          "name": "targets",
          "type": "address[]"
        },
        {
          "internalType": "uint256[]",
          "name": "values",
          "type": "uint256[]"
        },
        {
          "internalType": "string[]",
          "name": "signatures",
          "type": "string[]"
        },
        {
          "internalType": "bytes[]",
          "name": "calldatas",
          "type": "bytes[]"
        },
        {
          "internalType": "string",
          "name": "description",
          "type": "string"
        }
      ],
      "name": "propose",
      "outputs": [
        {
          "internalType": "uint256",
          "name": "",
          "type": "uint256"
        }
      ],
      "stateMutability": "nonpayable",
      "type": "function"
    },
    {
      "inputs": [
        {
          "internalType": "bytes4",
          "name": "interfaceId",
          "type": "bytes4"
        }
      ],
      "name": "supportsInterface",
      "outputs": [
        {
          "internalType": "bool",
          "name": "",
          "type": "bool"
        }
      ],
      "stateMutability": "view",
      "type": "function"
    }
  ],
  "bytecode": "0x6101606040523480156200001257600080fd5b5060405162005600380380620056008339810160408190526200003591620006bd565b806004836040518060400160405280600c81526020016b2930b934a3b7bb32b93737b960a11b815250806200006f6200014460201b60201c565b815160208084019190912082518383012060e08290526101008190524660a0818152604080517f8b73c3c69bb8fe3d512ecc4cf759cc79239f7b179b0ffacaa9a75d522b39400f81880181905281830187905260608201869052608082019490945230818401528151808203909301835260c00190528051940193909320919290916080523060c052610120525050825162000115925060009150602084019062000608565b50506001600160a01b0316610140526200012f816200015f565b506200013b81620002db565b50505062000774565b6040805180820190915260018152603160f81b602082015290565b6064811115620001e85760405162461bcd60e51b815260206004820152604360248201527f476f7665726e6f72566f74657351756f72756d4672616374696f6e3a2071756f60448201527f72756d4e756d657261746f72206f7665722071756f72756d44656e6f6d696e616064820152623a37b960e91b608482015260a4015b60405180910390fd5b6000620001f462000344565b90508015801590620002065750600654155b15620002815760066000016040518060400160405280600063ffffffff1681526020016200023f846200037360201b62001f5a1760201c565b6001600160e01b0390811690915282546001810184556000938452602093849020835194909301519091166401000000000263ffffffff909316929092179101555b6200029c826006620003e260201b62001fc71790919060201c565b505060408051828152602081018490527f0553476bf02ef2726e8ce5ced78d63e26e602e4a2257b1f559418e24b4633997910160405180910390a15050565b600754604080516001600160a01b03928316815291831660208301527f08f74ea46ef7894f65eabfb5e6e695de773a000b47c529ab559178069b226401910160405180910390a1600780546001600160a01b0319166001600160a01b0392909216919091179055565b600654600090156200036c576200036760066200053e60201b620020f21760201c565b905090565b5060055490565b60006001600160e01b03821115620003de5760405162461bcd60e51b815260206004820152602760248201527f53616665436173743a2076616c756520646f65736e27742066697420696e20326044820152663234206269747360c81b6064820152608401620001df565b5090565b8154600090819081620003f5866200053e565b9050600082118015620004395750438662000412600185620006fc565b8154811062000425576200042562000722565b60009182526020909120015463ffffffff16145b15620004ad5762000455856200037360201b62001f5a1760201c565b8662000463600185620006fc565b8154811062000476576200047662000722565b9060005260206000200160000160046101000a8154816001600160e01b0302191690836001600160e01b0316021790555062000535565b856000016040518060400160405280620004d243620005a160201b6200214e1760201c565b63ffffffff168152602001620004f3886200037360201b62001f5a1760201c565b6001600160e01b0390811690915282546001810184556000938452602093849020835194909301519091166401000000000263ffffffff909316929092179101555b95939450505050565b805460009080156200058e578262000558600183620006fc565b815481106200056b576200056b62000722565b60009182526020909120015464010000000090046001600160e01b031662000591565b60005b6001600160e01b03169392505050565b600063ffffffff821115620003de5760405162461bcd60e51b815260206004820152602660248201527f53616665436173743a2076616c756520646f65736e27742066697420696e203360448201526532206269747360d01b6064820152608401620001df565b828054620006169062000738565b90600052602060002090601f0160209004810192826200063a576000855562000685565b82601f106200065557805160ff191683800117855562000685565b8280016001018555821562000685579182015b828111156200068557825182559160200191906001019062000668565b50620003de9291505b80821115620003de57600081556001016200068e565b6001600160a01b0381168114620006ba57600080fd5b50565b60008060408385031215620006d157600080fd5b8251620006de81620006a4565b6020840151909250620006f181620006a4565b809150509250929050565b6000828210156200071d57634e487b7160e01b600052601160045260246000fd5b500390565b634e487b7160e01b600052603260045260246000fd5b600181811c908216806200074d57607f821691505b6020821081036200076e57634e487b7160e01b600052602260045260246000fd5b50919050565b60805160a05160c05160e051610100516101205161014051614e23620007dd600039600081816109cc01528181612aa90152612ca601526000612e2201526000612e7101526000612e4c01526000612da501526000612dcf01526000612df90152614e236000f3fe6080604052600436106102765760003560e01c80637b3c71d31161014f578063c59057e4116100c1578063e23a9a521161007a578063e23a9a5214610884578063eb9019d41461094e578063f23a6e611461096e578063f8ce560a1461099a578063fc0c546a146109ba578063fe0d94c1146109ee57600080fd5b8063c59057e414610778578063d33219b414610798578063da95691a146107ca578063dd4e2ba5146107ea578063ddf0b00914610830578063deaaa7cc1461085057600080fd5b8063a890c91011610113578063a890c910146106b8578063ab58fb8e146106d8578063b58131b0146106f8578063bc197c811461070c578063c01f9e3714610738578063c28bc2fa1461075857600080fd5b80637b3c71d31461062f5780637d5e81e21461064f57806397c3d3341461066f5780639a802a6d14610683578063a7713a70146106a357600080fd5b80632fe3e261116101e857806340e58ee5116101ac57806340e58ee51461053b578063438596321461055b57806354fd4d50146105a557806356781388146105cf5780635f398a14146105ef57806360c4247f1461060f57600080fd5b80632fe3e26114610476578063328dd982146104aa5780633932abb1146104da5780633bccf4fd146104ee5780633e4f49e61461050e57600080fd5b806306fdde031161023a57806306fdde03146103a8578063150b7a02146103ca578063160cbed71461040e57806324bc1a641461042e5780632656227d146104435780632d63f6931461045657600080fd5b8063013cf08b1461029e57806301ffc9a71461031957806302a251a314610349578063034201811461036857806306f3f9e61461038857600080fd5b366102995730610284610a01565b6001600160a01b03161461029757600080fd5b005b600080fd5b3480156102aa57600080fd5b506102be6102b9366004613dfa565b610a1a565b604080519a8b526001600160a01b0390991660208b0152978901969096526060880194909452608087019290925260a086015260c085015260e084015215156101008301521515610120820152610140015b60405180910390f35b34801561032557600080fd5b50610339610334366004613e13565b610ac3565b6040519015158152602001610310565b34801561035557600080fd5b506101145b604051908152602001610310565b34801561037457600080fd5b5061035a610383366004613f49565b610ad4565b34801561039457600080fd5b506102976103a3366004613dfa565b610bcc565b3480156103b457600080fd5b506103bd610c5f565b604051610310919061404b565b3480156103d657600080fd5b506103f56103e5366004614073565b630a85bd0160e11b949350505050565b6040516001600160e01b03199091168152602001610310565b34801561041a57600080fd5b5061035a61042936600461424f565b610cf1565b34801561043a57600080fd5b5061035a610ef2565b61035a61045136600461424f565b610f02565b34801561046257600080fd5b5061035a610471366004613dfa565b610fef565b34801561048257600080fd5b5061035a7fb3b3f3b703cd84ce352197dcff232b1b5d3cfb2025ce47cf04742d0651f1af8881565b3480156104b657600080fd5b506104ca6104c5366004613dfa565b611026565b60405161031094939291906143a7565b3480156104e657600080fd5b50602e61035a565b3480156104fa57600080fd5b5061035a6105093660046143f4565b6112b7565b34801561051a57600080fd5b5061052e610529366004613dfa565b61132d565b6040516103109190614458565b34801561054757600080fd5b50610297610556366004613dfa565b611338565b34801561056757600080fd5b50610339610576366004614480565b60008281526004602090815260408083206001600160a01b038516845260080190915290205460ff1692915050565b3480156105b157600080fd5b506040805180820190915260018152603160f81b60208201526103bd565b3480156105db57600080fd5b5061035a6105ea3660046144b0565b61164a565b3480156105fb57600080fd5b5061035a61060a3660046144dc565b611673565b34801561061b57600080fd5b5061035a61062a366004613dfa565b6116bd565b34801561063b57600080fd5b5061035a61064a36600461455f565b611755565b34801561065b57600080fd5b5061035a61066a3660046145b8565b6117a7565b34801561067b57600080fd5b50606461035a565b34801561068f57600080fd5b5061035a61069e366004614658565b6117be565b3480156106af57600080fd5b5061035a6117d5565b3480156106c457600080fd5b506102976106d33660046146b0565b6117f1565b3480156106e457600080fd5b5061035a6106f3366004613dfa565b611878565b34801561070457600080fd5b50600061035a565b34801561071857600080fd5b506103f56107273660046146cd565b63bc197c8160e01b95945050505050565b34801561074457600080fd5b5061035a610753366004613dfa565b611912565b34801561076457600080fd5b50610297610773366004614760565b611941565b34801561078457600080fd5b5061035a61079336600461424f565b611a08565b3480156107a457600080fd5b506007546001600160a01b03165b6040516001600160a01b039091168152602001610310565b3480156107d657600080fd5b5061035a6107e5366004614822565b611a42565b3480156107f657600080fd5b5060408051808201909152601a81527f737570706f72743d627261766f2671756f72756d3d627261766f00000000000060208201526103bd565b34801561083c57600080fd5b5061029761084b366004613dfa565b611a67565b34801561085c57600080fd5b5061035a7f150214d74d59b7d1e90c73fc22ef3d991dd0a76b046543d4d80ab92d2a50328f81565b34801561089057600080fd5b5061091e61089f366004614480565b60408051606081018252600080825260208201819052918101919091525060009182526004602090815260408084206001600160a01b0393909316845260089092018152918190208151606081018352905460ff8082161515835261010082041693820193909352620100009092046001600160601b03169082015290565b6040805182511515815260208084015160ff1690820152918101516001600160601b031690820152606001610310565b34801561095a57600080fd5b5061035a6109693660046148c3565b611cd5565b34801561097a57600080fd5b506103f56109893660046148ef565b63f23a6e6160e01b95945050505050565b3480156109a657600080fd5b5061035a6109b5366004613dfa565b611ce1565b3480156109c657600080fd5b506107b27f000000000000000000000000000000000000000000000000000000000000000081565b6102976109fc366004613dfa565b611cec565b6000610a156007546001600160a01b031690565b905090565b8060008080808080808080610a2e8a611878565b9750610a398b610fef565b9650610a448b611912565b60008c815260046020526040812080546005820154600683015460078401546001600160a01b039093169e50949a509850929650919450610a848d61132d565b90506002816007811115610a9a57610a9a614442565b1493506007816007811115610ab157610ab1614442565b14925050509193959799509193959799565b6000610ace826121b3565b92915050565b600080610b78610b707fb3b3f3b703cd84ce352197dcff232b1b5d3cfb2025ce47cf04742d0651f1af888c8c8c8c604051610b10929190614957565b60405180910390208b80519060200120604051602001610b55959493929190948552602085019390935260ff9190911660408401526060830152608082015260a00190565b604051602081830303815290604052805190602001206121d8565b868686612226565b9050610bbe8a828b8b8b8080601f0160208091040260200160405190810160405280939291908181526020018383808284376000920191909152508d9250612244915050565b9a9950505050505050505050565b610bd4610a01565b6001600160a01b0316336001600160a01b031614610c0d5760405162461bcd60e51b8152600401610c0490614967565b60405180910390fd5b30610c16610a01565b6001600160a01b031614610c535760008036604051610c36929190614957565b604051809103902090505b80610c4c60026123a9565b03610c4157505b610c5c81612428565b50565b606060008054610c6e9061499e565b80601f0160208091040260200160405190810160405280929190818152602001828054610c9a9061499e565b8015610ce75780601f10610cbc57610100808354040283529160200191610ce7565b820191906000526020600020905b815481529060010190602001808311610cca57829003601f168201915b5050505050905090565b600080610d0086868686611a08565b90506004610d0d8261132d565b6007811115610d1e57610d1e614442565b14610d3b5760405162461bcd60e51b8152600401610c04906149d8565b6007546040805163793d064960e11b815290516000926001600160a01b03169163f27a0c929160048083019260209291908290030181865afa158015610d85573d6000803e3d6000fd5b505050506040513d601f19601f82011682018060405250810190610da99190614a19565b60075460405163b1c5f42760e01b81529192506001600160a01b03169063b1c5f42790610de3908a908a908a906000908b90600401614a32565b602060405180830381865afa158015610e00573d6000803e3d6000fd5b505050506040513d601f19601f82011682018060405250810190610e249190614a19565b6000838152600860205260408082209290925560075491516308f2a0bb60e41b81526001600160a01b0390921691638f2a0bb091610e6f918b918b918b91908b908990600401614a80565b600060405180830381600087803b158015610e8957600080fd5b505af1158015610e9d573d6000803e3d6000fd5b505050507f9a2e42fd6722813d69113e7d0079d3d940171428df7373df9c7f7617cfda2892828242610ecf9190614aee565b604080519283526020830191909152015b60405180910390a15095945050505050565b6000610a156109b5600143614b06565b600080610f1186868686611a08565b90506000610f1e8261132d565b90506004816007811115610f3457610f34614442565b1480610f5157506005816007811115610f4f57610f4f614442565b145b610f6d5760405162461bcd60e51b8152600401610c04906149d8565b600082815260016020818152604092839020600201805460ff191690921790915590518381527f712ae1383f79ac853f8d882153778e0260ef8f03b504e2866e0593e04d2b291f910160405180910390a1610fcb8288888888612575565b610fd88288888888612616565b610fe58288888888612623565b5095945050505050565b60008181526001602090815260408083208151928301909152546001600160401b0316908190525b6001600160401b031692915050565b606080606080600060046000878152602001908152602001600020905080600101816002018260030183600401838054806020026020016040519081016040528092919081815260200182805480156110a857602002820191906000526020600020905b81546001600160a01b0316815260019091019060200180831161108a575b50505050509350828054806020026020016040519081016040528092919081815260200182805480156110fa57602002820191906000526020600020905b8154815260200190600101908083116110e6575b5050505050925081805480602002602001604051908101604052809291908181526020016000905b828210156111ce5783829060005260206000200180546111419061499e565b80601f016020809104026020016040519081016040528092919081815260200182805461116d9061499e565b80156111ba5780601f1061118f576101008083540402835291602001916111ba565b820191906000526020600020905b81548152906001019060200180831161119d57829003601f168201915b505050505081526020019060010190611122565b50505050915080805480602002602001604051908101604052809291908181526020016000905b828210156112a15783829060005260206000200180546112149061499e565b80601f01602080910402602001604051908101604052809291908181526020018280546112409061499e565b801561128d5780601f106112625761010080835404028352916020019161128d565b820191906000526020600020905b81548152906001019060200180831161127057829003601f168201915b5050505050815260200190600101906111f5565b5050505090509450945094509450509193509193565b604080517f150214d74d59b7d1e90c73fc22ef3d991dd0a76b046543d4d80ab92d2a50328f602082015290810186905260ff85166060820152600090819061130590610b7090608001610b55565b90506113228782886040518060200160405280600081525061265c565b979650505050505050565b6000610ace8261267f565b600081815260046020526040902080546001600160a01b0316336001600160a01b0316148061138057506000815461137e906001600160a01b0316610969600143614b06565b105b6113dc5760405162461bcd60e51b815260206004820152602760248201527f476f7665726e6f72427261766f3a2070726f706f7365722061626f76652074686044820152661c995cda1bdb1960ca1b6064820152608401610c04565b6116458160010180548060200260200160405190810160405280929190818152602001828054801561143757602002820191906000526020600020905b81546001600160a01b03168152600190910190602001808311611419575b50505050508260020180548060200260200160405190810160405280929190818152602001828054801561148a57602002820191906000526020600020905b815481526020019060010190808311611476575b505050505061163b84600301805480602002602001604051908101604052809291908181526020016000905b828210156115625783829060005260206000200180546114d59061499e565b80601f01602080910402602001604051908101604052809291908181526020018280546115019061499e565b801561154e5780601f106115235761010080835404028352916020019161154e565b820191906000526020600020905b81548152906001019060200180831161153157829003601f168201915b5050505050815260200190600101906114b6565b50505060048701805460408051602080840282018101909252828152935060009084015b828210156116325783829060005260206000200180546115a59061499e565b80601f01602080910402602001604051908101604052809291908181526020018280546115d19061499e565b801561161e5780601f106115f35761010080835404028352916020019161161e565b820191906000526020600020905b81548152906001019060200180831161160157829003601f168201915b505050505081526020019060010190611586565b505050506127c9565b84600901546128fb565b505050565b60008033905061166b8482856040518060200160405280600081525061265c565b949350505050565b60008033905061132287828888888080601f0160208091040260200160405190810160405280939291908181526020018383808284376000920191909152508a9250612244915050565b6006546000908082036116d4575050600554919050565b600060066116e3600184614b06565b815481106116f3576116f3614b1d565b60009182526020918290206040805180820190915291015463ffffffff81168083526401000000009091046001600160e01b0316928201929092529150841061174a57602001516001600160e01b03169392505050565b61166b600685612909565b60008033905061179d86828787878080601f01602080910402602001604051908101604052809392919081815260200183838082843760009201919091525061265c92505050565b9695505050505050565b60006117b585858585612a18565b95945050505050565b60006117cb848484612a80565b90505b9392505050565b600654600090156117ea57610a1560066120f2565b5060055490565b6117f9610a01565b6001600160a01b0316336001600160a01b0316146118295760405162461bcd60e51b8152600401610c0490614967565b30611832610a01565b6001600160a01b03161461186f5760008036604051611852929190614957565b604051809103902090505b8061186860026123a9565b0361185d57505b610c5c81612b16565b60075460008281526008602052604080822054905163d45c443560e01b81526004810191909152909182916001600160a01b039091169063d45c443590602401602060405180830381865afa1580156118d5573d6000803e3d6000fd5b505050506040513d601f19601f820116820180604052508101906118f99190614a19565b90508060011461190957806117ce565b60009392505050565b60008181526001602081815260408084208151928301909152909101546001600160401b031690819052611017565b611949610a01565b6001600160a01b0316336001600160a01b0316146119795760405162461bcd60e51b8152600401610c0490614967565b30611982610a01565b6001600160a01b0316146119bf57600080366040516119a2929190614957565b604051809103902090505b806119b860026123a9565b036119ad57505b611a018483838080601f016020809104026020016040519081016040528093929190818152602001838380828437600092019190915250889250612b7f915050565b5050505050565b600084848484604051602001611a219493929190614b33565b60408051601f19818403018152919052805160209091012095945050505050565b6000611a52338787878787612ba5565b61179d8686611a6187876127c9565b856117a7565b600081815260046020908152604091829020600181018054845181850281018501909552808552919361164593909290830182828015611ad057602002820191906000526020600020905b81546001600160a01b03168152600190910190602001808311611ab2575b505050505082600201805480602002602001604051908101604052809291908181526020018280548015611b2357602002820191906000526020600020905b815481526020019060010190808311611b0f575b5050505050611ccb84600301805480602002602001604051908101604052809291908181526020016000905b82821015611bfb578382906000526020600020018054611b6e9061499e565b80601f0160208091040260200160405190810160405280929190818152602001828054611b9a9061499e565b8015611be75780601f10611bbc57610100808354040283529160200191611be7565b820191906000526020600020905b815481529060010190602001808311611bca57829003601f168201915b505050505081526020019060010190611b4f565b50505060048701805460408051602080840282018101909252828152935060009084015b82821015611632578382906000526020600020018054611c3e9061499e565b80601f0160208091040260200160405190810160405280929190818152602001828054611c6a9061499e565b8015611cb75780601f10611c8c57610100808354040283529160200191611cb7565b820191906000526020600020905b815481529060010190602001808311611c9a57829003601f168201915b505050505081526020019060010190611c1f565b8460090154610cf1565b60006117ce8383612c62565b6000610ace82612c83565b600081815260046020908152604091829020600181018054845181850281018501909552808552919361164593909290830182828015611d5557602002820191906000526020600020905b81546001600160a01b03168152600190910190602001808311611d37575b505050505082600201805480602002602001604051908101604052809291908181526020018280548015611da857602002820191906000526020600020905b815481526020019060010190808311611d94575b5050505050611f5084600301805480602002602001604051908101604052809291908181526020016000905b82821015611e80578382906000526020600020018054611df39061499e565b80601f0160208091040260200160405190810160405280929190818152602001828054611e1f9061499e565b8015611e6c5780601f10611e4157610100808354040283529160200191611e6c565b820191906000526020600020905b815481529060010190602001808311611e4f57829003601f168201915b505050505081526020019060010190611dd4565b50505060048701805460408051602080840282018101909252828152935060009084015b82821015611632578382906000526020600020018054611ec39061499e565b80601f0160208091040260200160405190810160405280929190818152602001828054611eef9061499e565b8015611f3c5780601f10611f1157610100808354040283529160200191611f3c565b820191906000526020600020905b815481529060010190602001808311611f1f57829003601f168201915b505050505081526020019060010190611ea4565b8460090154610f02565b60006001600160e01b03821115611fc35760405162461bcd60e51b815260206004820152602760248201527f53616665436173743a2076616c756520646f65736e27742066697420696e20326044820152663234206269747360c81b6064820152608401610c04565b5090565b8154600090819081611fd8866120f2565b905060008211801561201657504386611ff2600185614b06565b8154811061200257612002614b1d565b60009182526020909120015463ffffffff16145b156120765761202485611f5a565b86612030600185614b06565b8154811061204057612040614b1d565b9060005260206000200160000160046101000a8154816001600160e01b0302191690836001600160e01b031602179055506120e4565b85600001604051806040016040528061208e4361214e565b63ffffffff1681526020016120a288611f5a565b6001600160e01b0390811690915282546001810184556000938452602093849020835194909301519091166401000000000263ffffffff909316929092179101555b9250839150505b9250929050565b8054600090801561213b5782612109600183614b06565b8154811061211957612119614b1d565b60009182526020909120015464010000000090046001600160e01b031661213e565b60005b6001600160e01b03169392505050565b600063ffffffff821115611fc35760405162461bcd60e51b815260206004820152602660248201527f53616665436173743a2076616c756520646f65736e27742066697420696e203360448201526532206269747360d01b6064820152608401610c04565b60006001600160e01b03198216636e665ced60e01b1480610ace5750610ace82612d2d565b6000610ace6121e5612d98565b8360405161190160f01b6020820152602281018390526042810182905260009060620160405160208183030381529060405280519060200120905092915050565b600080600061223787878787612ebf565b91509150610fe581612fac565b600085815260016020819052604082209061225e8861132d565b600781111561226f5761226f614442565b146122c85760405162461bcd60e51b815260206004820152602360248201527f476f7665726e6f723a20766f7465206e6f742063757272656e746c792061637460448201526269766560e81b6064820152608401610c04565b604080516020810190915281546001600160401b0316908190526000906122f190889086612a80565b90506123008888888488613162565b835160000361235557866001600160a01b03167fb8e138887d0aa13bab447e82de9d5c1777041ecd21ca36ba824ff1e6c07ddda4898884896040516123489493929190614b7e565b60405180910390a2611322565b866001600160a01b03167fe2babfbac5889a709b63bb7f598b324e08bc5a4fb9ec647fb3cbc9ec07eb87128988848989604051612396959493929190614ba6565b60405180910390a2979650505050505050565b60006123c48254600f81810b600160801b909204900b131590565b156123e257604051631ed9509560e11b815260040160405180910390fd5b508054600f0b6000818152600180840160205260408220805492905583546fffffffffffffffffffffffffffffffff191692016001600160801b03169190911790915590565b60648111156124ab5760405162461bcd60e51b815260206004820152604360248201527f476f7665726e6f72566f74657351756f72756d4672616374696f6e3a2071756f60448201527f72756d4e756d657261746f72206f7665722071756f72756d44656e6f6d696e616064820152623a37b960e91b608482015260a401610c04565b60006124b56117d5565b905080158015906124c65750600654155b1561252b576040805180820190915260008152600690602081016124e984611f5a565b6001600160e01b0390811690915282546001810184556000938452602093849020835194909301519091166401000000000263ffffffff909316929092179101555b612536600683611fc7565b505060408051828152602081018490527f0553476bf02ef2726e8ce5ced78d63e26e602e4a2257b1f559418e24b4633997910160405180910390a15050565b3061257e610a01565b6001600160a01b031614611a015760005b845181101561260e57306001600160a01b03168582815181106125b4576125b4614b1d565b60200260200101516001600160a01b0316036125fe576125fe8382815181106125df576125df614b1d565b602002602001015180519060200120600261330890919063ffffffff16565b61260781614bec565b905061258f565b505050505050565b611a018585858585613344565b3061262c610a01565b6001600160a01b031614611a0157600254600f81810b600160801b909204900b1315611a01576000600255611a01565b60006117b58585858561267a60408051602081019091526000815290565b612244565b60008061268b836133b8565b905060048160078111156126a1576126a1614442565b146126ac5792915050565b600083815260086020526040902054806126c7575092915050565b600754604051632ab0f52960e01b8152600481018390526001600160a01b0390911690632ab0f52990602401602060405180830381865afa158015612710573d6000803e3d6000fd5b505050506040513d601f19601f820116820180604052508101906127349190614c05565b15612743575060079392505050565b600754604051632c258a9f60e11b8152600481018390526001600160a01b039091169063584b153e90602401602060405180830381865afa15801561278c573d6000803e3d6000fd5b505050506040513d601f19601f820116820180604052508101906127b09190614c05565b156127bf575060059392505050565b5060029392505050565b6060600082516001600160401b038111156127e6576127e6613e94565b60405190808252806020026020018201604052801561281957816020015b60608152602001906001900390816128045790505b50905060005b84518110156128f35784818151811061283a5761283a614b1d565b6020026020010151516000146128aa5784818151811061285c5761285c614b1d565b60200260200101518051906020012084828151811061287d5761287d614b1d565b6020026020010151604051602001612896929190614c27565b6040516020818303038152906040526128c5565b8381815181106128bc576128bc614b1d565b60200260200101515b8282815181106128d7576128d7614b1d565b6020026020010181905250806128ec90614bec565b905061281f565b509392505050565b60006117b5858585856134ca565b600043821061295a5760405162461bcd60e51b815260206004820181905260248201527f436865636b706f696e74733a20626c6f636b206e6f7420796574206d696e65646044820152606401610c04565b825460005b818110156129bf576000612973828461357c565b90508486600001828154811061298b5761298b614b1d565b60009182526020909120015463ffffffff1611156129ab578092506129b9565b6129b6816001614aee565b91505b5061295f565b8115612a0357846129d1600184614b06565b815481106129e1576129e1614b1d565b60009182526020909120015464010000000090046001600160e01b0316612a06565b60005b6001600160e01b031695945050505050565b6000612a7433868686516001600160401b03811115612a3957612a39613e94565b604051908082528060200260200182016040528015612a6c57816020015b6060815260200190600190039081612a575790505b508787612ba5565b6117b585858585613597565b604051630748d63560e31b81526001600160a01b038481166004830152602482018490526000917f000000000000000000000000000000000000000000000000000000000000000090911690633a46b1a890604401602060405180830381865afa158015612af2573d6000803e3d6000fd5b505050506040513d601f19601f820116820180604052508101906117cb9190614a19565b600754604080516001600160a01b03928316815291831660208301527f08f74ea46ef7894f65eabfb5e6e695de773a000b47c529ab559178069b226401910160405180910390a1600780546001600160a01b0319166001600160a01b0392909216919091179055565b60606117cb848484604051806060016040528060298152602001614dc56029913961384d565b805160208201206000612bc38787612bbd88886127c9565b85611a08565b6000818152600460205260409020600981015491925090612c575780546001600160a01b0319166001600160a01b038a161781558751612c0c90600183019060208b0190613bb0565b508651612c2290600283019060208a0190613c11565b508551612c389060038301906020890190613c4c565b508451612c4e9060048301906020880190613ca5565b50600981018390555b505050505050505050565b60006117ce8383612c7e60408051602081019091526000815290565b612a80565b60006064612c90836116bd565b604051632394e7a360e21b8152600481018590527f00000000000000000000000000000000000000000000000000000000000000006001600160a01b031690638e539e8c90602401602060405180830381865afa158015612cf5573d6000803e3d6000fd5b505050506040513d601f19601f82011682018060405250810190612d199190614a19565b612d239190614c58565b610ace9190614c77565b60006001600160e01b0319821663bf26d89760e01b1480612d5e57506001600160e01b031982166379dd796f60e01b145b80612d7957506001600160e01b03198216630271189760e51b145b80610ace57506301ffc9a760e01b6001600160e01b0319831614610ace565b6000306001600160a01b037f000000000000000000000000000000000000000000000000000000000000000016148015612df157507f000000000000000000000000000000000000000000000000000000000000000046145b15612e1b57507f000000000000000000000000000000000000000000000000000000000000000090565b50604080517f00000000000000000000000000000000000000000000000000000000000000006020808301919091527f0000000000000000000000000000000000000000000000000000000000000000828401527f000000000000000000000000000000000000000000000000000000000000000060608301524660808301523060a0808401919091528351808403909101815260c0909201909252805191012090565b6000807f7fffffffffffffffffffffffffffffff5d576e7357a4501ddfe92f46681b20a0831115612ef65750600090506003612fa3565b8460ff16601b14158015612f0e57508460ff16601c14155b15612f1f5750600090506004612fa3565b6040805160008082526020820180845289905260ff881692820192909252606081018690526080810185905260019060a0016020604051602081039080840390855afa158015612f73573d6000803e3d6000fd5b5050604051601f1901519150506001600160a01b038116612f9c57600060019250925050612fa3565b9150600090505b94509492505050565b6000816004811115612fc057612fc0614442565b03612fc85750565b6001816004811115612fdc57612fdc614442565b036130295760405162461bcd60e51b815260206004820152601860248201527f45434453413a20696e76616c6964207369676e617475726500000000000000006044820152606401610c04565b600281600481111561303d5761303d614442565b0361308a5760405162461bcd60e51b815260206004820152601f60248201527f45434453413a20696e76616c6964207369676e6174757265206c656e677468006044820152606401610c04565b600381600481111561309e5761309e614442565b036130f65760405162461bcd60e51b815260206004820152602260248201527f45434453413a20696e76616c6964207369676e6174757265202773272076616c604482015261756560f01b6064820152608401610c04565b600481600481111561310a5761310a614442565b03610c5c5760405162461bcd60e51b815260206004820152602260248201527f45434453413a20696e76616c6964207369676e6174757265202776272076616c604482015261756560f01b6064820152608401610c04565b60008581526004602090815260408083206001600160a01b038816845260088101909252909120805460ff16156131f15760405162461bcd60e51b815260206004820152602d60248201527f476f7665726e6f72436f6d7061746962696c697479427261766f3a20766f746560448201526c08185b1c9958591e4818d85cdd609a1b6064820152608401610c04565b805460ff86166101000261ffff1990911617600117815561321184613973565b81546001600160601b039190911662010000026dffffffffffffffffffffffff00001990911617815560ff851661326157838260060160008282546132569190614aee565b909155506132ff9050565b60001960ff86160161328157838260050160008282546132569190614aee565b60011960ff8616016132a157838260070160008282546132569190614aee565b60405162461bcd60e51b815260206004820152602d60248201527f476f7665726e6f72436f6d7061746962696c697479427261766f3a20696e766160448201526c6c696420766f7465207479706560981b6064820152608401610c04565b50505050505050565b8154600160801b90819004600f0b6000818152600180860160205260409091209390935583546001600160801b03908116939091011602179055565b60075460405163e38335e560e01b81526001600160a01b039091169063e38335e590349061337f908890889088906000908990600401614a32565b6000604051808303818588803b15801561339857600080fd5b505af11580156133ac573d6000803e3d6000fd5b50505050505050505050565b6000818152600160205260408120600281015460ff16156133dc5750600792915050565b6002810154610100900460ff16156133f75750600292915050565b600061340284610fef565b9050806000036134545760405162461bcd60e51b815260206004820152601d60248201527f476f7665726e6f723a20756e6b6e6f776e2070726f706f73616c2069640000006044820152606401610c04565b438110613465575060009392505050565b600061347085611912565b905043811061348457506001949350505050565b61348d856139db565b80156134af575060008581526004602052604090206006810154600590910154115b156134bf57506004949350505050565b506003949350505050565b6000806134d986868686613a03565b600081815260086020526040902054909150156117b5576007546000828152600860205260409081902054905163c4d252f560e01b81526001600160a01b039092169163c4d252f5916135329160040190815260200190565b600060405180830381600087803b15801561354c57600080fd5b505af1158015613560573d6000803e3d6000fd5b5050506000828152600860205260408120555095945050505050565b600061358b6002848418614c77565b6117ce90848416614aee565b6000806135a933610969600143614b06565b10156136115760405162461bcd60e51b815260206004820152603160248201527f476f7665726e6f723a2070726f706f73657220766f7465732062656c6f7720706044820152701c9bdc1bdcd85b081d1a1c995cda1bdb19607a1b6064820152608401610c04565b60006136268686868680519060200120611a08565b905084518651146136495760405162461bcd60e51b8152600401610c0490614c99565b835186511461366a5760405162461bcd60e51b8152600401610c0490614c99565b60008651116136bb5760405162461bcd60e51b815260206004820152601860248201527f476f7665726e6f723a20656d7074792070726f706f73616c00000000000000006044820152606401610c04565b600081815260016020908152604091829020825191820190925281546001600160401b0316908190521561373b5760405162461bcd60e51b815260206004820152602160248201527f476f7665726e6f723a2070726f706f73616c20616c72656164792065786973746044820152607360f81b6064820152608401610c04565b6000613747602e613b0f565b61375043613b0f565b61375a9190614cda565b90506000613769610114613b0f565b6137739083614cda565b835467ffffffffffffffff19166001600160401b038416178455905060018301805467ffffffffffffffff19166001600160401b0383161790557f7d84a6263ae0d98d3329bd7b46bb4e8d6f98cd35a7adb45c274c8b7fd5ebd5e084338b8b8d516001600160401b038111156137eb576137eb613e94565b60405190808252806020026020018201604052801561381e57816020015b60608152602001906001900390816138095790505b508c88888e60405161383899989796959493929190614d05565b60405180910390a15091979650505050505050565b6060824710156138ae5760405162461bcd60e51b815260206004820152602660248201527f416464726573733a20696e73756666696369656e742062616c616e636520666f6044820152651c8818d85b1b60d21b6064820152608401610c04565b6001600160a01b0385163b6139055760405162461bcd60e51b815260206004820152601d60248201527f416464726573733a2063616c6c20746f206e6f6e2d636f6e74726163740000006044820152606401610c04565b600080866001600160a01b031685876040516139219190614da8565b60006040518083038185875af1925050503d806000811461395e576040519150601f19603f3d011682016040523d82523d6000602084013e613963565b606091505b5091509150611322828286613b77565b60006001600160601b03821115611fc35760405162461bcd60e51b815260206004820152602660248201527f53616665436173743a2076616c756520646f65736e27742066697420696e203960448201526536206269747360d01b6064820152608401610c04565b600081815260046020526040812060058101546139fa6109b585610fef565b11159392505050565b600080613a1286868686611a08565b90506000613a1f8261132d565b90506002816007811115613a3557613a35614442565b14158015613a5557506006816007811115613a5257613a52614442565b14155b8015613a7357506007816007811115613a7057613a70614442565b14155b613abf5760405162461bcd60e51b815260206004820152601d60248201527f476f7665726e6f723a2070726f706f73616c206e6f74206163746976650000006044820152606401610c04565b60008281526001602052604090819020600201805461ff001916610100179055517f789cf55be980739dad1d0699b93b58e806b51c9d96619bfa8fe0a28abaa7b30c90610ee09084815260200190565b60006001600160401b03821115611fc35760405162461bcd60e51b815260206004820152602660248201527f53616665436173743a2076616c756520646f65736e27742066697420696e203660448201526534206269747360d01b6064820152608401610c04565b60608315613b865750816117ce565b825115613b965782518084602001fd5b8160405162461bcd60e51b8152600401610c04919061404b565b828054828255906000526020600020908101928215613c05579160200282015b82811115613c0557825182546001600160a01b0319166001600160a01b03909116178255602090920191600190910190613bd0565b50611fc3929150613cfe565b828054828255906000526020600020908101928215613c05579160200282015b82811115613c05578251825591602001919060010190613c31565b828054828255906000526020600020908101928215613c99579160200282015b82811115613c995782518051613c89918491602090910190613d13565b5091602001919060010190613c6c565b50611fc3929150613d86565b828054828255906000526020600020908101928215613cf2579160200282015b82811115613cf25782518051613ce2918491602090910190613d13565b5091602001919060010190613cc5565b50611fc3929150613da3565b5b80821115611fc35760008155600101613cff565b828054613d1f9061499e565b90600052602060002090601f016020900481019282613d415760008555613c05565b82601f10613d5a57805160ff1916838001178555613c05565b82800160010185558215613c055791820182811115613c05578251825591602001919060010190613c31565b80821115611fc3576000613d9a8282613dc0565b50600101613d86565b80821115611fc3576000613db78282613dc0565b50600101613da3565b508054613dcc9061499e565b6000825580601f10613ddc575050565b601f016020900490600052602060002090810190610c5c9190613cfe565b600060208284031215613e0c57600080fd5b5035919050565b600060208284031215613e2557600080fd5b81356001600160e01b0319811681146117ce57600080fd5b803560ff81168114613e4e57600080fd5b919050565b60008083601f840112613e6557600080fd5b5081356001600160401b03811115613e7c57600080fd5b6020830191508360208285010111156120eb57600080fd5b634e487b7160e01b600052604160045260246000fd5b604051601f8201601f191681016001600160401b0381118282101715613ed257613ed2613e94565b604052919050565b600082601f830112613eeb57600080fd5b81356001600160401b03811115613f0457613f04613e94565b613f17601f8201601f1916602001613eaa565b818152846020838601011115613f2c57600080fd5b816020850160208301376000918101602001919091529392505050565b60008060008060008060008060e0898b031215613f6557600080fd5b88359750613f7560208a01613e3d565b965060408901356001600160401b0380821115613f9157600080fd5b613f9d8c838d01613e53565b909850965060608b0135915080821115613fb657600080fd5b50613fc38b828c01613eda565b945050613fd260808a01613e3d565b925060a0890135915060c089013590509295985092959890939650565b60005b8381101561400a578181015183820152602001613ff2565b83811115614019576000848401525b50505050565b60008151808452614037816020860160208601613fef565b601f01601f19169290920160200192915050565b6020815260006117ce602083018461401f565b6001600160a01b0381168114610c5c57600080fd5b6000806000806080858703121561408957600080fd5b84356140948161405e565b935060208501356140a48161405e565b92506040850135915060608501356001600160401b038111156140c657600080fd5b6140d287828801613eda565b91505092959194509250565b60006001600160401b038211156140f7576140f7613e94565b5060051b60200190565b600082601f83011261411257600080fd5b81356020614127614122836140de565b613eaa565b82815260059290921b8401810191818101908684111561414657600080fd5b8286015b8481101561416a57803561415d8161405e565b835291830191830161414a565b509695505050505050565b600082601f83011261418657600080fd5b81356020614196614122836140de565b82815260059290921b840181019181810190868411156141b557600080fd5b8286015b8481101561416a57803583529183019183016141b9565b600082601f8301126141e157600080fd5b813560206141f1614122836140de565b82815260059290921b8401810191818101908684111561421057600080fd5b8286015b8481101561416a5780356001600160401b038111156142335760008081fd5b6142418986838b0101613eda565b845250918301918301614214565b6000806000806080858703121561426557600080fd5b84356001600160401b038082111561427c57600080fd5b61428888838901614101565b9550602087013591508082111561429e57600080fd5b6142aa88838901614175565b945060408701359150808211156142c057600080fd5b506142cd878288016141d0565b949793965093946060013593505050565b600081518084526020808501945080840160005b838110156143175781516001600160a01b0316875295820195908201906001016142f2565b509495945050505050565b600081518084526020808501945080840160005b8381101561431757815187529582019590820190600101614336565b600081518084526020808501808196508360051b8101915082860160005b8581101561439a57828403895261438884835161401f565b98850198935090840190600101614370565b5091979650505050505050565b6080815260006143ba60808301876142de565b82810360208401526143cc8187614322565b905082810360408401526143e08186614352565b905082810360608401526113228185614352565b600080600080600060a0868803121561440c57600080fd5b8535945061441c60208701613e3d565b935061442a60408701613e3d565b94979396509394606081013594506080013592915050565b634e487b7160e01b600052602160045260246000fd5b602081016008831061447a57634e487b7160e01b600052602160045260246000fd5b91905290565b6000806040838503121561449357600080fd5b8235915060208301356144a58161405e565b809150509250929050565b600080604083850312156144c357600080fd5b823591506144d360208401613e3d565b90509250929050565b6000806000806000608086880312156144f457600080fd5b8535945061450460208701613e3d565b935060408601356001600160401b038082111561452057600080fd5b61452c89838a01613e53565b9095509350606088013591508082111561454557600080fd5b5061455288828901613eda565b9150509295509295909350565b6000806000806060858703121561457557600080fd5b8435935061458560208601613e3d565b925060408501356001600160401b038111156145a057600080fd5b6145ac87828801613e53565b95989497509550505050565b600080600080608085870312156145ce57600080fd5b84356001600160401b03808211156145e557600080fd5b6145f188838901614101565b9550602087013591508082111561460757600080fd5b61461388838901614175565b9450604087013591508082111561462957600080fd5b614635888389016141d0565b9350606087013591508082111561464b57600080fd5b506140d287828801613eda565b60008060006060848603121561466d57600080fd5b83356146788161405e565b92506020840135915060408401356001600160401b0381111561469a57600080fd5b6146a686828701613eda565b9150509250925092565b6000602082840312156146c257600080fd5b81356117ce8161405e565b600080600080600060a086880312156146e557600080fd5b85356146f08161405e565b945060208601356147008161405e565b935060408601356001600160401b038082111561471c57600080fd5b61472889838a01614175565b9450606088013591508082111561473e57600080fd5b61474a89838a01614175565b9350608088013591508082111561454557600080fd5b6000806000806060858703121561477657600080fd5b84356147818161405e565b93506020850135925060408501356001600160401b038111156145a057600080fd5b600082601f8301126147b457600080fd5b813560206147c4614122836140de565b82815260059290921b840181019181810190868411156147e357600080fd5b8286015b8481101561416a5780356001600160401b038111156148065760008081fd5b6148148986838b0101613eda565b8452509183019183016147e7565b600080600080600060a0868803121561483a57600080fd5b85356001600160401b038082111561485157600080fd5b61485d89838a01614101565b9650602088013591508082111561487357600080fd5b61487f89838a01614175565b9550604088013591508082111561489557600080fd5b6148a189838a016147a3565b945060608801359150808211156148b757600080fd5b61474a89838a016141d0565b600080604083850312156148d657600080fd5b82356148e18161405e565b946020939093013593505050565b600080600080600060a0868803121561490757600080fd5b85356149128161405e565b945060208601356149228161405e565b9350604086013592506060860135915060808601356001600160401b0381111561494b57600080fd5b61455288828901613eda565b8183823760009101908152919050565b60208082526018908201527f476f7665726e6f723a206f6e6c79476f7665726e616e63650000000000000000604082015260600190565b600181811c908216806149b257607f821691505b6020821081036149d257634e487b7160e01b600052602260045260246000fd5b50919050565b60208082526021908201527f476f7665726e6f723a2070726f706f73616c206e6f74207375636365737366756040820152601b60fa1b606082015260800190565b600060208284031215614a2b57600080fd5b5051919050565b60a081526000614a4560a08301886142de565b8281036020840152614a578188614322565b90508281036040840152614a6b8187614352565b60608401959095525050608001529392505050565b60c081526000614a9360c08301896142de565b8281036020840152614aa58189614322565b90508281036040840152614ab98188614352565b60608401969096525050608081019290925260a0909101529392505050565b634e487b7160e01b600052601160045260246000fd5b60008219821115614b0157614b01614ad8565b500190565b600082821015614b1857614b18614ad8565b500390565b634e487b7160e01b600052603260045260246000fd5b608081526000614b4660808301876142de565b8281036020840152614b588187614322565b90508281036040840152614b6c8186614352565b91505082606083015295945050505050565b84815260ff8416602082015282604082015260806060820152600061179d608083018461401f565b85815260ff8516602082015283604082015260a060608201526000614bce60a083018561401f565b8281036080840152614be0818561401f565b98975050505050505050565b600060018201614bfe57614bfe614ad8565b5060010190565b600060208284031215614c1757600080fd5b815180151581146117ce57600080fd5b6001600160e01b0319831681528151600090614c4a816004850160208701613fef565b919091016004019392505050565b6000816000190483118215151615614c7257614c72614ad8565b500290565b600082614c9457634e487b7160e01b600052601260045260246000fd5b500490565b60208082526021908201527f476f7665726e6f723a20696e76616c69642070726f706f73616c206c656e67746040820152600d60fb1b606082015260800190565b60006001600160401b03808316818516808303821115614cfc57614cfc614ad8565b01949350505050565b8981526001600160a01b038916602082015261012060408201819052600090614d308382018b6142de565b90508281036060840152614d44818a614322565b90508281036080840152614d588189614352565b905082810360a0840152614d6c8188614352565b6001600160401b0387811660c0860152861660e08501528381036101008501529050614d98818561401f565b9c9b505050505050505050505050565b60008251614dba818460208701613fef565b919091019291505056fe416464726573733a206c6f772d6c6576656c2063616c6c20776974682076616c7565206661696c6564a2646970667358221220751641290a382a24a2b4a45fda62933563929e07d6adb12625084ca1716eac6264736f6c634300080d0033",
  "immutableReferences": {
    "4212": [
      {
        "length": 32,
        "start": 2508
      },
      {
        "length": 32,
        "start": 10921
      },
      {
        "length": 32,
        "start": 11430
      }
    ],
    "8038": [
      {
        "length": 32,
        "start": 11769
      }
    ],
    "8040": [
      {
        "length": 32,
        "start": 11727
      }
    ],
    "8042": [
      {
        "length": 32,
        "start": 11685
      }
    ],
    "8044": [
      {
        "length": 32,
        "start": 11852
      }
    ],
    "8046": [
      {
        "length": 32,
        "start": 11889
      }
    ],
    "8048": [
      {
        "length": 32,
        "start": 11810
      }
    ]
  },
  "source": "// SPDX-License-Identifier: MIT\npragma solidity ^0.8.2;\n\nimport \"@openzeppelin/contracts/governance/Governor.sol\";\nimport \"@openzeppelin/contracts/governance/compatibility/GovernorCompatibilityBravo.sol\";\nimport \"@openzeppelin/contracts/governance/extensions/GovernorVotes.sol\";\nimport \"@openzeppelin/contracts/governance/extensions/GovernorVotesQuorumFraction.sol\";\nimport \"@openzeppelin/contracts/governance/extensions/GovernorTimelockControl.sol\";\n\ncontract RariGovernor is Governor, GovernorCompatibilityBravo, GovernorVotes, GovernorVotesQuorumFraction, GovernorTimelockControl {\n    constructor(IVotes _token, TimelockController _timelock)\n        Governor(\"RariGovernor\")\n        GovernorVotes(_token)\n        GovernorVotesQuorumFraction(4)\n        GovernorTimelockControl(_timelock)\n    {}\n\n    function votingDelay() public pure override returns (uint256) {\n        return 46; //10 , 6575 = 1 day \n    }\n\n    function votingPeriod() public pure override returns (uint256) {\n        return 276; //1 , 46027 = 1 week \n    }\n\n    function proposalThreshold() public pure override returns (uint256) {\n        return 0;\n    }\n\n    // The functions below are overrides required by Solidity.\n\n    function quorum(uint256 blockNumber)\n        public\n        view\n        override(IGovernor, GovernorVotesQuorumFraction)\n        returns (uint256)\n    {\n        return super.quorum(blockNumber);\n    }\n\n    function getVotes(address account, uint256 blockNumber)\n        public\n        view\n        override(Governor, IGovernor)\n        returns (uint256)\n    {\n        return super.getVotes(account, blockNumber);\n    }\n\n    function state(uint256 proposalId)\n        public\n        view\n        override(Governor, IGovernor, GovernorTimelockControl)\n        returns (ProposalState)\n    {\n        return super.state(proposalId);\n    }\n\n    function propose(address[] memory targets, uint256[] memory values, bytes[] memory calldatas, string memory description)\n        public\n        override(Governor, GovernorCompatibilityBravo, IGovernor)\n        returns (uint256)\n    {\n        return super.propose(targets, values, calldatas, description);\n    }\n\n    function _execute(uint256 proposalId, address[] memory targets, uint256[] memory values, bytes[] memory calldatas, bytes32 descriptionHash)\n        internal\n        override(Governor, GovernorTimelockControl)\n    {\n        super._execute(proposalId, targets, values, calldatas, descriptionHash);\n    }\n\n    function _cancel(address[] memory targets, uint256[] memory values, bytes[] memory calldatas, bytes32 descriptionHash)\n        internal\n        override(Governor, GovernorTimelockControl)\n        returns (uint256)\n    {\n        return super._cancel(targets, values, calldatas, descriptionHash);\n    }\n\n    function _executor()\n        internal\n        view\n        override(Governor, GovernorTimelockControl)\n        returns (address)\n    {\n        return super._executor();\n    }\n\n    function supportsInterface(bytes4 interfaceId)\n        public\n        view\n        override(Governor, IERC165, GovernorTimelockControl)\n        returns (bool)\n    {\n        return super.supportsInterface(interfaceId);\n    }\n}",
  "sourcePath": "/Users/ds/Documents/rarible/governance-contracts/contracts/RariGovernor.sol",
  "compiler": {
    "name": "solc",
    "version": "0.8.13+commit.abaa5c0e.Emscripten.clang"
  },
  "schemaVersion": "3.4.3",
  "updatedAt": "2022-09-26T14:25:55.716Z",
  "devdoc": {
    "errors": {
      "Empty()": [
        {
          "details": "An operation (e.g. {front}) couldn't be completed due to the queue being empty."
        }
      ]
    },
    "kind": "dev",
    "methods": {
      "COUNTING_MODE()": {
        "details": "A description of the possible `support` values for {castVote} and the way these votes are counted, meant to be consumed by UIs to show correct vote options and interpret the results. The string is a URL-encoded sequence of key-value pairs that each describe one aspect, for example `support=bravo&quorum=for,abstain`. There are 2 standard keys: `support` and `quorum`. - `support=bravo` refers to the vote options 0 = Against, 1 = For, 2 = Abstain, as in `GovernorBravo`. - `quorum=bravo` means that only For votes are counted towards quorum. - `quorum=for,abstain` means that both For and Abstain votes are counted towards quorum. If a counting module makes use of encoded `params`, it should  include this under a `params` key with a unique name that describes the behavior. For example: - `params=fractional` might refer to a scheme where votes are divided fractionally between for/against/abstain. - `params=erc721` might refer to a scheme where specific NFTs are delegated to vote. NOTE: The string can be decoded by the standard https://developer.mozilla.org/en-US/docs/Web/API/URLSearchParams[`URLSearchParams`] JavaScript class."
      },
      "cancel(uint256)": {
        "details": "Cancels a proposal only if sender is the proposer, or proposer delegates dropped below proposal threshold."
      },
      "castVote(uint256,uint8)": {
        "details": "See {IGovernor-castVote}."
      },
      "castVoteBySig(uint256,uint8,uint8,bytes32,bytes32)": {
        "details": "See {IGovernor-castVoteBySig}."
      },
      "castVoteWithReason(uint256,uint8,string)": {
        "details": "See {IGovernor-castVoteWithReason}."
      },
      "castVoteWithReasonAndParams(uint256,uint8,string,bytes)": {
        "details": "See {IGovernor-castVoteWithReasonAndParams}."
      },
      "castVoteWithReasonAndParamsBySig(uint256,uint8,string,bytes,uint8,bytes32,bytes32)": {
        "details": "See {IGovernor-castVoteWithReasonAndParamsBySig}."
      },
      "execute(address[],uint256[],bytes[],bytes32)": {
        "details": "See {IGovernor-execute}."
      },
      "execute(uint256)": {
        "details": "See {IGovernorCompatibilityBravo-execute}."
      },
      "getActions(uint256)": {
        "details": "See {IGovernorCompatibilityBravo-getActions}."
      },
      "getReceipt(uint256,address)": {
        "details": "See {IGovernorCompatibilityBravo-getReceipt}."
      },
      "getVotesWithParams(address,uint256,bytes)": {
        "details": "See {IGovernor-getVotesWithParams}."
      },
      "hasVoted(uint256,address)": {
        "details": "See {IGovernor-hasVoted}."
      },
      "hashProposal(address[],uint256[],bytes[],bytes32)": {
        "details": "See {IGovernor-hashProposal}. The proposal id is produced by hashing the ABI encoded `targets` array, the `values` array, the `calldatas` array and the descriptionHash (bytes32 which itself is the keccak256 hash of the description string). This proposal id can be produced from the proposal data which is part of the {ProposalCreated} event. It can even be computed in advance, before the proposal is submitted. Note that the chainId and the governor address are not part of the proposal id computation. Consequently, the same proposal (with same operation and same description) will have the same id if submitted on multiple governors across multiple networks. This also means that in order to execute the same operation twice (on the same governor) the proposer will have to change the description in order to avoid proposal id conflicts."
      },
      "name()": {
        "details": "See {IGovernor-name}."
      },
      "onERC1155BatchReceived(address,address,uint256[],uint256[],bytes)": {
        "details": "See {IERC1155Receiver-onERC1155BatchReceived}."
      },
      "onERC1155Received(address,address,uint256,uint256,bytes)": {
        "details": "See {IERC1155Receiver-onERC1155Received}."
      },
      "onERC721Received(address,address,uint256,bytes)": {
        "details": "See {IERC721Receiver-onERC721Received}."
      },
      "proposalDeadline(uint256)": {
        "details": "See {IGovernor-proposalDeadline}."
      },
      "proposalEta(uint256)": {
        "details": "Public accessor to check the eta of a queued proposal"
      },
      "proposalSnapshot(uint256)": {
        "details": "See {IGovernor-proposalSnapshot}."
      },
      "proposalThreshold()": {
        "details": "Part of the Governor Bravo's interface: _\"The number of votes required in order for a voter to become a proposer\"_."
      },
      "proposals(uint256)": {
        "details": "See {IGovernorCompatibilityBravo-proposals}."
      },
      "propose(address[],uint256[],string[],bytes[],string)": {
        "details": "See {IGovernorCompatibilityBravo-propose}."
      },
      "queue(address[],uint256[],bytes[],bytes32)": {
        "details": "Function to queue a proposal to the timelock."
      },
      "queue(uint256)": {
        "details": "See {IGovernorCompatibilityBravo-queue}."
      },
      "quorumDenominator()": {
        "details": "Returns the quorum denominator. Defaults to 100, but may be overridden."
      },
      "quorumNumerator()": {
        "details": "Returns the current quorum numerator. See {quorumDenominator}."
      },
      "quorumNumerator(uint256)": {
        "details": "Returns the quorum numerator at a specific block number. See {quorumDenominator}."
      },
      "quorumVotes()": {
        "details": "See {IGovernorCompatibilityBravo-quorumVotes}."
      },
      "relay(address,uint256,bytes)": {
        "details": "Relays a transaction or function call to an arbitrary target. In cases where the governance executor is some contract other than the governor itself, like when using a timelock, this function can be invoked in a governance proposal to recover tokens or Ether that was sent to the governor contract by mistake. Note that if the executor is simply the governor itself, use of `relay` is redundant."
      },
      "timelock()": {
        "details": "Public accessor to check the address of the timelock"
      },
      "updateQuorumNumerator(uint256)": {
        "details": "Changes the quorum numerator. Emits a {QuorumNumeratorUpdated} event. Requirements: - Must be called through a governance proposal. - New numerator must be smaller or equal to the denominator."
      },
      "updateTimelock(address)": {
        "details": "Public endpoint to update the underlying timelock instance. Restricted to the timelock itself, so updates must be proposed, scheduled, and executed through governance proposals. CAUTION: It is not recommended to change the timelock while there are other queued governance proposals."
      },
      "version()": {
        "details": "See {IGovernor-version}."
      },
      "votingDelay()": {
        "details": "Delay, in number of block, between the proposal is created and the vote starts. This can be increassed to leave time for users to buy voting power, or delegate it, before the voting of a proposal starts."
      },
      "votingPeriod()": {
        "details": "Delay, in number of blocks, between the vote start and vote ends. NOTE: The {votingDelay} can delay the start of the vote. This must be considered when setting the voting duration compared to the voting delay."
      }
    },
    "version": 1
  },
  "userdoc": {
    "kind": "user",
    "methods": {
      "COUNTING_MODE()": {
        "notice": "module:voting"
      },
      "votingDelay()": {
        "notice": "module:user-config"
      },
      "votingPeriod()": {
        "notice": "module:user-config"
      }
    },
    "version": 1
  }
}