{
  "contractName": "TestHelper",
  "abi": [
    {
      "inputs": [
        {
          "internalType": "address",
          "name": "to",
          "type": "address"
        },
        {
          "internalType": "uint256",
          "name": "amount",
          "type": "uint256"
        }
      ],
      "name": "encodeERC20Transfer",
      "outputs": [
        {
          "internalType": "bytes",
          "name": "",
          "type": "bytes"
        }
      ],
      "stateMutability": "pure",
      "type": "function"
    },
    {
      "inputs": [],
      "name": "getBLock",
      "outputs": [
        {
          "internalType": "uint256",
          "name": "",
          "type": "uint256"
        }
      ],
      "stateMutability": "view",
      "type": "function"
    },
    {
      "inputs": [],
      "name": "incrementBlock",
      "outputs": [],
      "stateMutability": "nonpayable",
      "type": "function"
    },
    {
      "inputs": [
        {
          "internalType": "string",
          "name": "description",
          "type": "string"
        }
      ],
      "name": "hashDescription",
      "outputs": [
        {
          "internalType": "bytes32",
          "name": "",
          "type": "bytes32"
        }
      ],
      "stateMutability": "pure",
      "type": "function"
    }
  ],
  "bytecode": "0x608060405234801561001057600080fd5b50610252806100206000396000f3fe608060405234801561001057600080fd5b506004361061004c5760003560e01c806363794a0414610051578063bf65bf11146100c2578063e9de08e9146100c4578063f14357cf146100e5575b600080fd5b6100ac61005f36600461010d565b604080516001600160a01b039390931660248401526044808401929092528051808403909201825260649092019091526020810180516001600160e01b031663a9059cbb60e01b17905290565b6040516100b99190610145565b60405180910390f35b005b6100d76100d236600461019a565b6100eb565b6040519081526020016100b9565b436100d7565b600082826040516100fd92919061020c565b6040518091039020905092915050565b6000806040838503121561012057600080fd5b82356001600160a01b038116811461013757600080fd5b946020939093013593505050565b600060208083528351808285015260005b8181101561017257858101830151858201604001528201610156565b81811115610184576000604083870101525b50601f01601f1916929092016040019392505050565b600080602083850312156101ad57600080fd5b823567ffffffffffffffff808211156101c557600080fd5b818501915085601f8301126101d957600080fd5b8135818111156101e857600080fd5b8660208285010111156101fa57600080fd5b60209290920196919550909350505050565b818382376000910190815291905056fea2646970667358221220280b9b2ec9d0c3ba77f7dec0ea7a135aaf0c03895a9a6b609cf2491d47fc1a5764736f6c634300080d0033",
  "immutableReferences": {},
  "source": "// SPDX-License-Identifier: MIT\npragma solidity ^0.8.0;\n\nimport \"@openzeppelin/contracts/token/ERC20/ERC20.sol\";\n\ncontract TestHelper {\n    function encodeERC20Transfer(address to, uint amount) external pure returns(bytes memory){\n        return abi.encodeWithSelector(ERC20.transfer.selector, to, amount);\n    }\n\n    function getBLock() external view returns(uint) {\n        return block.number;\n    }\n\n    function incrementBlock() external {\n\n    }\n\n    function hashDescription(string calldata description) external pure returns(bytes32) {\n        return keccak256(bytes(description));\n    }\n}",
  "sourcePath": "/Users/ds/Documents/rarible/governance-contracts/contracts/TestHelper.sol",
  "compiler": {
    "name": "solc",
    "version": "0.8.13+commit.abaa5c0e.Emscripten.clang"
  },
  "schemaVersion": "3.4.3",
  "updatedAt": "2022-09-27T19:18:51.902Z",
  "devdoc": {
    "kind": "dev",
    "methods": {},
    "version": 1
  },
  "userdoc": {
    "kind": "user",
    "methods": {},
    "version": 1
  }
}