{
  "contractName": "WrappedRariToken",
  "abi": [
    {
      "inputs": [
        {
          "internalType": "contract IERC20",
          "name": "wrappedToken",
          "type": "address"
        }
      ],
      "stateMutability": "nonpayable",
      "type": "constructor"
    },
    {
      "anonymous": false,
      "inputs": [
        {
          "indexed": true,
          "internalType": "address",
          "name": "owner",
          "type": "address"
        },
        {
          "indexed": true,
          "internalType": "address",
          "name": "spender",
          "type": "address"
        },
        {
          "indexed": false,
          "internalType": "uint256",
          "name": "value",
          "type": "uint256"
        }
      ],
      "name": "Approval",
      "type": "event"
    },
    {
      "anonymous": false,
      "inputs": [
        {
          "indexed": true,
          "internalType": "address",
          "name": "delegator",
          "type": "address"
        },
        {
          "indexed": true,
          "internalType": "address",
          "name": "fromDelegate",
          "type": "address"
        },
        {
          "indexed": true,
          "internalType": "address",
          "name": "toDelegate",
          "type": "address"
        }
      ],
      "name": "DelegateChanged",
      "type": "event"
    },
    {
      "anonymous": false,
      "inputs": [
        {
          "indexed": true,
          "internalType": "address",
          "name": "delegate",
          "type": "address"
        },
        {
          "indexed": false,
          "internalType": "uint256",
          "name": "previousBalance",
          "type": "uint256"
        },
        {
          "indexed": false,
          "internalType": "uint256",
          "name": "newBalance",
          "type": "uint256"
        }
      ],
      "name": "DelegateVotesChanged",
      "type": "event"
    },
    {
      "anonymous": false,
      "inputs": [
        {
          "indexed": true,
          "internalType": "address",
          "name": "from",
          "type": "address"
        },
        {
          "indexed": true,
          "internalType": "address",
          "name": "to",
          "type": "address"
        },
        {
          "indexed": false,
          "internalType": "uint256",
          "name": "value",
          "type": "uint256"
        }
      ],
      "name": "Transfer",
      "type": "event"
    },
    {
      "inputs": [],
      "name": "DOMAIN_SEPARATOR",
      "outputs": [
        {
          "internalType": "bytes32",
          "name": "",
          "type": "bytes32"
        }
      ],
      "stateMutability": "view",
      "type": "function"
    },
    {
      "inputs": [
        {
          "internalType": "address",
          "name": "owner",
          "type": "address"
        },
        {
          "internalType": "address",
          "name": "spender",
          "type": "address"
        }
      ],
      "name": "allowance",
      "outputs": [
        {
          "internalType": "uint256",
          "name": "",
          "type": "uint256"
        }
      ],
      "stateMutability": "view",
      "type": "function"
    },
    {
      "inputs": [
        {
          "internalType": "address",
          "name": "spender",
          "type": "address"
        },
        {
          "internalType": "uint256",
          "name": "amount",
          "type": "uint256"
        }
      ],
      "name": "approve",
      "outputs": [
        {
          "internalType": "bool",
          "name": "",
          "type": "bool"
        }
      ],
      "stateMutability": "nonpayable",
      "type": "function"
    },
    {
      "inputs": [
        {
          "internalType": "address",
          "name": "account",
          "type": "address"
        }
      ],
      "name": "balanceOf",
      "outputs": [
        {
          "internalType": "uint256",
          "name": "",
          "type": "uint256"
        }
      ],
      "stateMutability": "view",
      "type": "function"
    },
    {
      "inputs": [
        {
          "internalType": "address",
          "name": "account",
          "type": "address"
        },
        {
          "internalType": "uint32",
          "name": "pos",
          "type": "uint32"
        }
      ],
      "name": "checkpoints",
      "outputs": [
        {
          "components": [
            {
              "internalType": "uint32",
              "name": "fromBlock",
              "type": "uint32"
            },
            {
              "internalType": "uint224",
              "name": "votes",
              "type": "uint224"
            }
          ],
          "internalType": "struct ERC20Votes.Checkpoint",
          "name": "",
          "type": "tuple"
        }
      ],
      "stateMutability": "view",
      "type": "function"
    },
    {
      "inputs": [
        {
          "internalType": "address",
          "name": "spender",
          "type": "address"
        },
        {
          "internalType": "uint256",
          "name": "subtractedValue",
          "type": "uint256"
        }
      ],
      "name": "decreaseAllowance",
      "outputs": [
        {
          "internalType": "bool",
          "name": "",
          "type": "bool"
        }
      ],
      "stateMutability": "nonpayable",
      "type": "function"
    },
    {
      "inputs": [
        {
          "internalType": "address",
          "name": "delegatee",
          "type": "address"
        }
      ],
      "name": "delegate",
      "outputs": [],
      "stateMutability": "nonpayable",
      "type": "function"
    },
    {
      "inputs": [
        {
          "internalType": "address",
          "name": "delegatee",
          "type": "address"
        },
        {
          "internalType": "uint256",
          "name": "nonce",
          "type": "uint256"
        },
        {
          "internalType": "uint256",
          "name": "expiry",
          "type": "uint256"
        },
        {
          "internalType": "uint8",
          "name": "v",
          "type": "uint8"
        },
        {
          "internalType": "bytes32",
          "name": "r",
          "type": "bytes32"
        },
        {
          "internalType": "bytes32",
          "name": "s",
          "type": "bytes32"
        }
      ],
      "name": "delegateBySig",
      "outputs": [],
      "stateMutability": "nonpayable",
      "type": "function"
    },
    {
      "inputs": [
        {
          "internalType": "address",
          "name": "account",
          "type": "address"
        }
      ],
      "name": "delegates",
      "outputs": [
        {
          "internalType": "address",
          "name": "",
          "type": "address"
        }
      ],
      "stateMutability": "view",
      "type": "function"
    },
    {
      "inputs": [
        {
          "internalType": "address",
          "name": "account",
          "type": "address"
        },
        {
          "internalType": "uint256",
          "name": "amount",
          "type": "uint256"
        }
      ],
      "name": "depositFor",
      "outputs": [
        {
          "internalType": "bool",
          "name": "",
          "type": "bool"
        }
      ],
      "stateMutability": "nonpayable",
      "type": "function"
    },
    {
      "inputs": [
        {
          "internalType": "uint256",
          "name": "blockNumber",
          "type": "uint256"
        }
      ],
      "name": "getPastTotalSupply",
      "outputs": [
        {
          "internalType": "uint256",
          "name": "",
          "type": "uint256"
        }
      ],
      "stateMutability": "view",
      "type": "function"
    },
    {
      "inputs": [
        {
          "internalType": "address",
          "name": "account",
          "type": "address"
        },
        {
          "internalType": "uint256",
          "name": "blockNumber",
          "type": "uint256"
        }
      ],
      "name": "getPastVotes",
      "outputs": [
        {
          "internalType": "uint256",
          "name": "",
          "type": "uint256"
        }
      ],
      "stateMutability": "view",
      "type": "function"
    },
    {
      "inputs": [
        {
          "internalType": "address",
          "name": "account",
          "type": "address"
        }
      ],
      "name": "getVotes",
      "outputs": [
        {
          "internalType": "uint256",
          "name": "",
          "type": "uint256"
        }
      ],
      "stateMutability": "view",
      "type": "function"
    },
    {
      "inputs": [
        {
          "internalType": "address",
          "name": "spender",
          "type": "address"
        },
        {
          "internalType": "uint256",
          "name": "addedValue",
          "type": "uint256"
        }
      ],
      "name": "increaseAllowance",
      "outputs": [
        {
          "internalType": "bool",
          "name": "",
          "type": "bool"
        }
      ],
      "stateMutability": "nonpayable",
      "type": "function"
    },
    {
      "inputs": [],
      "name": "name",
      "outputs": [
        {
          "internalType": "string",
          "name": "",
          "type": "string"
        }
      ],
      "stateMutability": "view",
      "type": "function"
    },
    {
      "inputs": [
        {
          "internalType": "address",
          "name": "owner",
          "type": "address"
        }
      ],
      "name": "nonces",
      "outputs": [
        {
          "internalType": "uint256",
          "name": "",
          "type": "uint256"
        }
      ],
      "stateMutability": "view",
      "type": "function"
    },
    {
      "inputs": [
        {
          "internalType": "address",
          "name": "account",
          "type": "address"
        }
      ],
      "name": "numCheckpoints",
      "outputs": [
        {
          "internalType": "uint32",
          "name": "",
          "type": "uint32"
        }
      ],
      "stateMutability": "view",
      "type": "function"
    },
    {
      "inputs": [
        {
          "internalType": "address",
          "name": "owner",
          "type": "address"
        },
        {
          "internalType": "address",
          "name": "spender",
          "type": "address"
        },
        {
          "internalType": "uint256",
          "name": "value",
          "type": "uint256"
        },
        {
          "internalType": "uint256",
          "name": "deadline",
          "type": "uint256"
        },
        {
          "internalType": "uint8",
          "name": "v",
          "type": "uint8"
        },
        {
          "internalType": "bytes32",
          "name": "r",
          "type": "bytes32"
        },
        {
          "internalType": "bytes32",
          "name": "s",
          "type": "bytes32"
        }
      ],
      "name": "permit",
      "outputs": [],
      "stateMutability": "nonpayable",
      "type": "function"
    },
    {
      "inputs": [],
      "name": "symbol",
      "outputs": [
        {
          "internalType": "string",
          "name": "",
          "type": "string"
        }
      ],
      "stateMutability": "view",
      "type": "function"
    },
    {
      "inputs": [],
      "name": "totalSupply",
      "outputs": [
        {
          "internalType": "uint256",
          "name": "",
          "type": "uint256"
        }
      ],
      "stateMutability": "view",
      "type": "function"
    },
    {
      "inputs": [
        {
          "internalType": "address",
          "name": "to",
          "type": "address"
        },
        {
          "internalType": "uint256",
          "name": "amount",
          "type": "uint256"
        }
      ],
      "name": "transfer",
      "outputs": [
        {
          "internalType": "bool",
          "name": "",
          "type": "bool"
        }
      ],
      "stateMutability": "nonpayable",
      "type": "function"
    },
    {
      "inputs": [
        {
          "internalType": "address",
          "name": "from",
          "type": "address"
        },
        {
          "internalType": "address",
          "name": "to",
          "type": "address"
        },
        {
          "internalType": "uint256",
          "name": "amount",
          "type": "uint256"
        }
      ],
      "name": "transferFrom",
      "outputs": [
        {
          "internalType": "bool",
          "name": "",
          "type": "bool"
        }
      ],
      "stateMutability": "nonpayable",
      "type": "function"
    },
    {
      "inputs": [],
      "name": "underlying",
      "outputs": [
        {
          "internalType": "contract IERC20",
          "name": "",
          "type": "address"
        }
      ],
      "stateMutability": "view",
      "type": "function"
    },
    {
      "inputs": [
        {
          "internalType": "address",
          "name": "account",
          "type": "address"
        },
        {
          "internalType": "uint256",
          "name": "amount",
          "type": "uint256"
        }
      ],
      "name": "withdrawTo",
      "outputs": [
        {
          "internalType": "bool",
          "name": "",
          "type": "bool"
        }
      ],
      "stateMutability": "nonpayable",
      "type": "function"
    },
    {
      "inputs": [],
      "name": "decimals",
      "outputs": [
        {
          "internalType": "uint8",
          "name": "",
          "type": "uint8"
        }
      ],
      "stateMutability": "view",
      "type": "function"
    }
  ],
  "bytecode": "0x6101606040523480156200001257600080fd5b506040516200254e3803806200254e83398101604081905262000035916200022c565b80604051806040016040528060088152602001675752617269626c6560c01b81525080604051806040016040528060018152602001603160f81b815250604051806040016040528060088152602001675752617269626c6560c01b81525060405180604001604052806005815260200164575261726960d81b8152508160039080519060200190620000c992919062000186565b508051620000df90600490602084019062000186565b5050825160209384012082519284019290922060e08390526101008190524660a0818152604080517f8b73c3c69bb8fe3d512ecc4cf759cc79239f7b179b0ffacaa9a75d522b39400f818901819052818301979097526060810194909452608080850193909352308483018190528151808603909301835260c0948501909152815191909601209052929092526101205250506001600160a01b031661014052506200029a565b82805462000194906200025e565b90600052602060002090601f016020900481019282620001b8576000855562000203565b82601f10620001d357805160ff191683800117855562000203565b8280016001018555821562000203579182015b8281111562000203578251825591602001919060010190620001e6565b506200021192915062000215565b5090565b5b8082111562000211576000815560010162000216565b6000602082840312156200023f57600080fd5b81516001600160a01b03811681146200025757600080fd5b9392505050565b600181811c908216806200027357607f821691505b6020821081036200029457634e487b7160e01b600052602260045260246000fd5b50919050565b60805160a05160c05160e0516101005161012051610140516122446200030a600039600081816102aa015281816104b5015281816105110152610f4501526000611056015260006110a50152600061108001526000610fd9015260006110030152600061102d01526122446000f3fe608060405234801561001057600080fd5b50600436106101735760003560e01c80636f307dc3116100de5780639ab24eb011610097578063c3cda52011610071578063c3cda52014610384578063d505accf14610397578063dd62ed3e146103aa578063f1127ed8146103bd57600080fd5b80639ab24eb01461034b578063a457c2d71461035e578063a9059cbb1461037157600080fd5b80636f307dc3146102a55780636fcfff45146102cc57806370a08231146102f45780637ecebe001461031d5780638e539e8c1461033057806395d89b411461034357600080fd5b8063313ce56711610130578063313ce567146102045780633644e5151461021e57806339509351146102265780633a46b1a814610239578063587cde1e1461024c5780635c19a95c1461029057600080fd5b806306fdde0314610178578063095ea7b31461019657806318160ddd146101b9578063205c2878146101cb57806323b872dd146101de5780632f4f21e2146101f1575b600080fd5b6101806103fa565b60405161018d9190611ebf565b60405180910390f35b6101a96101a4366004611f09565b61048c565b604051901515815260200161018d565b6002545b60405190815260200161018d565b6101a96101d9366004611f09565b6104a4565b6101a96101ec366004611f33565b6104e4565b6101a96101ff366004611f09565b61050a565b61020c610542565b60405160ff909116815260200161018d565b6101bd610551565b6101a9610234366004611f09565b61055b565b6101bd610247366004611f09565b61057d565b61027861025a366004611f6f565b6001600160a01b039081166000908152600760205260409020541690565b6040516001600160a01b03909116815260200161018d565b6102a361029e366004611f6f565b6105f5565b005b6102787f000000000000000000000000000000000000000000000000000000000000000081565b6102df6102da366004611f6f565b610602565b60405163ffffffff909116815260200161018d565b6101bd610302366004611f6f565b6001600160a01b031660009081526020819052604090205490565b6101bd61032b366004611f6f565b61062a565b6101bd61033e366004611f8a565b610648565b6101806106a4565b6101bd610359366004611f6f565b6106b3565b6101a961036c366004611f09565b61073a565b6101a961037f366004611f09565b6107c0565b6102a3610392366004611fb2565b6107ce565b6102a36103a536600461200c565b610904565b6101bd6103b8366004612079565b610a68565b6103d06103cb3660046120ac565b610a93565b60408051825163ffffffff1681526020928301516001600160e01b0316928101929092520161018d565b606060038054610409906120ec565b80601f0160208091040260200160405190810160405280929190818152602001828054610435906120ec565b80156104825780601f1061045757610100808354040283529160200191610482565b820191906000526020600020905b81548152906001019060200180831161046557829003601f168201915b5050505050905090565b60003361049a818585610b17565b5060019392505050565b60006104b03383610c3b565b6104db7f00000000000000000000000000000000000000000000000000000000000000008484610c49565b50600192915050565b6000336104f2858285610cb1565b6104fd858585610d2b565b60019150505b9392505050565b60006105387f0000000000000000000000000000000000000000000000000000000000000000333085610eff565b6104db8383610f37565b600061054c610f41565b905090565b600061054c610fcc565b60003361049a81858561056e8383610a68565b6105789190612136565b610b17565b60004382106105d35760405162461bcd60e51b815260206004820152601f60248201527f4552433230566f7465733a20626c6f636b206e6f7420796574206d696e65640060448201526064015b60405180910390fd5b6001600160a01b038316600090815260086020526040902061050390836110f3565b6105ff33826111b0565b50565b6001600160a01b03811660009081526008602052604081205461062490611229565b92915050565b6001600160a01b038116600090815260056020526040812054610624565b60004382106106995760405162461bcd60e51b815260206004820152601f60248201527f4552433230566f7465733a20626c6f636b206e6f7420796574206d696e65640060448201526064016105ca565b6106246009836110f3565b606060048054610409906120ec565b6001600160a01b0381166000908152600860205260408120548015610727576001600160a01b03831660009081526008602052604090206106f560018361214e565b8154811061070557610705612165565b60009182526020909120015464010000000090046001600160e01b031661072a565b60005b6001600160e01b03169392505050565b600033816107488286610a68565b9050838110156107a85760405162461bcd60e51b815260206004820152602560248201527f45524332303a2064656372656173656420616c6c6f77616e63652062656c6f77604482015264207a65726f60d81b60648201526084016105ca565b6107b58286868403610b17565b506001949350505050565b60003361049a818585610d2b565b8342111561081e5760405162461bcd60e51b815260206004820152601d60248201527f4552433230566f7465733a207369676e6174757265206578706972656400000060448201526064016105ca565b604080517fe48329057bfd03d55e49b547132e39cffd9c1820ad7b9d4c5307691425d15adf60208201526001600160a01b038816918101919091526060810186905260808101859052600090610898906108909060a00160405160208183030381529060405280519060200120611292565b8585856112e0565b90506108a381611308565b86146108f15760405162461bcd60e51b815260206004820152601960248201527f4552433230566f7465733a20696e76616c6964206e6f6e63650000000000000060448201526064016105ca565b6108fb81886111b0565b50505050505050565b834211156109545760405162461bcd60e51b815260206004820152601d60248201527f45524332305065726d69743a206578706972656420646561646c696e6500000060448201526064016105ca565b60007f6e71edae12b1b97f4d1f60370fef10105fa2faae0126114a169c64845d6126c98888886109838c611308565b6040805160208101969096526001600160a01b0394851690860152929091166060840152608083015260a082015260c0810186905260e00160405160208183030381529060405280519060200120905060006109de82611292565b905060006109ee828787876112e0565b9050896001600160a01b0316816001600160a01b031614610a515760405162461bcd60e51b815260206004820152601e60248201527f45524332305065726d69743a20696e76616c6964207369676e6174757265000060448201526064016105ca565b610a5c8a8a8a610b17565b50505050505050505050565b6001600160a01b03918216600090815260016020908152604080832093909416825291909152205490565b60408051808201909152600080825260208201526001600160a01b0383166000908152600860205260409020805463ffffffff8416908110610ad757610ad7612165565b60009182526020918290206040805180820190915291015463ffffffff8116825264010000000090046001600160e01b0316918101919091529392505050565b6001600160a01b038316610b795760405162461bcd60e51b8152602060048201526024808201527f45524332303a20617070726f76652066726f6d20746865207a65726f206164646044820152637265737360e01b60648201526084016105ca565b6001600160a01b038216610bda5760405162461bcd60e51b815260206004820152602260248201527f45524332303a20617070726f766520746f20746865207a65726f206164647265604482015261737360f01b60648201526084016105ca565b6001600160a01b0383811660008181526001602090815260408083209487168084529482529182902085905590518481527f8c5be1e5ebec7d5bd14f71427d1e84f3dd0314c0f7b2291e5b200ac8c7c3b925910160405180910390a3505050565b610c458282611330565b5050565b6040516001600160a01b038316602482015260448101829052610cac90849063a9059cbb60e01b906064015b60408051601f198184030181529190526020810180516001600160e01b03166001600160e01b031990931692909217909152611348565b505050565b6000610cbd8484610a68565b90506000198114610d255781811015610d185760405162461bcd60e51b815260206004820152601d60248201527f45524332303a20696e73756666696369656e7420616c6c6f77616e636500000060448201526064016105ca565b610d258484848403610b17565b50505050565b6001600160a01b038316610d8f5760405162461bcd60e51b815260206004820152602560248201527f45524332303a207472616e736665722066726f6d20746865207a65726f206164604482015264647265737360d81b60648201526084016105ca565b6001600160a01b038216610df15760405162461bcd60e51b815260206004820152602360248201527f45524332303a207472616e7366657220746f20746865207a65726f206164647260448201526265737360e81b60648201526084016105ca565b6001600160a01b03831660009081526020819052604090205481811015610e695760405162461bcd60e51b815260206004820152602660248201527f45524332303a207472616e7366657220616d6f756e7420657863656564732062604482015265616c616e636560d01b60648201526084016105ca565b6001600160a01b03808516600090815260208190526040808220858503905591851681529081208054849290610ea0908490612136565b92505081905550826001600160a01b0316846001600160a01b03167fddf252ad1be2c89b69c2b068fc378daa952ba7f163c4a11628f55a4df523b3ef84604051610eec91815260200190565b60405180910390a3610d2584848461141a565b6040516001600160a01b0380851660248301528316604482015260648101829052610d259085906323b872dd60e01b90608401610c75565b610c458282611425565b60007f00000000000000000000000000000000000000000000000000000000000000006001600160a01b031663313ce5676040518163ffffffff1660e01b8152600401602060405180830381865afa925050508015610fbd575060408051601f3d908101601f19168201909252610fba9181019061217b565b60015b610fc75750601290565b919050565b6000306001600160a01b037f00000000000000000000000000000000000000000000000000000000000000001614801561102557507f000000000000000000000000000000000000000000000000000000000000000046145b1561104f57507f000000000000000000000000000000000000000000000000000000000000000090565b50604080517f00000000000000000000000000000000000000000000000000000000000000006020808301919091527f0000000000000000000000000000000000000000000000000000000000000000828401527f000000000000000000000000000000000000000000000000000000000000000060608301524660808301523060a0808401919091528351808403909101815260c0909201909252805191012090565b8154600090815b8181101561115757600061110e82846114af565b90508486828154811061112357611123612165565b60009182526020909120015463ffffffff16111561114357809250611151565b61114e816001612136565b91505b506110fa565b811561119b578461116960018461214e565b8154811061117957611179612165565b60009182526020909120015464010000000090046001600160e01b031661119e565b60005b6001600160e01b031695945050505050565b6001600160a01b038281166000818152600760208181526040808420805485845282862054949093528787166001600160a01b03198416811790915590519190951694919391928592917f3134e8a2e6d97e929a7e54011ea5485d7d196dd5f0ba4d4ef95803e8e3fc257f9190a4610d258284836114ca565b600063ffffffff82111561128e5760405162461bcd60e51b815260206004820152602660248201527f53616665436173743a2076616c756520646f65736e27742066697420696e203360448201526532206269747360d01b60648201526084016105ca565b5090565b600061062461129f610fcc565b8360405161190160f01b6020820152602281018390526042810182905260009060620160405160208183030381529060405280519060200120905092915050565b60008060006112f187878787611607565b915091506112fe816116f4565b5095945050505050565b6001600160a01b03811660009081526005602052604090208054600181018255905b50919050565b61133a82826118aa565b610d2560096119ff83611a0b565b600061139d826040518060400160405280602081526020017f5361666545524332303a206c6f772d6c6576656c2063616c6c206661696c6564815250856001600160a01b0316611b849092919063ffffffff16565b805190915015610cac57808060200190518101906113bb9190612198565b610cac5760405162461bcd60e51b815260206004820152602a60248201527f5361666545524332303a204552433230206f7065726174696f6e20646964206e6044820152691bdd081cdd58d8d9595960b21b60648201526084016105ca565b610cac838383611b9b565b61142f8282611bcd565b6002546001600160e01b0310156114a15760405162461bcd60e51b815260206004820152603060248201527f4552433230566f7465733a20746f74616c20737570706c79207269736b73206f60448201526f766572666c6f77696e6720766f74657360801b60648201526084016105ca565b610d256009611cb483611a0b565b60006114be60028484186121ba565b61050390848416612136565b816001600160a01b0316836001600160a01b0316141580156114ec5750600081115b15610cac576001600160a01b0383161561157a576001600160a01b03831660009081526008602052604081208190611527906119ff85611a0b565b91509150846001600160a01b03167fdec2bacdd2f05b59de34da9b523dff8be42e5e38e818c82fdb0bae774387a724838360405161156f929190918252602082015260400190565b60405180910390a250505b6001600160a01b03821615610cac576001600160a01b038216600090815260086020526040812081906115b090611cb485611a0b565b91509150836001600160a01b03167fdec2bacdd2f05b59de34da9b523dff8be42e5e38e818c82fdb0bae774387a72483836040516115f8929190918252602082015260400190565b60405180910390a25050505050565b6000807f7fffffffffffffffffffffffffffffff5d576e7357a4501ddfe92f46681b20a083111561163e57506000905060036116eb565b8460ff16601b1415801561165657508460ff16601c14155b1561166757506000905060046116eb565b6040805160008082526020820180845289905260ff881692820192909252606081018690526080810185905260019060a0016020604051602081039080840390855afa1580156116bb573d6000803e3d6000fd5b5050604051601f1901519150506001600160a01b0381166116e4576000600192509250506116eb565b9150600090505b94509492505050565b6000816004811115611708576117086121dc565b036117105750565b6001816004811115611724576117246121dc565b036117715760405162461bcd60e51b815260206004820152601860248201527f45434453413a20696e76616c6964207369676e6174757265000000000000000060448201526064016105ca565b6002816004811115611785576117856121dc565b036117d25760405162461bcd60e51b815260206004820152601f60248201527f45434453413a20696e76616c6964207369676e6174757265206c656e6774680060448201526064016105ca565b60038160048111156117e6576117e66121dc565b0361183e5760405162461bcd60e51b815260206004820152602260248201527f45434453413a20696e76616c6964207369676e6174757265202773272076616c604482015261756560f01b60648201526084016105ca565b6004816004811115611852576118526121dc565b036105ff5760405162461bcd60e51b815260206004820152602260248201527f45434453413a20696e76616c6964207369676e6174757265202776272076616c604482015261756560f01b60648201526084016105ca565b6001600160a01b03821661190a5760405162461bcd60e51b815260206004820152602160248201527f45524332303a206275726e2066726f6d20746865207a65726f206164647265736044820152607360f81b60648201526084016105ca565b6001600160a01b0382166000908152602081905260409020548181101561197e5760405162461bcd60e51b815260206004820152602260248201527f45524332303a206275726e20616d6f756e7420657863656564732062616c616e604482015261636560f01b60648201526084016105ca565b6001600160a01b03831660009081526020819052604081208383039055600280548492906119ad90849061214e565b90915550506040518281526000906001600160a01b038516907fddf252ad1be2c89b69c2b068fc378daa952ba7f163c4a11628f55a4df523b3ef9060200160405180910390a3610cac8360008461141a565b6000610503828461214e565b825460009081908015611a565785611a2460018361214e565b81548110611a3457611a34612165565b60009182526020909120015464010000000090046001600160e01b0316611a59565b60005b6001600160e01b03169250611a7283858763ffffffff16565b9150600081118015611ab057504386611a8c60018461214e565b81548110611a9c57611a9c612165565b60009182526020909120015463ffffffff16145b15611b1057611abe82611cc0565b86611aca60018461214e565b81548110611ada57611ada612165565b9060005260206000200160000160046101000a8154816001600160e01b0302191690836001600160e01b03160217905550611b7b565b856040518060400160405280611b2543611229565b63ffffffff168152602001611b3985611cc0565b6001600160e01b0390811690915282546001810184556000938452602093849020835194909301519091166401000000000263ffffffff909316929092179101555b50935093915050565b6060611b938484600085611d29565b949350505050565b6001600160a01b03838116600090815260076020526040808220548584168352912054610cac929182169116836114ca565b6001600160a01b038216611c235760405162461bcd60e51b815260206004820152601f60248201527f45524332303a206d696e7420746f20746865207a65726f20616464726573730060448201526064016105ca565b8060026000828254611c359190612136565b90915550506001600160a01b03821660009081526020819052604081208054839290611c62908490612136565b90915550506040518181526001600160a01b038316906000907fddf252ad1be2c89b69c2b068fc378daa952ba7f163c4a11628f55a4df523b3ef9060200160405180910390a3610c456000838361141a565b60006105038284612136565b60006001600160e01b0382111561128e5760405162461bcd60e51b815260206004820152602760248201527f53616665436173743a2076616c756520646f65736e27742066697420696e20326044820152663234206269747360c81b60648201526084016105ca565b606082471015611d8a5760405162461bcd60e51b815260206004820152602660248201527f416464726573733a20696e73756666696369656e742062616c616e636520666f6044820152651c8818d85b1b60d21b60648201526084016105ca565b6001600160a01b0385163b611de15760405162461bcd60e51b815260206004820152601d60248201527f416464726573733a2063616c6c20746f206e6f6e2d636f6e747261637400000060448201526064016105ca565b600080866001600160a01b03168587604051611dfd91906121f2565b60006040518083038185875af1925050503d8060008114611e3a576040519150601f19603f3d011682016040523d82523d6000602084013e611e3f565b606091505b5091509150611e4f828286611e5a565b979650505050505050565b60608315611e69575081610503565b825115611e795782518084602001fd5b8160405162461bcd60e51b81526004016105ca9190611ebf565b60005b83811015611eae578181015183820152602001611e96565b83811115610d255750506000910152565b6020815260008251806020840152611ede816040850160208701611e93565b601f01601f19169190910160400192915050565b80356001600160a01b0381168114610fc757600080fd5b60008060408385031215611f1c57600080fd5b611f2583611ef2565b946020939093013593505050565b600080600060608486031215611f4857600080fd5b611f5184611ef2565b9250611f5f60208501611ef2565b9150604084013590509250925092565b600060208284031215611f8157600080fd5b61050382611ef2565b600060208284031215611f9c57600080fd5b5035919050565b60ff811681146105ff57600080fd5b60008060008060008060c08789031215611fcb57600080fd5b611fd487611ef2565b955060208701359450604087013593506060870135611ff281611fa3565b9598949750929560808101359460a0909101359350915050565b600080600080600080600060e0888a03121561202757600080fd5b61203088611ef2565b965061203e60208901611ef2565b95506040880135945060608801359350608088013561205c81611fa3565b9699959850939692959460a0840135945060c09093013592915050565b6000806040838503121561208c57600080fd5b61209583611ef2565b91506120a360208401611ef2565b90509250929050565b600080604083850312156120bf57600080fd5b6120c883611ef2565b9150602083013563ffffffff811681146120e157600080fd5b809150509250929050565b600181811c9082168061210057607f821691505b60208210810361132a57634e487b7160e01b600052602260045260246000fd5b634e487b7160e01b600052601160045260246000fd5b6000821982111561214957612149612120565b500190565b60008282101561216057612160612120565b500390565b634e487b7160e01b600052603260045260246000fd5b60006020828403121561218d57600080fd5b815161050381611fa3565b6000602082840312156121aa57600080fd5b8151801515811461050357600080fd5b6000826121d757634e487b7160e01b600052601260045260246000fd5b500490565b634e487b7160e01b600052602160045260246000fd5b60008251612204818460208701611e93565b919091019291505056fea2646970667358221220d448a7df8f0f00ca45fdc5e0bc2bbbc46f84b852b31eba8f75d79e9c3baa292164736f6c634300080d0033",
  "immutableReferences": {
    "10728": [
      {
        "length": 32,
        "start": 682
      },
      {
        "length": 32,
        "start": 1205
      },
      {
        "length": 32,
        "start": 1297
      },
      {
        "length": 32,
        "start": 3909
      }
    ],
    "12382": [
      {
        "length": 32,
        "start": 4141
      }
    ],
    "12384": [
      {
        "length": 32,
        "start": 4099
      }
    ],
    "12386": [
      {
        "length": 32,
        "start": 4057
      }
    ],
    "12388": [
      {
        "length": 32,
        "start": 4224
      }
    ],
    "12390": [
      {
        "length": 32,
        "start": 4261
      }
    ],
    "12392": [
      {
        "length": 32,
        "start": 4182
      }
    ]
  },
  "source": "// SPDX-License-Identifier: MIT\npragma solidity ^0.8.0;\n\nimport \"@openzeppelin/contracts/token/ERC20/ERC20.sol\";\nimport \"@openzeppelin/contracts/token/ERC20/extensions/draft-ERC20Permit.sol\";\nimport \"@openzeppelin/contracts/token/ERC20/extensions/ERC20Votes.sol\";\nimport \"@openzeppelin/contracts/token/ERC20/extensions/ERC20Wrapper.sol\";\n\ncontract WrappedRariToken is ERC20, ERC20Permit, ERC20Votes, ERC20Wrapper {\n    constructor(IERC20 wrappedToken)\n        ERC20(\"WRarible\", \"WRari\")\n        ERC20Permit(\"WRarible\")\n        ERC20Wrapper(wrappedToken)\n    {}\n\n    // The functions below are overrides required by Solidity.\n\n    function decimals() public view virtual override(ERC20, ERC20Wrapper) returns (uint8) {\n        return super.decimals();\n    }\n\n    function _afterTokenTransfer(address from, address to, uint256 amount)\n        internal\n        override(ERC20, ERC20Votes)\n    {\n        super._afterTokenTransfer(from, to, amount);\n    }\n\n    function _mint(address to, uint256 amount)\n        internal\n        override(ERC20, ERC20Votes)\n    {\n        super._mint(to, amount);\n    }\n\n    function _burn(address account, uint256 amount)\n        internal\n        override(ERC20, ERC20Votes)\n    {\n        super._burn(account, amount);\n    }\n}",
  "sourcePath": "/Users/ds/Documents/rarible/governance-contracts/contracts/WrappedRariToken.sol",
  "compiler": {
    "name": "solc",
    "version": "0.8.13+commit.abaa5c0e.Emscripten.clang"
  },
  "schemaVersion": "3.4.3",
  "updatedAt": "2022-09-30T12:30:11.609Z",
  "devdoc": {
    "kind": "dev",
    "methods": {
      "DOMAIN_SEPARATOR()": {
        "details": "See {IERC20Permit-DOMAIN_SEPARATOR}."
      },
      "allowance(address,address)": {
        "details": "See {IERC20-allowance}."
      },
      "approve(address,uint256)": {
        "details": "See {IERC20-approve}. NOTE: If `amount` is the maximum `uint256`, the allowance is not updated on `transferFrom`. This is semantically equivalent to an infinite approval. Requirements: - `spender` cannot be the zero address."
      },
      "balanceOf(address)": {
        "details": "See {IERC20-balanceOf}."
      },
      "checkpoints(address,uint32)": {
        "details": "Get the `pos`-th checkpoint for `account`."
      },
      "decreaseAllowance(address,uint256)": {
        "details": "Atomically decreases the allowance granted to `spender` by the caller. This is an alternative to {approve} that can be used as a mitigation for problems described in {IERC20-approve}. Emits an {Approval} event indicating the updated allowance. Requirements: - `spender` cannot be the zero address. - `spender` must have allowance for the caller of at least `subtractedValue`."
      },
      "delegate(address)": {
        "details": "Delegate votes from the sender to `delegatee`."
      },
      "delegateBySig(address,uint256,uint256,uint8,bytes32,bytes32)": {
        "details": "Delegates votes from signer to `delegatee`"
      },
      "delegates(address)": {
        "details": "Get the address `account` is currently delegating to."
      },
      "depositFor(address,uint256)": {
        "details": "Allow a user to deposit underlying tokens and mint the corresponding number of wrapped tokens."
      },
      "getPastTotalSupply(uint256)": {
        "details": "Retrieve the `totalSupply` at the end of `blockNumber`. Note, this value is the sum of all balances. It is but NOT the sum of all the delegated votes! Requirements: - `blockNumber` must have been already mined"
      },
      "getPastVotes(address,uint256)": {
        "details": "Retrieve the number of votes for `account` at the end of `blockNumber`. Requirements: - `blockNumber` must have been already mined"
      },
      "getVotes(address)": {
        "details": "Gets the current votes balance for `account`"
      },
      "increaseAllowance(address,uint256)": {
        "details": "Atomically increases the allowance granted to `spender` by the caller. This is an alternative to {approve} that can be used as a mitigation for problems described in {IERC20-approve}. Emits an {Approval} event indicating the updated allowance. Requirements: - `spender` cannot be the zero address."
      },
      "name()": {
        "details": "Returns the name of the token."
      },
      "nonces(address)": {
        "details": "See {IERC20Permit-nonces}."
      },
      "numCheckpoints(address)": {
        "details": "Get number of checkpoints for `account`."
      },
      "permit(address,address,uint256,uint256,uint8,bytes32,bytes32)": {
        "details": "See {IERC20Permit-permit}."
      },
      "symbol()": {
        "details": "Returns the symbol of the token, usually a shorter version of the name."
      },
      "totalSupply()": {
        "details": "See {IERC20-totalSupply}."
      },
      "transfer(address,uint256)": {
        "details": "See {IERC20-transfer}. Requirements: - `to` cannot be the zero address. - the caller must have a balance of at least `amount`."
      },
      "transferFrom(address,address,uint256)": {
        "details": "See {IERC20-transferFrom}. Emits an {Approval} event indicating the updated allowance. This is not required by the EIP. See the note at the beginning of {ERC20}. NOTE: Does not update the allowance if the current allowance is the maximum `uint256`. Requirements: - `from` and `to` cannot be the zero address. - `from` must have a balance of at least `amount`. - the caller must have allowance for ``from``'s tokens of at least `amount`."
      },
      "withdrawTo(address,uint256)": {
        "details": "Allow a user to burn a number of wrapped tokens and withdraw the corresponding number of underlying tokens."
      }
    },
    "version": 1
  },
  "userdoc": {
    "kind": "user",
    "methods": {},
    "version": 1
  }
}